{
  "contracts/MesaFactory.sol": {
    "MesaFactory": {
      "abi": [
        {
          "inputs": [],
          "stateMutability": "nonpayable",
          "type": "constructor"
        },
        {
          "anonymous": false,
          "inputs": [
            {
              "indexed": false,
              "internalType": "address",
              "name": "feeManager",
              "type": "address"
            },
            {
              "indexed": false,
              "internalType": "address",
              "name": "feeTo",
              "type": "address"
            },
            {
              "indexed": false,
              "internalType": "address",
              "name": "templateManager",
              "type": "address"
            },
            {
              "indexed": false,
              "internalType": "address",
              "name": "templateLauncher",
              "type": "address"
            },
            {
              "indexed": false,
              "internalType": "uint256",
              "name": "feeNumerator",
              "type": "uint256"
            },
            {
              "indexed": false,
              "internalType": "uint256",
              "name": "auctionFee",
              "type": "uint256"
            }
          ],
          "name": "FactoryInitialized",
          "type": "event"
        },
        {
          "anonymous": false,
          "inputs": [
            {
              "indexed": true,
              "internalType": "uint256",
              "name": "auctionFee",
              "type": "uint256"
            }
          ],
          "name": "SetAuctionFee",
          "type": "event"
        },
        {
          "anonymous": false,
          "inputs": [
            {
              "indexed": true,
              "internalType": "address",
              "name": "feeManager",
              "type": "address"
            }
          ],
          "name": "SetFeeManager",
          "type": "event"
        },
        {
          "anonymous": false,
          "inputs": [
            {
              "indexed": true,
              "internalType": "uint256",
              "name": "feeNumerator",
              "type": "uint256"
            }
          ],
          "name": "SetFeeNumerator",
          "type": "event"
        },
        {
          "anonymous": false,
          "inputs": [
            {
              "indexed": true,
              "internalType": "address",
              "name": "feeTo",
              "type": "address"
            }
          ],
          "name": "SetFeeTo",
          "type": "event"
        },
        {
          "anonymous": false,
          "inputs": [
            {
              "indexed": true,
              "internalType": "address",
              "name": "templateLauncher",
              "type": "address"
            }
          ],
          "name": "SetTemplateLauncher",
          "type": "event"
        },
        {
          "anonymous": false,
          "inputs": [
            {
              "indexed": true,
              "internalType": "address",
              "name": "templateManager",
              "type": "address"
            }
          ],
          "name": "SetTemplateManager",
          "type": "event"
        },
        {
          "anonymous": false,
          "inputs": [
            {
              "indexed": true,
              "internalType": "address",
              "name": "auction",
              "type": "address"
            },
            {
              "indexed": false,
              "internalType": "uint256",
              "name": "templateId",
              "type": "uint256"
            }
          ],
          "name": "TemplateLaunched",
          "type": "event"
        },
        {
          "inputs": [
            {
              "internalType": "uint256",
              "name": "",
              "type": "uint256"
            }
          ],
          "name": "allAuctions",
          "outputs": [
            {
              "internalType": "address",
              "name": "",
              "type": "address"
            }
          ],
          "stateMutability": "view",
          "type": "function"
        },
        {
          "inputs": [],
          "name": "auctionFee",
          "outputs": [
            {
              "internalType": "uint256",
              "name": "",
              "type": "uint256"
            }
          ],
          "stateMutability": "view",
          "type": "function"
        },
        {
          "inputs": [],
          "name": "feeDenominator",
          "outputs": [
            {
              "internalType": "uint256",
              "name": "",
              "type": "uint256"
            }
          ],
          "stateMutability": "view",
          "type": "function"
        },
        {
          "inputs": [],
          "name": "feeManager",
          "outputs": [
            {
              "internalType": "address",
              "name": "",
              "type": "address"
            }
          ],
          "stateMutability": "view",
          "type": "function"
        },
        {
          "inputs": [],
          "name": "feeNumerator",
          "outputs": [
            {
              "internalType": "uint256",
              "name": "",
              "type": "uint256"
            }
          ],
          "stateMutability": "view",
          "type": "function"
        },
        {
          "inputs": [],
          "name": "feeTo",
          "outputs": [
            {
              "internalType": "address",
              "name": "",
              "type": "address"
            }
          ],
          "stateMutability": "view",
          "type": "function"
        },
        {
          "inputs": [
            {
              "internalType": "address",
              "name": "_feeManager",
              "type": "address"
            },
            {
              "internalType": "address",
              "name": "_feeTo",
              "type": "address"
            },
            {
              "internalType": "address",
              "name": "_templateManager",
              "type": "address"
            },
            {
              "internalType": "address",
              "name": "_templateLauncher",
              "type": "address"
            },
            {
              "internalType": "uint256",
              "name": "_feeNumerator",
              "type": "uint256"
            },
            {
              "internalType": "uint256",
              "name": "_auctionFee",
              "type": "uint256"
            }
          ],
          "name": "initalize",
          "outputs": [],
          "stateMutability": "nonpayable",
          "type": "function"
        },
        {
          "inputs": [
            {
              "internalType": "uint256",
              "name": "_templateId",
              "type": "uint256"
            },
            {
              "internalType": "bytes",
              "name": "_data",
              "type": "bytes"
            }
          ],
          "name": "launchTemplate",
          "outputs": [
            {
              "internalType": "address",
              "name": "newAuction",
              "type": "address"
            }
          ],
          "stateMutability": "payable",
          "type": "function"
        },
        {
          "inputs": [],
          "name": "numberOfAuctions",
          "outputs": [
            {
              "internalType": "uint256",
              "name": "",
              "type": "uint256"
            }
          ],
          "stateMutability": "view",
          "type": "function"
        },
        {
          "inputs": [
            {
              "internalType": "uint256",
              "name": "_auctionFee",
              "type": "uint256"
            }
          ],
          "name": "setAuctionFee",
          "outputs": [],
          "stateMutability": "nonpayable",
          "type": "function"
        },
        {
          "inputs": [
            {
              "internalType": "address",
              "name": "_feeManager",
              "type": "address"
            }
          ],
          "name": "setFeeManager",
          "outputs": [],
          "stateMutability": "nonpayable",
          "type": "function"
        },
        {
          "inputs": [
            {
              "internalType": "uint256",
              "name": "_feeNumerator",
              "type": "uint256"
            }
          ],
          "name": "setFeeNumerator",
          "outputs": [],
          "stateMutability": "nonpayable",
          "type": "function"
        },
        {
          "inputs": [
            {
              "internalType": "address",
              "name": "_feeTo",
              "type": "address"
            }
          ],
          "name": "setFeeTo",
          "outputs": [],
          "stateMutability": "nonpayable",
          "type": "function"
        },
        {
          "inputs": [
            {
              "internalType": "address",
              "name": "_templateLauncher",
              "type": "address"
            }
          ],
          "name": "setTemplateLauncher",
          "outputs": [],
          "stateMutability": "nonpayable",
          "type": "function"
        },
        {
          "inputs": [
            {
              "internalType": "address",
              "name": "_templateManager",
              "type": "address"
            }
          ],
          "name": "setTemplateManager",
          "outputs": [],
          "stateMutability": "nonpayable",
          "type": "function"
        },
        {
          "inputs": [],
          "name": "templateId",
          "outputs": [
            {
              "internalType": "uint256",
              "name": "",
              "type": "uint256"
            }
          ],
          "stateMutability": "view",
          "type": "function"
        },
        {
          "inputs": [],
          "name": "templateLauncher",
          "outputs": [
            {
              "internalType": "address",
              "name": "",
              "type": "address"
            }
          ],
          "stateMutability": "view",
          "type": "function"
        },
        {
          "inputs": [],
          "name": "templateManager",
          "outputs": [
            {
              "internalType": "address",
              "name": "",
              "type": "address"
            }
          ],
          "stateMutability": "view",
          "type": "function"
        }
      ],
      "evm": {
        "bytecode": {
          "linkReferences": {},
          "object": "60a06040526103e86080526008805460ff1916905534801561002057600080fd5b50608051610aad61003b600039806104535250610aad6000f3fe6080604052600436106101095760003560e01c80636b0cd16711610095578063d0fb020311610064578063d0fb020314610379578063d4c33f2a1461038e578063e86dea4a146103a3578063f46901ed146103b8578063f59e754c146103eb57610109565b80636b0cd167146102d45780637aa77f29146103075780639afff8441461031c578063a45db9111461034f57610109565b806341a7ab1b116100dc57806341a7ab1b146101a5578063472d35b91461021c5780634c15d3ac146102515780634d68287e146102aa57806350d9d472146102bf57610109565b8063017e7e581461010e57806314525b6b1461013f578063165c588114610166578063180b0d7e14610190575b600080fd5b34801561011a57600080fd5b50610123610415565b604080516001600160a01b039092168252519081900360200190f35b34801561014b57600080fd5b50610154610424565b60408051918252519081900360200190f35b34801561017257600080fd5b506101236004803603602081101561018957600080fd5b503561042a565b34801561019c57600080fd5b50610154610451565b610123600480360360408110156101bb57600080fd5b813591908101906040810160208201356401000000008111156101dd57600080fd5b8201836020820111156101ef57600080fd5b8035906020019184600183028401116401000000008311171561021157600080fd5b509092509050610475565b34801561022857600080fd5b5061024f6004803603602081101561023f57600080fd5b50356001600160a01b03166105b3565b005b34801561025d57600080fd5b5061024f600480360360c081101561027457600080fd5b506001600160a01b0381358116916020810135821691604082013581169160608101359091169060808101359060a0013561064a565b3480156102b657600080fd5b50610123610756565b3480156102cb57600080fd5b50610154610765565b3480156102e057600080fd5b5061024f600480360360208110156102f757600080fd5b50356001600160a01b031661076b565b34801561031357600080fd5b50610154610802565b34801561032857600080fd5b5061024f6004803603602081101561033f57600080fd5b50356001600160a01b0316610808565b34801561035b57600080fd5b5061024f6004803603602081101561037257600080fd5b503561089f565b34801561038557600080fd5b5061012361091c565b34801561039a57600080fd5b5061012361092b565b3480156103af57600080fd5b5061015461093a565b3480156103c457600080fd5b5061024f600480360360208110156103db57600080fd5b50356001600160a01b0316610940565b3480156103f757600080fd5b5061024f6004803603602081101561040e57600080fd5b50356109d7565b6002546001600160a01b031681565b60015481565b6006818154811061043757fe5b6000918252602090912001546001600160a01b0316905081565b7f000000000000000000000000000000000000000000000000000000000000000081565b600554604080516341a7ab1b60e01b81526004810186815260248201928352604482018590526000936001600160a01b0316926341a7ab1b92889288928892606401848480828437600081840152601f19601f820116905080830192505050945050505050602060405180830381600087803b1580156104f457600080fd5b505af1158015610508573d6000803e3d6000fd5b505050506040513d602081101561051e57600080fd5b50516040805186815290519192506001600160a01b038316917fb4e0c04d31936037ef6d0ff42d7e7dbea22f4842fecb0702df62c79e70d918619181900360200190a2600680546001810182556000919091527ff652222313e28459528d920b65115c16c04f3efc82aaedc97be59f3f377c0d3f0180546001600160a01b0319166001600160a01b0383161790559392505050565b6003546001600160a01b03163314610600576040805162461bcd60e51b81526020600482015260166024820152600080516020610a58833981519152604482015290519081900360640190fd5b600380546001600160a01b0319166001600160a01b0383169081179091556040517f5d0517e3a4eabea892d9750138cd21d4a6cf3b935b43d0598df7055f463819b290600090a250565b60085460ff16156106a2576040805162461bcd60e51b815260206004820181905260248201527f4d657361466163746f72793a20414c52454144595f494e495449414c495a4544604482015290519081900360640190fd5b600380546001600160a01b038089166001600160a01b0319928316811790935560028054898316908416811790915560008690556004805489841690851681179091556005805493891693909416831790935560018590556040805194855260208501919091528381019290925260608301526080820184905260a08201839052517f228df483cbe73c534e5af85d3704dfc4ba11a24c8a2d6923e6c0b743b3dc02eb9181900360c00190a1505050505050565b6005546001600160a01b031681565b60065490565b6004546001600160a01b031633146107b8576040805162461bcd60e51b81526020600482015260166024820152600080516020610a58833981519152604482015290519081900360640190fd5b600580546001600160a01b0319166001600160a01b0383169081179091556040517f79df299870e2d96fc19ed876c317dad718a6b7bcddbee389016cc81daa9972f690600090a250565b60075481565b6004546001600160a01b03163314610855576040805162461bcd60e51b81526020600482015260166024820152600080516020610a58833981519152604482015290519081900360640190fd5b600480546001600160a01b0319166001600160a01b0383169081179091556040517f9a6aeabb5aa9c1121a3c35c1d8b07a62cfcb6b10f09c83e85cd44c316be661fe90600090a250565b6003546001600160a01b031633146108ec576040805162461bcd60e51b81526020600482015260166024820152600080516020610a58833981519152604482015290519081900360640190fd5b600081815560405182917f683d2ab2955f064231f4bac9d1c4c37c54876be8a38c5dc695e27ee95af15c1191a250565b6003546001600160a01b031681565b6004546001600160a01b031681565b60005481565b6003546001600160a01b0316331461098d576040805162461bcd60e51b81526020600482015260166024820152600080516020610a58833981519152604482015290519081900360640190fd5b600280546001600160a01b0319166001600160a01b0383169081179091556040517ff6b59ffc88fbb27f33470b919e00b41139ee340eb349521f0cbbc1504ce29c3e90600090a250565b6003546001600160a01b03163314610a24576040805162461bcd60e51b81526020600482015260166024820152600080516020610a58833981519152604482015290519081900360640190fd5b600181905560405181907fe9715983ea4b510d21736461b533375c53104a5a09ef89162344b5d74fc69b7e90600090a25056fe4d657361466163746f72793a20464f5242494444454e00000000000000000000a2646970667358221220ec3baa2c6e35f34f32a1a209fd330adf0738b172234de50a8a572eccd8a9990564736f6c634300060c0033",
          "opcodes": "PUSH1 0xA0 PUSH1 0x40 MSTORE PUSH2 0x3E8 PUSH1 0x80 MSTORE PUSH1 0x8 DUP1 SLOAD PUSH1 0xFF NOT AND SWAP1 SSTORE CALLVALUE DUP1 ISZERO PUSH2 0x20 JUMPI PUSH1 0x0 DUP1 REVERT JUMPDEST POP PUSH1 0x80 MLOAD PUSH2 0xAAD PUSH2 0x3B PUSH1 0x0 CODECOPY DUP1 PUSH2 0x453 MSTORE POP PUSH2 0xAAD PUSH1 0x0 RETURN INVALID PUSH1 0x80 PUSH1 0x40 MSTORE PUSH1 0x4 CALLDATASIZE LT PUSH2 0x109 JUMPI PUSH1 0x0 CALLDATALOAD PUSH1 0xE0 SHR DUP1 PUSH4 0x6B0CD167 GT PUSH2 0x95 JUMPI DUP1 PUSH4 0xD0FB0203 GT PUSH2 0x64 JUMPI DUP1 PUSH4 0xD0FB0203 EQ PUSH2 0x379 JUMPI DUP1 PUSH4 0xD4C33F2A EQ PUSH2 0x38E JUMPI DUP1 PUSH4 0xE86DEA4A EQ PUSH2 0x3A3 JUMPI DUP1 PUSH4 0xF46901ED EQ PUSH2 0x3B8 JUMPI DUP1 PUSH4 0xF59E754C EQ PUSH2 0x3EB JUMPI PUSH2 0x109 JUMP JUMPDEST DUP1 PUSH4 0x6B0CD167 EQ PUSH2 0x2D4 JUMPI DUP1 PUSH4 0x7AA77F29 EQ PUSH2 0x307 JUMPI DUP1 PUSH4 0x9AFFF844 EQ PUSH2 0x31C JUMPI DUP1 PUSH4 0xA45DB911 EQ PUSH2 0x34F JUMPI PUSH2 0x109 JUMP JUMPDEST DUP1 PUSH4 0x41A7AB1B GT PUSH2 0xDC JUMPI DUP1 PUSH4 0x41A7AB1B EQ PUSH2 0x1A5 JUMPI DUP1 PUSH4 0x472D35B9 EQ PUSH2 0x21C JUMPI DUP1 PUSH4 0x4C15D3AC EQ PUSH2 0x251 JUMPI DUP1 PUSH4 0x4D68287E EQ PUSH2 0x2AA JUMPI DUP1 PUSH4 0x50D9D472 EQ PUSH2 0x2BF JUMPI PUSH2 0x109 JUMP JUMPDEST DUP1 PUSH4 0x17E7E58 EQ PUSH2 0x10E JUMPI DUP1 PUSH4 0x14525B6B EQ PUSH2 0x13F JUMPI DUP1 PUSH4 0x165C5881 EQ PUSH2 0x166 JUMPI DUP1 PUSH4 0x180B0D7E EQ PUSH2 0x190 JUMPI JUMPDEST PUSH1 0x0 DUP1 REVERT JUMPDEST CALLVALUE DUP1 ISZERO PUSH2 0x11A JUMPI PUSH1 0x0 DUP1 REVERT JUMPDEST POP PUSH2 0x123 PUSH2 0x415 JUMP JUMPDEST PUSH1 0x40 DUP1 MLOAD PUSH1 0x1 PUSH1 0x1 PUSH1 0xA0 SHL SUB SWAP1 SWAP3 AND DUP3 MSTORE MLOAD SWAP1 DUP2 SWAP1 SUB PUSH1 0x20 ADD SWAP1 RETURN JUMPDEST CALLVALUE DUP1 ISZERO PUSH2 0x14B JUMPI PUSH1 0x0 DUP1 REVERT JUMPDEST POP PUSH2 0x154 PUSH2 0x424 JUMP JUMPDEST PUSH1 0x40 DUP1 MLOAD SWAP2 DUP3 MSTORE MLOAD SWAP1 DUP2 SWAP1 SUB PUSH1 0x20 ADD SWAP1 RETURN JUMPDEST CALLVALUE DUP1 ISZERO PUSH2 0x172 JUMPI PUSH1 0x0 DUP1 REVERT JUMPDEST POP PUSH2 0x123 PUSH1 0x4 DUP1 CALLDATASIZE SUB PUSH1 0x20 DUP2 LT ISZERO PUSH2 0x189 JUMPI PUSH1 0x0 DUP1 REVERT JUMPDEST POP CALLDATALOAD PUSH2 0x42A JUMP JUMPDEST CALLVALUE DUP1 ISZERO PUSH2 0x19C JUMPI PUSH1 0x0 DUP1 REVERT JUMPDEST POP PUSH2 0x154 PUSH2 0x451 JUMP JUMPDEST PUSH2 0x123 PUSH1 0x4 DUP1 CALLDATASIZE SUB PUSH1 0x40 DUP2 LT ISZERO PUSH2 0x1BB JUMPI PUSH1 0x0 DUP1 REVERT JUMPDEST DUP2 CALLDATALOAD SWAP2 SWAP1 DUP2 ADD SWAP1 PUSH1 0x40 DUP2 ADD PUSH1 0x20 DUP3 ADD CALLDATALOAD PUSH5 0x100000000 DUP2 GT ISZERO PUSH2 0x1DD JUMPI PUSH1 0x0 DUP1 REVERT JUMPDEST DUP3 ADD DUP4 PUSH1 0x20 DUP3 ADD GT ISZERO PUSH2 0x1EF JUMPI PUSH1 0x0 DUP1 REVERT JUMPDEST DUP1 CALLDATALOAD SWAP1 PUSH1 0x20 ADD SWAP2 DUP5 PUSH1 0x1 DUP4 MUL DUP5 ADD GT PUSH5 0x100000000 DUP4 GT OR ISZERO PUSH2 0x211 JUMPI PUSH1 0x0 DUP1 REVERT JUMPDEST POP SWAP1 SWAP3 POP SWAP1 POP PUSH2 0x475 JUMP JUMPDEST CALLVALUE DUP1 ISZERO PUSH2 0x228 JUMPI PUSH1 0x0 DUP1 REVERT JUMPDEST POP PUSH2 0x24F PUSH1 0x4 DUP1 CALLDATASIZE SUB PUSH1 0x20 DUP2 LT ISZERO PUSH2 0x23F JUMPI PUSH1 0x0 DUP1 REVERT JUMPDEST POP CALLDATALOAD PUSH1 0x1 PUSH1 0x1 PUSH1 0xA0 SHL SUB AND PUSH2 0x5B3 JUMP JUMPDEST STOP JUMPDEST CALLVALUE DUP1 ISZERO PUSH2 0x25D JUMPI PUSH1 0x0 DUP1 REVERT JUMPDEST POP PUSH2 0x24F PUSH1 0x4 DUP1 CALLDATASIZE SUB PUSH1 0xC0 DUP2 LT ISZERO PUSH2 0x274 JUMPI PUSH1 0x0 DUP1 REVERT JUMPDEST POP PUSH1 0x1 PUSH1 0x1 PUSH1 0xA0 SHL SUB DUP2 CALLDATALOAD DUP2 AND SWAP2 PUSH1 0x20 DUP2 ADD CALLDATALOAD DUP3 AND SWAP2 PUSH1 0x40 DUP3 ADD CALLDATALOAD DUP2 AND SWAP2 PUSH1 0x60 DUP2 ADD CALLDATALOAD SWAP1 SWAP2 AND SWAP1 PUSH1 0x80 DUP2 ADD CALLDATALOAD SWAP1 PUSH1 0xA0 ADD CALLDATALOAD PUSH2 0x64A JUMP JUMPDEST CALLVALUE DUP1 ISZERO PUSH2 0x2B6 JUMPI PUSH1 0x0 DUP1 REVERT JUMPDEST POP PUSH2 0x123 PUSH2 0x756 JUMP JUMPDEST CALLVALUE DUP1 ISZERO PUSH2 0x2CB JUMPI PUSH1 0x0 DUP1 REVERT JUMPDEST POP PUSH2 0x154 PUSH2 0x765 JUMP JUMPDEST CALLVALUE DUP1 ISZERO PUSH2 0x2E0 JUMPI PUSH1 0x0 DUP1 REVERT JUMPDEST POP PUSH2 0x24F PUSH1 0x4 DUP1 CALLDATASIZE SUB PUSH1 0x20 DUP2 LT ISZERO PUSH2 0x2F7 JUMPI PUSH1 0x0 DUP1 REVERT JUMPDEST POP CALLDATALOAD PUSH1 0x1 PUSH1 0x1 PUSH1 0xA0 SHL SUB AND PUSH2 0x76B JUMP JUMPDEST CALLVALUE DUP1 ISZERO PUSH2 0x313 JUMPI PUSH1 0x0 DUP1 REVERT JUMPDEST POP PUSH2 0x154 PUSH2 0x802 JUMP JUMPDEST CALLVALUE DUP1 ISZERO PUSH2 0x328 JUMPI PUSH1 0x0 DUP1 REVERT JUMPDEST POP PUSH2 0x24F PUSH1 0x4 DUP1 CALLDATASIZE SUB PUSH1 0x20 DUP2 LT ISZERO PUSH2 0x33F JUMPI PUSH1 0x0 DUP1 REVERT JUMPDEST POP CALLDATALOAD PUSH1 0x1 PUSH1 0x1 PUSH1 0xA0 SHL SUB AND PUSH2 0x808 JUMP JUMPDEST CALLVALUE DUP1 ISZERO PUSH2 0x35B JUMPI PUSH1 0x0 DUP1 REVERT JUMPDEST POP PUSH2 0x24F PUSH1 0x4 DUP1 CALLDATASIZE SUB PUSH1 0x20 DUP2 LT ISZERO PUSH2 0x372 JUMPI PUSH1 0x0 DUP1 REVERT JUMPDEST POP CALLDATALOAD PUSH2 0x89F JUMP JUMPDEST CALLVALUE DUP1 ISZERO PUSH2 0x385 JUMPI PUSH1 0x0 DUP1 REVERT JUMPDEST POP PUSH2 0x123 PUSH2 0x91C JUMP JUMPDEST CALLVALUE DUP1 ISZERO PUSH2 0x39A JUMPI PUSH1 0x0 DUP1 REVERT JUMPDEST POP PUSH2 0x123 PUSH2 0x92B JUMP JUMPDEST CALLVALUE DUP1 ISZERO PUSH2 0x3AF JUMPI PUSH1 0x0 DUP1 REVERT JUMPDEST POP PUSH2 0x154 PUSH2 0x93A JUMP JUMPDEST CALLVALUE DUP1 ISZERO PUSH2 0x3C4 JUMPI PUSH1 0x0 DUP1 REVERT JUMPDEST POP PUSH2 0x24F PUSH1 0x4 DUP1 CALLDATASIZE SUB PUSH1 0x20 DUP2 LT ISZERO PUSH2 0x3DB JUMPI PUSH1 0x0 DUP1 REVERT JUMPDEST POP CALLDATALOAD PUSH1 0x1 PUSH1 0x1 PUSH1 0xA0 SHL SUB AND PUSH2 0x940 JUMP JUMPDEST CALLVALUE DUP1 ISZERO PUSH2 0x3F7 JUMPI PUSH1 0x0 DUP1 REVERT JUMPDEST POP PUSH2 0x24F PUSH1 0x4 DUP1 CALLDATASIZE SUB PUSH1 0x20 DUP2 LT ISZERO PUSH2 0x40E JUMPI PUSH1 0x0 DUP1 REVERT JUMPDEST POP CALLDATALOAD PUSH2 0x9D7 JUMP JUMPDEST PUSH1 0x2 SLOAD PUSH1 0x1 PUSH1 0x1 PUSH1 0xA0 SHL SUB AND DUP2 JUMP JUMPDEST PUSH1 0x1 SLOAD DUP2 JUMP JUMPDEST PUSH1 0x6 DUP2 DUP2 SLOAD DUP2 LT PUSH2 0x437 JUMPI INVALID JUMPDEST PUSH1 0x0 SWAP2 DUP3 MSTORE PUSH1 0x20 SWAP1 SWAP2 KECCAK256 ADD SLOAD PUSH1 0x1 PUSH1 0x1 PUSH1 0xA0 SHL SUB AND SWAP1 POP DUP2 JUMP JUMPDEST PUSH32 0x0 DUP2 JUMP JUMPDEST PUSH1 0x5 SLOAD PUSH1 0x40 DUP1 MLOAD PUSH4 0x41A7AB1B PUSH1 0xE0 SHL DUP2 MSTORE PUSH1 0x4 DUP2 ADD DUP7 DUP2 MSTORE PUSH1 0x24 DUP3 ADD SWAP3 DUP4 MSTORE PUSH1 0x44 DUP3 ADD DUP6 SWAP1 MSTORE PUSH1 0x0 SWAP4 PUSH1 0x1 PUSH1 0x1 PUSH1 0xA0 SHL SUB AND SWAP3 PUSH4 0x41A7AB1B SWAP3 DUP9 SWAP3 DUP9 SWAP3 DUP9 SWAP3 PUSH1 0x64 ADD DUP5 DUP5 DUP1 DUP3 DUP5 CALLDATACOPY PUSH1 0x0 DUP2 DUP5 ADD MSTORE PUSH1 0x1F NOT PUSH1 0x1F DUP3 ADD AND SWAP1 POP DUP1 DUP4 ADD SWAP3 POP POP POP SWAP5 POP POP POP POP POP PUSH1 0x20 PUSH1 0x40 MLOAD DUP1 DUP4 SUB DUP2 PUSH1 0x0 DUP8 DUP1 EXTCODESIZE ISZERO DUP1 ISZERO PUSH2 0x4F4 JUMPI PUSH1 0x0 DUP1 REVERT JUMPDEST POP GAS CALL ISZERO DUP1 ISZERO PUSH2 0x508 JUMPI RETURNDATASIZE PUSH1 0x0 DUP1 RETURNDATACOPY RETURNDATASIZE PUSH1 0x0 REVERT JUMPDEST POP POP POP POP PUSH1 0x40 MLOAD RETURNDATASIZE PUSH1 0x20 DUP2 LT ISZERO PUSH2 0x51E JUMPI PUSH1 0x0 DUP1 REVERT JUMPDEST POP MLOAD PUSH1 0x40 DUP1 MLOAD DUP7 DUP2 MSTORE SWAP1 MLOAD SWAP2 SWAP3 POP PUSH1 0x1 PUSH1 0x1 PUSH1 0xA0 SHL SUB DUP4 AND SWAP2 PUSH32 0xB4E0C04D31936037EF6D0FF42D7E7DBEA22F4842FECB0702DF62C79E70D91861 SWAP2 DUP2 SWAP1 SUB PUSH1 0x20 ADD SWAP1 LOG2 PUSH1 0x6 DUP1 SLOAD PUSH1 0x1 DUP2 ADD DUP3 SSTORE PUSH1 0x0 SWAP2 SWAP1 SWAP2 MSTORE PUSH32 0xF652222313E28459528D920B65115C16C04F3EFC82AAEDC97BE59F3F377C0D3F ADD DUP1 SLOAD PUSH1 0x1 PUSH1 0x1 PUSH1 0xA0 SHL SUB NOT AND PUSH1 0x1 PUSH1 0x1 PUSH1 0xA0 SHL SUB DUP4 AND OR SWAP1 SSTORE SWAP4 SWAP3 POP POP POP JUMP JUMPDEST PUSH1 0x3 SLOAD PUSH1 0x1 PUSH1 0x1 PUSH1 0xA0 SHL SUB AND CALLER EQ PUSH2 0x600 JUMPI PUSH1 0x40 DUP1 MLOAD PUSH3 0x461BCD PUSH1 0xE5 SHL DUP2 MSTORE PUSH1 0x20 PUSH1 0x4 DUP3 ADD MSTORE PUSH1 0x16 PUSH1 0x24 DUP3 ADD MSTORE PUSH1 0x0 DUP1 MLOAD PUSH1 0x20 PUSH2 0xA58 DUP4 CODECOPY DUP2 MLOAD SWAP2 MSTORE PUSH1 0x44 DUP3 ADD MSTORE SWAP1 MLOAD SWAP1 DUP2 SWAP1 SUB PUSH1 0x64 ADD SWAP1 REVERT JUMPDEST PUSH1 0x3 DUP1 SLOAD PUSH1 0x1 PUSH1 0x1 PUSH1 0xA0 SHL SUB NOT AND PUSH1 0x1 PUSH1 0x1 PUSH1 0xA0 SHL SUB DUP4 AND SWAP1 DUP2 OR SWAP1 SWAP2 SSTORE PUSH1 0x40 MLOAD PUSH32 0x5D0517E3A4EABEA892D9750138CD21D4A6CF3B935B43D0598DF7055F463819B2 SWAP1 PUSH1 0x0 SWAP1 LOG2 POP JUMP JUMPDEST PUSH1 0x8 SLOAD PUSH1 0xFF AND ISZERO PUSH2 0x6A2 JUMPI PUSH1 0x40 DUP1 MLOAD PUSH3 0x461BCD PUSH1 0xE5 SHL DUP2 MSTORE PUSH1 0x20 PUSH1 0x4 DUP3 ADD DUP2 SWAP1 MSTORE PUSH1 0x24 DUP3 ADD MSTORE PUSH32 0x4D657361466163746F72793A20414C52454144595F494E495449414C495A4544 PUSH1 0x44 DUP3 ADD MSTORE SWAP1 MLOAD SWAP1 DUP2 SWAP1 SUB PUSH1 0x64 ADD SWAP1 REVERT JUMPDEST PUSH1 0x3 DUP1 SLOAD PUSH1 0x1 PUSH1 0x1 PUSH1 0xA0 SHL SUB DUP1 DUP10 AND PUSH1 0x1 PUSH1 0x1 PUSH1 0xA0 SHL SUB NOT SWAP3 DUP4 AND DUP2 OR SWAP1 SWAP4 SSTORE PUSH1 0x2 DUP1 SLOAD DUP10 DUP4 AND SWAP1 DUP5 AND DUP2 OR SWAP1 SWAP2 SSTORE PUSH1 0x0 DUP7 SWAP1 SSTORE PUSH1 0x4 DUP1 SLOAD DUP10 DUP5 AND SWAP1 DUP6 AND DUP2 OR SWAP1 SWAP2 SSTORE PUSH1 0x5 DUP1 SLOAD SWAP4 DUP10 AND SWAP4 SWAP1 SWAP5 AND DUP4 OR SWAP1 SWAP4 SSTORE PUSH1 0x1 DUP6 SWAP1 SSTORE PUSH1 0x40 DUP1 MLOAD SWAP5 DUP6 MSTORE PUSH1 0x20 DUP6 ADD SWAP2 SWAP1 SWAP2 MSTORE DUP4 DUP2 ADD SWAP3 SWAP1 SWAP3 MSTORE PUSH1 0x60 DUP4 ADD MSTORE PUSH1 0x80 DUP3 ADD DUP5 SWAP1 MSTORE PUSH1 0xA0 DUP3 ADD DUP4 SWAP1 MSTORE MLOAD PUSH32 0x228DF483CBE73C534E5AF85D3704DFC4BA11A24C8A2D6923E6C0B743B3DC02EB SWAP2 DUP2 SWAP1 SUB PUSH1 0xC0 ADD SWAP1 LOG1 POP POP POP POP POP POP JUMP JUMPDEST PUSH1 0x5 SLOAD PUSH1 0x1 PUSH1 0x1 PUSH1 0xA0 SHL SUB AND DUP2 JUMP JUMPDEST PUSH1 0x6 SLOAD SWAP1 JUMP JUMPDEST PUSH1 0x4 SLOAD PUSH1 0x1 PUSH1 0x1 PUSH1 0xA0 SHL SUB AND CALLER EQ PUSH2 0x7B8 JUMPI PUSH1 0x40 DUP1 MLOAD PUSH3 0x461BCD PUSH1 0xE5 SHL DUP2 MSTORE PUSH1 0x20 PUSH1 0x4 DUP3 ADD MSTORE PUSH1 0x16 PUSH1 0x24 DUP3 ADD MSTORE PUSH1 0x0 DUP1 MLOAD PUSH1 0x20 PUSH2 0xA58 DUP4 CODECOPY DUP2 MLOAD SWAP2 MSTORE PUSH1 0x44 DUP3 ADD MSTORE SWAP1 MLOAD SWAP1 DUP2 SWAP1 SUB PUSH1 0x64 ADD SWAP1 REVERT JUMPDEST PUSH1 0x5 DUP1 SLOAD PUSH1 0x1 PUSH1 0x1 PUSH1 0xA0 SHL SUB NOT AND PUSH1 0x1 PUSH1 0x1 PUSH1 0xA0 SHL SUB DUP4 AND SWAP1 DUP2 OR SWAP1 SWAP2 SSTORE PUSH1 0x40 MLOAD PUSH32 0x79DF299870E2D96FC19ED876C317DAD718A6B7BCDDBEE389016CC81DAA9972F6 SWAP1 PUSH1 0x0 SWAP1 LOG2 POP JUMP JUMPDEST PUSH1 0x7 SLOAD DUP2 JUMP JUMPDEST PUSH1 0x4 SLOAD PUSH1 0x1 PUSH1 0x1 PUSH1 0xA0 SHL SUB AND CALLER EQ PUSH2 0x855 JUMPI PUSH1 0x40 DUP1 MLOAD PUSH3 0x461BCD PUSH1 0xE5 SHL DUP2 MSTORE PUSH1 0x20 PUSH1 0x4 DUP3 ADD MSTORE PUSH1 0x16 PUSH1 0x24 DUP3 ADD MSTORE PUSH1 0x0 DUP1 MLOAD PUSH1 0x20 PUSH2 0xA58 DUP4 CODECOPY DUP2 MLOAD SWAP2 MSTORE PUSH1 0x44 DUP3 ADD MSTORE SWAP1 MLOAD SWAP1 DUP2 SWAP1 SUB PUSH1 0x64 ADD SWAP1 REVERT JUMPDEST PUSH1 0x4 DUP1 SLOAD PUSH1 0x1 PUSH1 0x1 PUSH1 0xA0 SHL SUB NOT AND PUSH1 0x1 PUSH1 0x1 PUSH1 0xA0 SHL SUB DUP4 AND SWAP1 DUP2 OR SWAP1 SWAP2 SSTORE PUSH1 0x40 MLOAD PUSH32 0x9A6AEABB5AA9C1121A3C35C1D8B07A62CFCB6B10F09C83E85CD44C316BE661FE SWAP1 PUSH1 0x0 SWAP1 LOG2 POP JUMP JUMPDEST PUSH1 0x3 SLOAD PUSH1 0x1 PUSH1 0x1 PUSH1 0xA0 SHL SUB AND CALLER EQ PUSH2 0x8EC JUMPI PUSH1 0x40 DUP1 MLOAD PUSH3 0x461BCD PUSH1 0xE5 SHL DUP2 MSTORE PUSH1 0x20 PUSH1 0x4 DUP3 ADD MSTORE PUSH1 0x16 PUSH1 0x24 DUP3 ADD MSTORE PUSH1 0x0 DUP1 MLOAD PUSH1 0x20 PUSH2 0xA58 DUP4 CODECOPY DUP2 MLOAD SWAP2 MSTORE PUSH1 0x44 DUP3 ADD MSTORE SWAP1 MLOAD SWAP1 DUP2 SWAP1 SUB PUSH1 0x64 ADD SWAP1 REVERT JUMPDEST PUSH1 0x0 DUP2 DUP2 SSTORE PUSH1 0x40 MLOAD DUP3 SWAP2 PUSH32 0x683D2AB2955F064231F4BAC9D1C4C37C54876BE8A38C5DC695E27EE95AF15C11 SWAP2 LOG2 POP JUMP JUMPDEST PUSH1 0x3 SLOAD PUSH1 0x1 PUSH1 0x1 PUSH1 0xA0 SHL SUB AND DUP2 JUMP JUMPDEST PUSH1 0x4 SLOAD PUSH1 0x1 PUSH1 0x1 PUSH1 0xA0 SHL SUB AND DUP2 JUMP JUMPDEST PUSH1 0x0 SLOAD DUP2 JUMP JUMPDEST PUSH1 0x3 SLOAD PUSH1 0x1 PUSH1 0x1 PUSH1 0xA0 SHL SUB AND CALLER EQ PUSH2 0x98D JUMPI PUSH1 0x40 DUP1 MLOAD PUSH3 0x461BCD PUSH1 0xE5 SHL DUP2 MSTORE PUSH1 0x20 PUSH1 0x4 DUP3 ADD MSTORE PUSH1 0x16 PUSH1 0x24 DUP3 ADD MSTORE PUSH1 0x0 DUP1 MLOAD PUSH1 0x20 PUSH2 0xA58 DUP4 CODECOPY DUP2 MLOAD SWAP2 MSTORE PUSH1 0x44 DUP3 ADD MSTORE SWAP1 MLOAD SWAP1 DUP2 SWAP1 SUB PUSH1 0x64 ADD SWAP1 REVERT JUMPDEST PUSH1 0x2 DUP1 SLOAD PUSH1 0x1 PUSH1 0x1 PUSH1 0xA0 SHL SUB NOT AND PUSH1 0x1 PUSH1 0x1 PUSH1 0xA0 SHL SUB DUP4 AND SWAP1 DUP2 OR SWAP1 SWAP2 SSTORE PUSH1 0x40 MLOAD PUSH32 0xF6B59FFC88FBB27F33470B919E00B41139EE340EB349521F0CBBC1504CE29C3E SWAP1 PUSH1 0x0 SWAP1 LOG2 POP JUMP JUMPDEST PUSH1 0x3 SLOAD PUSH1 0x1 PUSH1 0x1 PUSH1 0xA0 SHL SUB AND CALLER EQ PUSH2 0xA24 JUMPI PUSH1 0x40 DUP1 MLOAD PUSH3 0x461BCD PUSH1 0xE5 SHL DUP2 MSTORE PUSH1 0x20 PUSH1 0x4 DUP3 ADD MSTORE PUSH1 0x16 PUSH1 0x24 DUP3 ADD MSTORE PUSH1 0x0 DUP1 MLOAD PUSH1 0x20 PUSH2 0xA58 DUP4 CODECOPY DUP2 MLOAD SWAP2 MSTORE PUSH1 0x44 DUP3 ADD MSTORE SWAP1 MLOAD SWAP1 DUP2 SWAP1 SUB PUSH1 0x64 ADD SWAP1 REVERT JUMPDEST PUSH1 0x1 DUP2 SWAP1 SSTORE PUSH1 0x40 MLOAD DUP2 SWAP1 PUSH32 0xE9715983EA4B510D21736461B533375C53104A5A09EF89162344B5D74FC69B7E SWAP1 PUSH1 0x0 SWAP1 LOG2 POP JUMP INVALID 0x4D PUSH6 0x736146616374 PUSH16 0x72793A20464F5242494444454E000000 STOP STOP STOP STOP STOP STOP STOP LOG2 PUSH5 0x6970667358 0x22 SLT KECCAK256 0xEC EXTCODESIZE 0xAA 0x2C PUSH15 0x35F34F32A1A209FD330ADF0738B172 0x23 0x4D 0xE5 EXP DUP11 JUMPI 0x2E 0xCC 0xD8 0xA9 SWAP10 SDIV PUSH5 0x736F6C6343 STOP MOD 0xC STOP CALLER "
        },
        "methodIdentifiers": {
          "allAuctions(uint256)": "165c5881",
          "auctionFee()": "14525b6b",
          "feeDenominator()": "180b0d7e",
          "feeManager()": "d0fb0203",
          "feeNumerator()": "e86dea4a",
          "feeTo()": "017e7e58",
          "initalize(address,address,address,address,uint256,uint256)": "4c15d3ac",
          "launchTemplate(uint256,bytes)": "41a7ab1b",
          "numberOfAuctions()": "50d9d472",
          "setAuctionFee(uint256)": "f59e754c",
          "setFeeManager(address)": "472d35b9",
          "setFeeNumerator(uint256)": "a45db911",
          "setFeeTo(address)": "f46901ed",
          "setTemplateLauncher(address)": "6b0cd167",
          "setTemplateManager(address)": "9afff844",
          "templateId()": "7aa77f29",
          "templateLauncher()": "4d68287e",
          "templateManager()": "d4c33f2a"
        }
      }
    }
  }
}