{
  "address": "0x2d7f565327D31F9354560F6bbf9704bB87d02802",
  "abi": [
    {
      "anonymous": false,
      "inputs": [
        {
          "indexed": false,
          "internalType": "uint96",
          "name": "soldTokenOuts",
          "type": "uint96"
        },
        {
          "indexed": false,
          "internalType": "uint96",
          "name": "soldTokenIns",
          "type": "uint96"
        },
        {
          "indexed": false,
          "internalType": "bytes32",
          "name": "clearingPriceOrder",
          "type": "bytes32"
        }
      ],
      "name": "AuctionCleared",
      "type": "event"
    },
    {
      "anonymous": false,
      "inputs": [
        {
          "indexed": true,
          "internalType": "contract IERC20",
          "name": "tokenOut",
          "type": "address"
        },
        {
          "indexed": true,
          "internalType": "contract IERC20",
          "name": "tokenIn",
          "type": "address"
        },
        {
          "indexed": false,
          "internalType": "uint256",
          "name": "orderCancellationEndDate",
          "type": "uint256"
        },
        {
          "indexed": false,
          "internalType": "uint256",
          "name": "auctionEndDate",
          "type": "uint256"
        },
        {
          "indexed": false,
          "internalType": "uint256",
          "name": "auctionStartDate",
          "type": "uint256"
        },
        {
          "indexed": false,
          "internalType": "uint64",
          "name": "userId",
          "type": "uint64"
        },
        {
          "indexed": false,
          "internalType": "uint96",
          "name": "auctionedSellAmount",
          "type": "uint96"
        },
        {
          "indexed": false,
          "internalType": "uint96",
          "name": "minBuyAmount",
          "type": "uint96"
        },
        {
          "indexed": false,
          "internalType": "uint256",
          "name": "minimumBiddingAmountPerOrder",
          "type": "uint256"
        },
        {
          "indexed": false,
          "internalType": "uint256",
          "name": "minFundingThreshold",
          "type": "uint256"
        }
      ],
      "name": "AuctionInitialized",
      "type": "event"
    },
    {
      "anonymous": false,
      "inputs": [
        {
          "indexed": true,
          "internalType": "uint64",
          "name": "userId",
          "type": "uint64"
        },
        {
          "indexed": false,
          "internalType": "uint96",
          "name": "buyAmount",
          "type": "uint96"
        },
        {
          "indexed": false,
          "internalType": "uint96",
          "name": "sellAmount",
          "type": "uint96"
        }
      ],
      "name": "CancellationSellOrder",
      "type": "event"
    },
    {
      "anonymous": false,
      "inputs": [
        {
          "indexed": true,
          "internalType": "uint64",
          "name": "userId",
          "type": "uint64"
        },
        {
          "indexed": false,
          "internalType": "uint96",
          "name": "buyAmount",
          "type": "uint96"
        },
        {
          "indexed": false,
          "internalType": "uint96",
          "name": "sellAmount",
          "type": "uint96"
        }
      ],
      "name": "ClaimedFromOrder",
      "type": "event"
    },
    {
      "anonymous": false,
      "inputs": [
        {
          "indexed": true,
          "internalType": "uint64",
          "name": "userId",
          "type": "uint64"
        },
        {
          "indexed": false,
          "internalType": "uint96",
          "name": "buyAmount",
          "type": "uint96"
        },
        {
          "indexed": false,
          "internalType": "uint96",
          "name": "sellAmount",
          "type": "uint96"
        }
      ],
      "name": "NewSellOrder",
      "type": "event"
    },
    {
      "anonymous": false,
      "inputs": [
        {
          "indexed": true,
          "internalType": "uint64",
          "name": "userId",
          "type": "uint64"
        },
        {
          "indexed": true,
          "internalType": "address",
          "name": "userAddress",
          "type": "address"
        }
      ],
      "name": "NewUser",
      "type": "event"
    },
    {
      "anonymous": false,
      "inputs": [
        {
          "indexed": true,
          "internalType": "address",
          "name": "user",
          "type": "address"
        },
        {
          "indexed": false,
          "internalType": "uint64",
          "name": "userId",
          "type": "uint64"
        }
      ],
      "name": "UserRegistration",
      "type": "event"
    },
    {
      "inputs": [],
      "name": "TEMPLATE_NAME",
      "outputs": [
        {
          "internalType": "string",
          "name": "",
          "type": "string"
        }
      ],
      "stateMutability": "view",
      "type": "function"
    },
    {
      "inputs": [],
      "name": "auctionEndDate",
      "outputs": [
        {
          "internalType": "uint256",
          "name": "",
          "type": "uint256"
        }
      ],
      "stateMutability": "view",
      "type": "function"
    },
    {
      "inputs": [],
      "name": "auctionStartDate",
      "outputs": [
        {
          "internalType": "uint256",
          "name": "",
          "type": "uint256"
        }
      ],
      "stateMutability": "view",
      "type": "function"
    },
    {
      "inputs": [
        {
          "internalType": "bytes32[]",
          "name": "_sellOrders",
          "type": "bytes32[]"
        }
      ],
      "name": "cancelSellOrders",
      "outputs": [],
      "stateMutability": "nonpayable",
      "type": "function"
    },
    {
      "inputs": [
        {
          "internalType": "bytes32[]",
          "name": "orders",
          "type": "bytes32[]"
        }
      ],
      "name": "claimFromParticipantOrder",
      "outputs": [
        {
          "internalType": "uint256",
          "name": "sumTokenOutAmount",
          "type": "uint256"
        },
        {
          "internalType": "uint256",
          "name": "sumTokenInAmount",
          "type": "uint256"
        }
      ],
      "stateMutability": "nonpayable",
      "type": "function"
    },
    {
      "inputs": [],
      "name": "clearingPriceOrder",
      "outputs": [
        {
          "internalType": "bytes32",
          "name": "",
          "type": "bytes32"
        }
      ],
      "stateMutability": "view",
      "type": "function"
    },
    {
      "inputs": [
        {
          "internalType": "bytes32",
          "name": "order",
          "type": "bytes32"
        }
      ],
      "name": "containsOrder",
      "outputs": [
        {
          "internalType": "bool",
          "name": "",
          "type": "bool"
        }
      ],
      "stateMutability": "view",
      "type": "function"
    },
    {
      "inputs": [],
      "name": "getSecondsRemainingInBatch",
      "outputs": [
        {
          "internalType": "uint256",
          "name": "",
          "type": "uint256"
        }
      ],
      "stateMutability": "view",
      "type": "function"
    },
    {
      "inputs": [
        {
          "internalType": "address",
          "name": "user",
          "type": "address"
        }
      ],
      "name": "getUserId",
      "outputs": [
        {
          "internalType": "uint64",
          "name": "userId",
          "type": "uint64"
        }
      ],
      "stateMutability": "nonpayable",
      "type": "function"
    },
    {
      "inputs": [
        {
          "internalType": "bytes",
          "name": "_data",
          "type": "bytes"
        }
      ],
      "name": "init",
      "outputs": [],
      "stateMutability": "nonpayable",
      "type": "function"
    },
    {
      "inputs": [],
      "name": "initialAuctionOrder",
      "outputs": [
        {
          "internalType": "bytes32",
          "name": "",
          "type": "bytes32"
        }
      ],
      "stateMutability": "view",
      "type": "function"
    },
    {
      "inputs": [],
      "name": "initialized",
      "outputs": [
        {
          "internalType": "bool",
          "name": "",
          "type": "bool"
        }
      ],
      "stateMutability": "view",
      "type": "function"
    },
    {
      "inputs": [],
      "name": "interimOrder",
      "outputs": [
        {
          "internalType": "bytes32",
          "name": "",
          "type": "bytes32"
        }
      ],
      "stateMutability": "view",
      "type": "function"
    },
    {
      "inputs": [],
      "name": "interimSumBidAmount",
      "outputs": [
        {
          "internalType": "uint256",
          "name": "",
          "type": "uint256"
        }
      ],
      "stateMutability": "view",
      "type": "function"
    },
    {
      "inputs": [],
      "name": "isAtomicClosureAllowed",
      "outputs": [
        {
          "internalType": "bool",
          "name": "",
          "type": "bool"
        }
      ],
      "stateMutability": "view",
      "type": "function"
    },
    {
      "inputs": [],
      "name": "minFundingThreshold",
      "outputs": [
        {
          "internalType": "uint256",
          "name": "",
          "type": "uint256"
        }
      ],
      "stateMutability": "view",
      "type": "function"
    },
    {
      "inputs": [],
      "name": "minFundingThresholdNotReached",
      "outputs": [
        {
          "internalType": "bool",
          "name": "",
          "type": "bool"
        }
      ],
      "stateMutability": "view",
      "type": "function"
    },
    {
      "inputs": [],
      "name": "minimumBiddingAmountPerOrder",
      "outputs": [
        {
          "internalType": "uint256",
          "name": "",
          "type": "uint256"
        }
      ],
      "stateMutability": "view",
      "type": "function"
    },
    {
      "inputs": [],
      "name": "numUsers",
      "outputs": [
        {
          "internalType": "uint64",
          "name": "",
          "type": "uint64"
        }
      ],
      "stateMutability": "view",
      "type": "function"
    },
    {
      "inputs": [],
      "name": "orderCancellationEndDate",
      "outputs": [
        {
          "internalType": "uint256",
          "name": "",
          "type": "uint256"
        }
      ],
      "stateMutability": "view",
      "type": "function"
    },
    {
      "inputs": [],
      "name": "owner",
      "outputs": [
        {
          "internalType": "address",
          "name": "",
          "type": "address"
        }
      ],
      "stateMutability": "view",
      "type": "function"
    },
    {
      "inputs": [
        {
          "internalType": "uint96[]",
          "name": "_minBuyAmounts",
          "type": "uint96[]"
        },
        {
          "internalType": "uint96[]",
          "name": "_sellAmounts",
          "type": "uint96[]"
        },
        {
          "internalType": "bytes32[]",
          "name": "_prevSellOrders",
          "type": "bytes32[]"
        }
      ],
      "name": "placeSellOrders",
      "outputs": [
        {
          "internalType": "uint64",
          "name": "userId",
          "type": "uint64"
        }
      ],
      "stateMutability": "nonpayable",
      "type": "function"
    },
    {
      "inputs": [
        {
          "internalType": "uint96[]",
          "name": "_minBuyAmounts",
          "type": "uint96[]"
        },
        {
          "internalType": "uint96[]",
          "name": "_sellAmounts",
          "type": "uint96[]"
        },
        {
          "internalType": "bytes32[]",
          "name": "_prevSellOrders",
          "type": "bytes32[]"
        },
        {
          "internalType": "address",
          "name": "orderSubmitter",
          "type": "address"
        }
      ],
      "name": "placeSellOrdersOnBehalf",
      "outputs": [
        {
          "internalType": "uint64",
          "name": "userId",
          "type": "uint64"
        }
      ],
      "stateMutability": "nonpayable",
      "type": "function"
    },
    {
      "inputs": [
        {
          "internalType": "uint256",
          "name": "iterationSteps",
          "type": "uint256"
        }
      ],
      "name": "precalculateSellAmountSum",
      "outputs": [],
      "stateMutability": "nonpayable",
      "type": "function"
    },
    {
      "inputs": [
        {
          "internalType": "address",
          "name": "user",
          "type": "address"
        }
      ],
      "name": "registerUser",
      "outputs": [
        {
          "internalType": "uint64",
          "name": "userId",
          "type": "uint64"
        }
      ],
      "stateMutability": "nonpayable",
      "type": "function"
    },
    {
      "inputs": [],
      "name": "settleAuction",
      "outputs": [
        {
          "internalType": "bytes32",
          "name": "clearingOrder",
          "type": "bytes32"
        }
      ],
      "stateMutability": "nonpayable",
      "type": "function"
    },
    {
      "inputs": [
        {
          "internalType": "uint96[]",
          "name": "_minBuyAmount",
          "type": "uint96[]"
        },
        {
          "internalType": "uint96[]",
          "name": "_sellAmount",
          "type": "uint96[]"
        },
        {
          "internalType": "bytes32[]",
          "name": "_prevSellOrder",
          "type": "bytes32[]"
        }
      ],
      "name": "settleAuctionAtomically",
      "outputs": [],
      "stateMutability": "nonpayable",
      "type": "function"
    },
    {
      "inputs": [],
      "name": "tokenIn",
      "outputs": [
        {
          "internalType": "contract IERC20",
          "name": "",
          "type": "address"
        }
      ],
      "stateMutability": "view",
      "type": "function"
    },
    {
      "inputs": [],
      "name": "tokenOut",
      "outputs": [
        {
          "internalType": "contract IERC20",
          "name": "",
          "type": "address"
        }
      ],
      "stateMutability": "view",
      "type": "function"
    },
    {
      "inputs": [],
      "name": "volumeClearingPriceOrder",
      "outputs": [
        {
          "internalType": "uint96",
          "name": "",
          "type": "uint96"
        }
      ],
      "stateMutability": "view",
      "type": "function"
    }
  ],
  "transactionHash": "0x95c0d18512d9c514a49f7b2e9653f15bb7ab303b4a098700c36f5fd04c6476c0",
  "args": [],
  "solcInputHash": "bf3b8c16aa66bb211fd88566519f3a44",
  "bytecode": "0x608060405234801561001057600080fd5b506131c6806100206000396000f3fe608060405234801561001057600080fd5b50600436106101da5760003560e01c8063724acaac11610104578063ac61a285116100a2578063d63bc2a511610071578063d63bc2a514610738578063de5f252e146108e8578063e8b10c5614610a8d578063f1e2fc4f14610a95576101da565b8063ac61a2851461067f578063b90545ee14610720578063d0202d3b14610728578063d4dda12f14610730576101da565b80638eb54efa116100de5780638eb54efa1461064a57806392f987be14610652578063a4d0a17e1461065a578063a90c8c8d14610662576101da565b8063724acaac14610495578063757a1d281461063a5780638da5cb5b14610642576101da565b806338474ff51161017c5780634ddf47d41161014b5780634ddf47d41461033f57806352b2cf4f146103af5780635f2aee41146104695780636daf390b14610471576101da565b806338474ff51461030a5780633d827e0514610312578063422e6fa01461031a578063459b72d514610337576101da565b80632199d5cd116101b85780632199d5cd14610239578063257d33ff1461025f5780632898f7d1146102675780632b956ff7146102e4576101da565b8063158ef93e146101df57806317569c1d146101fb57806319a50f4914610215575b600080fd5b6101e7610ab9565b604080519115158252519081900360200190f35b610203610ac2565b60408051918252519081900360200190f35b61021d610af5565b604080516001600160401b039092168252519081900360200190f35b61021d6004803603602081101561024f57600080fd5b50356001600160a01b0316610b04565b610203610bf9565b61026f610bff565b6040805160208082528351818301528351919283929083019185019080838360005b838110156102a9578181015183820152602001610291565b50505050905090810190601f1680156102d65780820380516001836020036101000a031916815260200191505b509250505060405180910390f35b61021d600480360360208110156102fa57600080fd5b50356001600160a01b0316610c23565b6101e7610c98565b610203610ca8565b6101e76004803603602081101561033057600080fd5b5035610cae565b6101e7610cc1565b6103ad6004803603602081101561035557600080fd5b810190602081018135600160201b81111561036f57600080fd5b82018360208201111561038157600080fd5b803590602001918460018302840111600160201b831117156103a257600080fd5b509092509050610cd1565b005b610450600480360360208110156103c557600080fd5b810190602081018135600160201b8111156103df57600080fd5b8201836020820111156103f157600080fd5b803590602001918460208302840111600160201b8311171561041257600080fd5b919080806020026020016040519081016040528093929190818152602001838360200280828437600092019190915250929550610dcc945050505050565b6040805192835260208301919091528051918290030190f35b6102036110ec565b6104796110f2565b604080516001600160a01b039092168252519081900360200190f35b61021d600480360360608110156104ab57600080fd5b810190602081018135600160201b8111156104c557600080fd5b8201836020820111156104d757600080fd5b803590602001918460208302840111600160201b831117156104f857600080fd5b9190808060200260200160405190810160405280939291908181526020018383602002808284376000920191909152509295949360208101935035915050600160201b81111561054757600080fd5b82018360208201111561055957600080fd5b803590602001918460208302840111600160201b8311171561057a57600080fd5b9190808060200260200160405190810160405280939291908181526020018383602002808284376000920191909152509295949360208101935035915050600160201b8111156105c957600080fd5b8201836020820111156105db57600080fd5b803590602001918460208302840111600160201b831117156105fc57600080fd5b919080806020026020016040519081016040528093929190818152602001838360200280828437600092019190915250929550611101945050505050565b610203611167565b61047961116d565b61020361117c565b610203611182565b610203611188565b6103ad6004803603602081101561067857600080fd5b503561144a565b6103ad6004803603602081101561069557600080fd5b810190602081018135600160201b8111156106af57600080fd5b8201836020820111156106c157600080fd5b803590602001918460208302840111600160201b831117156106e257600080fd5b91908080602002602001604051908101604052809392919081815260200183836020028082843760009201919091525092955061160d945050505050565b6102036117a0565b6104796117a6565b6102036117b5565b61021d6004803603608081101561074e57600080fd5b810190602081018135600160201b81111561076857600080fd5b82018360208201111561077a57600080fd5b803590602001918460208302840111600160201b8311171561079b57600080fd5b9190808060200260200160405190810160405280939291908181526020018383602002808284376000920191909152509295949360208101935035915050600160201b8111156107ea57600080fd5b8201836020820111156107fc57600080fd5b803590602001918460208302840111600160201b8311171561081d57600080fd5b9190808060200260200160405190810160405280939291908181526020018383602002808284376000920191909152509295949360208101935035915050600160201b81111561086c57600080fd5b82018360208201111561087e57600080fd5b803590602001918460208302840111600160201b8311171561089f57600080fd5b919080806020026020016040519081016040528093929190818152602001838360200280828437600092019190915250929550505090356001600160a01b031691506117bb9050565b6103ad600480360360608110156108fe57600080fd5b810190602081018135600160201b81111561091857600080fd5b82018360208201111561092a57600080fd5b803590602001918460208302840111600160201b8311171561094b57600080fd5b9190808060200260200160405190810160405280939291908181526020018383602002808284376000920191909152509295949360208101935035915050600160201b81111561099a57600080fd5b8201836020820111156109ac57600080fd5b803590602001918460208302840111600160201b831117156109cd57600080fd5b9190808060200260200160405190810160405280939291908181526020018383602002808284376000920191909152509295949360208101935035915050600160201b811115610a1c57600080fd5b820183602082011115610a2e57600080fd5b803590602001918460208302840111600160201b83111715610a4f57600080fd5b919080806020026020016040519081016040528093929190818152602001838360200280828437600092019190915250929550611820945050505050565b6102036119b2565b610a9d6119b8565b604080516001600160601b039092168252519081900360200190f35b600f5460ff1681565b6000426005541080610ad5575042600454115b15610ae257506000610af2565b600554610aef90426119c7565b90505b90565b6012546001600160401b031681565b601254600090610b2790610b22906001600160401b03166001611a24565b611a7e565b6012805467ffffffffffffffff19166001600160401b039283161790819055610b54916010911684611acb565b610ba5576040805162461bcd60e51b815260206004820152601760248201527f5573657220616c72656164792072656769737465726564000000000000000000604482015290519081900360640190fd5b50601254604080516001600160401b03909216808352905190916001600160a01b038416917f6838f67cb358c332087b73dbe769a6c869a5f87225236c16dda5d0013a77074c9181900360200190a2919050565b60095481565b604051806040016040528060088152602001674661697253616c6560c01b81525081565b6000610c30601083611c43565b15610c4757610c40601083611c6d565b9050610c93565b610c5082610b04565b9050816001600160a01b0316816001600160401b03167f969d438b19b6b5fb3c0d3c6f16867e519fcec4233799d6be29d1c00f2045ba2660405160405180910390a35b919050565b600b54600160601b900460ff1681565b60055481565b6000610cbb600d83611cf7565b92915050565b600b54600160681b900460ff1681565b600f5460ff1615610d1f576040805162461bcd60e51b8152602060048201526013602482015272185b1c9958591e481a5b9a5d1a585b1a5e9959606a1b604482015290519081900360640190fd5b60008060008060008060008060008060008c8c610160811015610d4157600080fd5b506001600160a01b03813581169c50602082013581169b5060408201359a5060608201359950608082013598506001600160601b0360a08301358116985060c083013516965060e0820135955061010082013594506101208201351515935061014090910135169050610dbd8b8b8b8b8b8b8b8b8b8b8b611d20565b50505050505050505050505050565b600a546000908190610e25576040805162461bcd60e51b815260206004820152601860248201527f41756374696f6e206e6f74207965742066696e69736865640000000000000000604482015290519081900360640190fd5b60005b8351811015610eb157610e58848281518110610e4057fe5b6020026020010151600d6120e590919063ffffffff16565b610ea9576040805162461bcd60e51b815260206004820152601c60248201527f6f72646572206973206e6f206c6f6e67657220636c61696d61626c6500000000604482015290519081900360640190fd5b600101610e28565b50600080610ec0600a54612111565b92509250506000610ee486600081518110610ed757fe5b6020026020010151612111565b5050905060005b86518110156110d8576000806000610f088a8581518110610ed757fe5b925092509250846001600160401b0316836001600160401b031614610f5e5760405162461bcd60e51b815260040180806020018281038252602381526020018061307b6023913960400191505060405180910390fd5b600b54600160601b900460ff1615610f8a57610f83886001600160601b038316611a24565b9750611080565b600a548a8581518110610f9957fe5b6020026020010151141561100157600b54610fda90610fd3906001600160601b03808a1691610fcd91908116908c16612120565b90612179565b8a90611a24565b600b54909950610f8390610ffa906001600160601b0384811691166119c7565b8990611a24565b611029600a548b868151811061101357fe5b60200260200101516121e090919063ffffffff16565b1561106a57611063610fd3876001600160601b0316610fcd8a6001600160601b0316856001600160601b031661212090919063ffffffff16565b9850611080565b61107d886001600160601b038316611a24565b97505b604080516001600160601b0380851682528316602082015281516001600160401b038816927ff75ff0412dab9132bc6907f911ff4b016eef8911771400efa692b1868162700f928290030190a2505050600101610eeb565b506110e4858583612367565b505050915091565b600a5481565b6002546001600160a01b031681565b60006005544210801561111657506004544210155b6111515760405162461bcd60e51b815260040180806020018281038252602281526020018061316f6022913960400191505060405180910390fd5b61115d848484336123b6565b90505b9392505050565b60075481565b6000546001600160a01b031681565b600c5481565b60065481565b600554600090801580159061119d5750804210155b80156111a95750600a54155b6111e45760405162461bcd60e51b815260040180806020018281038252602881526020018061309e6028913960400191505060405180910390fd5b5060008060006111f5600654612111565b600854600954939650919450925090600080845b6000611216600d86612694565b90506002600160601b031981141561122e575061127d565b80945061123a85612111565b6001600160601b03918216965016935061125690508684611a24565b955061126d90506001600160601b03871683612120565b6112778685612120565b10611209575b6000851180156112a8575061129b6001600160601b03871683612120565b6112a58685612120565b10155b156113535760006112d06112c985610fcd6001600160601b038b1687612120565b87906119c7565b905080831061132a5760006112e584836119c7565b90506112f081612728565b600b80546bffffffffffffffffffffffff19166001600160601b039290921691909117905561131f87836119c7565b9650859a505061134d565b61133486846119c7565b955061134a60008861134589612728565b61276c565b99505b506113bc565b866001600160601b031685111561137a5761137360008761134588612728565b98506113bc565b6113866000878961276c565b98506113b96113b4886001600160601b0316610fcd896001600160601b03168961212090919063ffffffff16565b612728565b90505b600a899055600c548510156113df57600b805460ff60601b1916600160601b1790555b604080516001600160601b038084168252871660208201528082018b905290517f7fbd6633ec7ba81b40067a45fe5b8351c03e9e3765569f20247044ec4247b5319181900360600190a150506000600681905560098190556008819055600755509495945050505050565b600554801580159061145c5750804210155b80156114685750600a54155b6114a35760405162461bcd60e51b815260040180806020018281038252602881526020018061309e6028913960400191505060405180910390fd5b5060006114b1600654612111565b6008546009549194509250905060005b84811015611505576114d4600d83612694565b915060006114e183612111565b92506114fa91508590506001600160601b038316611a24565b9350506001016114c1565b506002600160601b0319811415611563576040805162461bcd60e51b815260206004820152601960248201527f7265616368656420656e64206f66206f72646572206c69737400000000000000604482015290519081900360640190fd5b60008061156f83612111565b9250925050611599816001600160601b0316866001600160601b031661212090919063ffffffff16565b6115ac856001600160601b038516612120565b106115fe576040805162461bcd60e51b815260206004820152601960248201527f746f6f206d616e79206f72646572732073756d6d656420757000000000000000604482015290519081900360640190fd5b50506008919091556009555050565b6003544210801561162057506004544210155b61165b5760405162461bcd60e51b8152600401808060200182810382526033815260200180612e666033913960400191505060405180910390fd5b600061166633610c23565b90506000805b835181101561178357600061169e85838151811061168657fe5b6020026020010151600d6127a490919063ffffffff16565b9050801561177a5760008060006116ba888681518110610ed757fe5b925092509250866001600160401b0316836001600160401b0316146117105760405162461bcd60e51b8152600401808060200182810382526023815260200180612e436023913960400191505060405180910390fd5b611723866001600160601b038316611a24565b604080516001600160601b0380861682528416602082015281519298506001600160401b038a16927f5dedfbcaa0c7efd84558aac37ed1d1023367d9aa24a3dc41d011d013d3218ab7929181900390910190a25050505b5060010161166c565b5060025461179b906001600160a01b031633836127f9565b505050565b60035481565b6001546001600160a01b031681565b60085481565b6000600554421080156117d057506004544210155b61180b5760405162461bcd60e51b815260040180806020018281038252602281526020018061316f6022913960400191505060405180910390fd5b611817858585856123b6565b95945050505050565b60055480158015906118325750804210155b801561183e5750600a54155b6118795760405162461bcd60e51b815260040180806020018281038252602881526020018061309e6028913960400191505060405180910390fd5b50600b54600160681b900460ff166118c25760405162461bcd60e51b8152600401808060200182810382526028815260200180612dea6028913960400191505060405180910390fd5b825160011480156118d4575081516001145b61190f5760405162461bcd60e51b8152600401808060200182810382526027815260200180612fad6027913960400191505060405180910390fd5b600061191a33610c23565b905061195b611952828660008151811061193057fe5b60200260200101518660008151811061194557fe5b602002602001015161276c565b600954906121e0565b6119965760405162461bcd60e51b8152600401808060200182810382526031815260200180612e126031913960400191505060405180910390fd5b6119a2848484336123b6565b506119ab611188565b5050505050565b60045481565b600b546001600160601b031681565b600082821115611a1e576040805162461bcd60e51b815260206004820152601e60248201527f536166654d6174683a207375627472616374696f6e206f766572666c6f770000604482015290519081900360640190fd5b50900390565b600082820183811015611160576040805162461bcd60e51b815260206004820152601b60248201527f536166654d6174683a206164646974696f6e206f766572666c6f770000000000604482015290519081900360640190fd5b6000680100000000000000008210611ac75760405162461bcd60e51b81526004018080602001828103825260268152602001806130556026913960400191505060405180910390fd5b5090565b60006001600160a01b038216611b28576040805162461bcd60e51b815260206004820152601a60248201527f43616e6e6f7420696e73657274207a65726f2061646472657373000000000000604482015290519081900360640190fd5b6001600160401b038381161415611b86576040805162461bcd60e51b815260206004820152601860248201527f43616e6e6f7420696e73657274206d61782075696e7436340000000000000000604482015290519081900360640190fd5b6001600160a01b03821660009081526001850160205260409020546001600160401b0316151580611bda57506001600160401b0360018401166000908152602085905260409020546001600160a01b031615155b15611be757506000611160565b5060019182016001600160401b031660008181526020858152604080832080546001600160a01b0319166001600160a01b039690961695861790559382529484019094529220805467ffffffffffffffff191690921790915590565b6001600160a01b0316600090815260019190910160205260409020546001600160401b0316151590565b6000611c798383611c43565b611cca576040805162461bcd60e51b815260206004820152601b60248201527f4d7573742068617665204164647265737320746f206765742049440000000000604482015290519081900360640190fd5b506001600160a01b0316600090815260019190910160205260409020546001600160401b03166000190190565b60006001821415611d0a57506000610cbb565b5060009081526020919091526040902054151590565b600f805460ff19166001179055611d4b6001600160a01b038b1633306001600160601b038a1661284b565b6000866001600160601b031611611da9576040805162461bcd60e51b815260206004820152601a60248201527f63616e6e6f742061756374696f6e207a65726f20746f6b656e73000000000000604482015290519081900360640190fd5b6000856001600160601b031611611df15760405162461bcd60e51b8152600401808060200182810382526023815260200180612ed36023913960400191505060405180910390fd5b60008411611e305760405162461bcd60e51b8152600401808060200182810382526036815260200180612ffe6036913960400191505060405180910390fd5b86891115611e6f5760405162461bcd60e51b815260040180806020018281038252602981526020018061311c6029913960400191505060405180910390fd5b87891015611eae5760405162461bcd60e51b815260040180806020018281038252603a815260200180612e99603a913960400191505060405180910390fd5b428711611eec5760405162461bcd60e51b8152600401808060200182810382526026815260200180612f636026913960400191505060405180910390fd5b868810611f2a5760405162461bcd60e51b8152600401808060200182810382526026815260200180612ef66026913960400191505060405180910390fd5b42881015611f695760405162461bcd60e51b8152600401808060200182810382526024815260200180612f896024913960400191505060405180910390fd5b611f73600d6128a5565b6000611f7e33610c23565b9050816000806101000a8154816001600160a01b0302191690836001600160a01b031602179055508a600160006101000a8154816001600160a01b0302191690836001600160a01b031602179055508b600260006101000a8154816001600160a01b0302191690836001600160a01b0316021790555089600381905550886004819055508760058190555061201481878961276c565b6006556007859055600060088190556001600955600a55600b80546dffffffffffffffffffffffffffff1916600160681b85151502179055600c849055604080518b8152602081018b90528082018a90526001600160401b03831660608201526001600160601b038981166080830152881660a082015260c0810187905260e0810186905290516001600160a01b038e811692908e16917f19a082506843e5077882525184c4abab280af9ebcdee731d530d659462b39b2b91610100908290030190a3505050505050505050505050565b6000806120f284846127a4565b9050801561116057600092835260019390930160205250604081205590565b60c081901c91606082901c9190565b60008261212f57506000610cbb565b8282028284828161213c57fe5b04146111605760405162461bcd60e51b81526004018080602001828103825260218152602001806130346021913960400191505060405180910390fd5b60008082116121cf576040805162461bcd60e51b815260206004820152601a60248201527f536166654d6174683a206469766973696f6e206279207a65726f000000000000604482015290519081900360640190fd5b8183816121d857fe5b049392505050565b6000806000806121ef86612111565b925092509250600080600061220388612111565b919450925090506122206001600160601b03808416908616612120565b6122366001600160601b03878116908416612120565b101561224b5760019650505050505050610cbb565b6122616001600160601b03838116908616612120565b6122776001600160601b03878116908416612120565b111561228c5760009650505050505050610cbb565b816001600160601b0316856001600160601b031610156122b55760019650505050505050610cbb565b816001600160601b0316856001600160601b031611156122de5760009650505050505050610cbb565b826001600160401b0316866001600160401b0316141561232f5760405162461bcd60e51b815260040180806020018281038252602d8152602001806130c6602d913960400191505060405180910390fd5b826001600160401b0316866001600160401b031610156123585760019650505050505050610cbb565b50600098975050505050505050565b60006123746010836128d1565b9050831561239357600154612393906001600160a01b031682866127f9565b82156123b0576002546123b0906001600160a01b031682856127f9565b50505050565b60008060006123c6600654612111565b925092505060005b875181101561248b5761240f8782815181106123e657fe5b60200260200101516001600160601b0316836001600160601b031661212090919063ffffffff16565b612447846001600160601b03168a848151811061242857fe5b60200260200101516001600160601b031661212090919063ffffffff16565b106124835760405162461bcd60e51b81526004018080602001828103825260298152602001806130f36029913960400191505060405180910390fd5b6001016123ce565b505050600061249983610c23565b915060005b86518110156126725760008782815181106124b557fe5b60200260200101516001600160601b0316116125025760405162461bcd60e51b8152600401808060200182810382526025815260200180612f1c6025913960400191505060405180910390fd5b60075486828151811061251157fe5b60200260200101516001600160601b031611612566576040805162461bcd60e51b815260206004820152600f60248201526e1bdc99195c881d1bdbc81cdb585b1b608a1b604482015290519081900360640190fd5b6125b261258d8489848151811061257957fe5b602002602001015189858151811061194557fe5b86838151811061259957fe5b6020026020010151600d6129579092919063ffffffff16565b1561266a576125e68682815181106125c657fe5b60200260200101516001600160601b031683611a2490919063ffffffff16565b9150826001600160401b03167fd281bd4d955b901e3f3d9e94325fd93f97f2a20f3acfd0e0c52eec553208f49588838151811061261f57fe5b602002602001015188848151811061263357fe5b602002602001015160405180836001600160601b03168152602001826001600160601b031681526020019250505060405180910390a25b60010161249e565b5060025461268b906001600160a01b031633308461284b565b50949350505050565b60006002600160601b03198214156126dd5760405162461bcd60e51b8152600401808060200182810382526022815260200180612f416022913960400191505060405180910390fd5b600082815260208490526040902054806111605760405162461bcd60e51b815260040180806020018281038252602a815260200180612fd4602a913960400191505060405180910390fd5b6000600160601b8210611ac75760405162461bcd60e51b8152600401808060200182810382526026815260200180612dc46026913960400191505060405180910390fd5b6001600160c01b031960c084901b166bffffffffffffffffffffffff60601b606084901b16016001600160601b038216019392505050565b60006127b08383611cf7565b6127bc57506000610cbb565b5060008181526001838101602081815260408085205487835281862080548288528388208190558752938352908520559383529390925290915590565b604080516001600160a01b038416602482015260448082018490528251808303909101815260649091019091526020810180516001600160e01b031663a9059cbb60e01b17905261179b908490612b18565b604080516001600160a01b0380861660248301528416604482015260648082018490528251808303909101815260849091019091526020810180516001600160e01b03166323b872dd60e01b1790526123b0908590612b18565b60016000818152602083815260408083206002600160601b031990819055835293830190529190912055565b60006128dd8383612bc9565b61292e576040805162461bcd60e51b815260206004820152601b60248201527f4d757374206861766520494420746f2067657420416464726573730000000000604482015290519081900360640190fd5b506001016001600160401b0316600090815260209190915260409020546001600160a01b031690565b60008061296384612111565b925050506001600160601b0381166129c2576040805162461bcd60e51b815260206004820152601f60248201527f496e73657274696e67207a65726f206973206e6f7420737570706f7274656400604482015290519081900360640190fd5b600184148015906129db57506002600160601b03198414155b612a2c576040805162461bcd60e51b815260206004820152601e60248201527f496e73657274696e6720656c656d656e74206973206e6f742076616c69640000604482015290519081900360640190fd5b612a368585611cf7565b15612a45576000915050611160565b60018314801590612a6457506000838152600186016020526040902054155b15612a73576000915050611160565b612a7d83856121e0565b612a8b576000915050611160565b5b600083815260208690526040902054612ab75760009283526001850160205260409092205491612a8c565b6000835b600081815260208890526040902054909150612ad781876121e0565b612abb576000828152602088815260408083208990558383526001808b0183528184208a905589845281842095909555908990529020559150509392505050565b6060612b6d826040518060400160405280602081526020017f5361666545524332303a206c6f772d6c6576656c2063616c6c206661696c6564815250856001600160a01b0316612bf39092919063ffffffff16565b80519091501561179b57808060200190516020811015612b8c57600080fd5b505161179b5760405162461bcd60e51b815260040180806020018281038252602a815260200180613145602a913960400191505060405180910390fd5b6001016001600160401b0316600090815260209190915260409020546001600160a01b0316151590565b606061115d848460008585612c0785612d19565b612c58576040805162461bcd60e51b815260206004820152601d60248201527f416464726573733a2063616c6c20746f206e6f6e2d636f6e7472616374000000604482015290519081900360640190fd5b60006060866001600160a01b031685876040518082805190602001908083835b60208310612c975780518252601f199092019160209182019101612c78565b6001836020036101000a03801982511681845116808217855250505050505090500191505060006040518083038185875af1925050503d8060008114612cf9576040519150601f19603f3d011682016040523d82523d6000602084013e612cfe565b606091505b5091509150612d0e828286612d1f565b979650505050505050565b3b151590565b60608315612d2e575081611160565b825115612d3e5782518084602001fd5b8160405162461bcd60e51b81526004018080602001828103825283818151815260200191508051906020019080838360005b83811015612d88578181015183820152602001612d70565b50505050905090810190601f168015612db55780820380516001836020036101000a031916815260200191505b509250505060405180910390fdfe53616665436173743a2076616c756520646f65736e27742066697420696e20393620626974736e6f7420616c6c6f77656420746f20736574746c652061756374696f6e2061746f6d6963616c6c7970726563616c63756c61746553656c6c416d6f756e7453756d20697320616c726561647920746f6f20616476616e6365644f6e6c792074686520757365722063616e2063616e63656c20686973206f72646572736e6f206c6f6e67657220696e206f7264657220706c6163656d656e7420616e642063616e63656c6c6174696f6e20706861736543616e63656c6c6174696f6e2064617465206d75737420626520736574206166746572207468652061756374696f6e2073746172742064617465746f6b656e732063616e6e6f742062652061756374696f6e656420666f72206672656553746172742064617465206d75737420626520736574206265666f726520656e6420446174655f6d696e427579416d6f756e7473206d7573742062652067726561746572207468616e2030547279696e6720746f20676574206e657874206f66206c61737420656c656d656e7461756374696f6e20656e642064617465206d75737420626520696e207468652066757475726573746172742064617465206d7573742062652073657420696e20746865206675747572654f6e6c79206f6e65206f726465722063616e20626520706c616365642061746f6d6963616c6c79547279696e6720746f20676574206e657874206f66206e6f6e2d6578697374656e7420656c656d656e746d696e696d756d42696464696e67416d6f756e745065724f72646572206973206e6f7420616c6c6f77656420746f206265207a65726f536166654d6174683a206d756c7469706c69636174696f6e206f766572666c6f7753616665436173743a2076616c756520646f65736e27742066697420696e20363420626974736f6e6c7920616c6c6f77656420746f20636c61696d20666f722073616d65207573657241756374696f6e206e6f7420696e20736f6c7574696f6e207375626d697373696f6e20706861736575736572206973206e6f7420616c6c6f77656420746f20706c6163652073616d65206f726465722074776963656c696d6974207072696365206e6f7420626574746572207468616e206d696d696d616c206f6666657274696d6520706572696f647320617265206e6f7420636f6e6669677572656420636f72726563746c795361666545524332303a204552433230206f7065726174696f6e20646964206e6f7420737563636565646e6f206c6f6e67657220696e206f7264657220706c6163656d656e74207068617365a2646970667358221220cc9c6cb9af28df1492b85ebc29c53a177cb180cac421ead336301871bb5f576364736f6c634300060c0033",
  "devdoc": {
    "kind": "dev",
    "methods": {},
    "version": 1
  },
  "userdoc": {
    "kind": "user",
    "methods": {},
    "version": 1
  },
  "storageLayout": {
    "storage": [
      {
        "astId": 2426,
        "contract": "contracts/sales/FairSale.sol:FairSale",
        "label": "owner",
        "offset": 0,
        "slot": "0",
        "type": "t_address"
      },
      {
        "astId": 2428,
        "contract": "contracts/sales/FairSale.sol:FairSale",
        "label": "tokenOut",
        "offset": 0,
        "slot": "1",
        "type": "t_contract(IERC20)1305"
      },
      {
        "astId": 2430,
        "contract": "contracts/sales/FairSale.sol:FairSale",
        "label": "tokenIn",
        "offset": 0,
        "slot": "2",
        "type": "t_contract(IERC20)1305"
      },
      {
        "astId": 2432,
        "contract": "contracts/sales/FairSale.sol:FairSale",
        "label": "orderCancellationEndDate",
        "offset": 0,
        "slot": "3",
        "type": "t_uint256"
      },
      {
        "astId": 2434,
        "contract": "contracts/sales/FairSale.sol:FairSale",
        "label": "auctionStartDate",
        "offset": 0,
        "slot": "4",
        "type": "t_uint256"
      },
      {
        "astId": 2436,
        "contract": "contracts/sales/FairSale.sol:FairSale",
        "label": "auctionEndDate",
        "offset": 0,
        "slot": "5",
        "type": "t_uint256"
      },
      {
        "astId": 2438,
        "contract": "contracts/sales/FairSale.sol:FairSale",
        "label": "initialAuctionOrder",
        "offset": 0,
        "slot": "6",
        "type": "t_bytes32"
      },
      {
        "astId": 2440,
        "contract": "contracts/sales/FairSale.sol:FairSale",
        "label": "minimumBiddingAmountPerOrder",
        "offset": 0,
        "slot": "7",
        "type": "t_uint256"
      },
      {
        "astId": 2442,
        "contract": "contracts/sales/FairSale.sol:FairSale",
        "label": "interimSumBidAmount",
        "offset": 0,
        "slot": "8",
        "type": "t_uint256"
      },
      {
        "astId": 2444,
        "contract": "contracts/sales/FairSale.sol:FairSale",
        "label": "interimOrder",
        "offset": 0,
        "slot": "9",
        "type": "t_bytes32"
      },
      {
        "astId": 2446,
        "contract": "contracts/sales/FairSale.sol:FairSale",
        "label": "clearingPriceOrder",
        "offset": 0,
        "slot": "10",
        "type": "t_bytes32"
      },
      {
        "astId": 2448,
        "contract": "contracts/sales/FairSale.sol:FairSale",
        "label": "volumeClearingPriceOrder",
        "offset": 0,
        "slot": "11",
        "type": "t_uint96"
      },
      {
        "astId": 2450,
        "contract": "contracts/sales/FairSale.sol:FairSale",
        "label": "minFundingThresholdNotReached",
        "offset": 12,
        "slot": "11",
        "type": "t_bool"
      },
      {
        "astId": 2452,
        "contract": "contracts/sales/FairSale.sol:FairSale",
        "label": "isAtomicClosureAllowed",
        "offset": 13,
        "slot": "11",
        "type": "t_bool"
      },
      {
        "astId": 2454,
        "contract": "contracts/sales/FairSale.sol:FairSale",
        "label": "minFundingThreshold",
        "offset": 0,
        "slot": "12",
        "type": "t_uint256"
      },
      {
        "astId": 2456,
        "contract": "contracts/sales/FairSale.sol:FairSale",
        "label": "sellOrders",
        "offset": 0,
        "slot": "13",
        "type": "t_struct(Data)5441_storage"
      },
      {
        "astId": 2458,
        "contract": "contracts/sales/FairSale.sol:FairSale",
        "label": "initialized",
        "offset": 0,
        "slot": "15",
        "type": "t_bool"
      },
      {
        "astId": 2460,
        "contract": "contracts/sales/FairSale.sol:FairSale",
        "label": "registeredUsers",
        "offset": 0,
        "slot": "16",
        "type": "t_struct(Data)5250_storage"
      },
      {
        "astId": 2462,
        "contract": "contracts/sales/FairSale.sol:FairSale",
        "label": "numUsers",
        "offset": 0,
        "slot": "18",
        "type": "t_uint64"
      }
    ],
    "types": {
      "t_address": {
        "encoding": "inplace",
        "label": "address",
        "numberOfBytes": "20"
      },
      "t_bool": {
        "encoding": "inplace",
        "label": "bool",
        "numberOfBytes": "1"
      },
      "t_bytes32": {
        "encoding": "inplace",
        "label": "bytes32",
        "numberOfBytes": "32"
      },
      "t_contract(IERC20)1305": {
        "encoding": "inplace",
        "label": "contract IERC20",
        "numberOfBytes": "20"
      },
      "t_mapping(t_address,t_uint64)": {
        "encoding": "mapping",
        "key": "t_address",
        "label": "mapping(address => uint64)",
        "numberOfBytes": "32",
        "value": "t_uint64"
      },
      "t_mapping(t_bytes32,t_bytes32)": {
        "encoding": "mapping",
        "key": "t_bytes32",
        "label": "mapping(bytes32 => bytes32)",
        "numberOfBytes": "32",
        "value": "t_bytes32"
      },
      "t_mapping(t_uint64,t_address)": {
        "encoding": "mapping",
        "key": "t_uint64",
        "label": "mapping(uint64 => address)",
        "numberOfBytes": "32",
        "value": "t_address"
      },
      "t_struct(Data)5250_storage": {
        "encoding": "inplace",
        "label": "struct IdToAddressBiMap.Data",
        "members": [
          {
            "astId": 5245,
            "contract": "contracts/sales/FairSale.sol:FairSale",
            "label": "idToAddress",
            "offset": 0,
            "slot": "0",
            "type": "t_mapping(t_uint64,t_address)"
          },
          {
            "astId": 5249,
            "contract": "contracts/sales/FairSale.sol:FairSale",
            "label": "addressToId",
            "offset": 0,
            "slot": "1",
            "type": "t_mapping(t_address,t_uint64)"
          }
        ],
        "numberOfBytes": "64"
      },
      "t_struct(Data)5441_storage": {
        "encoding": "inplace",
        "label": "struct IterableOrderedOrderSet.Data",
        "members": [
          {
            "astId": 5436,
            "contract": "contracts/sales/FairSale.sol:FairSale",
            "label": "nextMap",
            "offset": 0,
            "slot": "0",
            "type": "t_mapping(t_bytes32,t_bytes32)"
          },
          {
            "astId": 5440,
            "contract": "contracts/sales/FairSale.sol:FairSale",
            "label": "prevMap",
            "offset": 0,
            "slot": "1",
            "type": "t_mapping(t_bytes32,t_bytes32)"
          }
        ],
        "numberOfBytes": "64"
      },
      "t_uint256": {
        "encoding": "inplace",
        "label": "uint256",
        "numberOfBytes": "32"
      },
      "t_uint64": {
        "encoding": "inplace",
        "label": "uint64",
        "numberOfBytes": "8"
      },
      "t_uint96": {
        "encoding": "inplace",
        "label": "uint96",
        "numberOfBytes": "12"
      }
    }
  }
}