{
  "address": "0x96D6701E69eEeA514865ecaE4c54Ca3488a4E230",
  "abi": [
    {
      "inputs": [],
      "stateMutability": "nonpayable",
      "type": "constructor"
    },
    {
      "anonymous": false,
      "inputs": [],
      "name": "SaleCreated",
      "type": "event"
    },
    {
      "anonymous": false,
      "inputs": [
        {
          "indexed": false,
          "internalType": "address",
          "name": "tokenIn",
          "type": "address"
        },
        {
          "indexed": false,
          "internalType": "address",
          "name": "tokenOut",
          "type": "address"
        },
        {
          "indexed": false,
          "internalType": "uint256",
          "name": "duration",
          "type": "uint256"
        },
        {
          "indexed": false,
          "internalType": "uint256",
          "name": "tokensForSale",
          "type": "uint256"
        },
        {
          "indexed": false,
          "internalType": "uint96",
          "name": "minPrice",
          "type": "uint96"
        },
        {
          "indexed": false,
          "internalType": "uint96",
          "name": "minBuyAmount",
          "type": "uint96"
        },
        {
          "indexed": false,
          "internalType": "uint256",
          "name": "minRaise",
          "type": "uint256"
        },
        {
          "indexed": false,
          "internalType": "uint256",
          "name": "orderCancelationPeriodDuration",
          "type": "uint256"
        },
        {
          "indexed": false,
          "internalType": "uint256",
          "name": "minimumBiddingAmountPerOrder",
          "type": "uint256"
        }
      ],
      "name": "TemplateInitialized",
      "type": "event"
    },
    {
      "inputs": [],
      "name": "aquaFactory",
      "outputs": [
        {
          "internalType": "contract IAquaFactory",
          "name": "",
          "type": "address"
        }
      ],
      "stateMutability": "view",
      "type": "function"
    },
    {
      "inputs": [],
      "name": "createSale",
      "outputs": [
        {
          "internalType": "address",
          "name": "newSale",
          "type": "address"
        }
      ],
      "stateMutability": "payable",
      "type": "function"
    },
    {
      "inputs": [],
      "name": "encodedInitData",
      "outputs": [
        {
          "internalType": "bytes",
          "name": "",
          "type": "bytes"
        }
      ],
      "stateMutability": "view",
      "type": "function"
    },
    {
      "inputs": [
        {
          "internalType": "bytes",
          "name": "_data",
          "type": "bytes"
        }
      ],
      "name": "init",
      "outputs": [],
      "stateMutability": "nonpayable",
      "type": "function"
    },
    {
      "inputs": [],
      "name": "isInitialized",
      "outputs": [
        {
          "internalType": "bool",
          "name": "",
          "type": "bool"
        }
      ],
      "stateMutability": "view",
      "type": "function"
    },
    {
      "inputs": [],
      "name": "isSaleCreated",
      "outputs": [
        {
          "internalType": "bool",
          "name": "",
          "type": "bool"
        }
      ],
      "stateMutability": "view",
      "type": "function"
    },
    {
      "inputs": [],
      "name": "metaDataContentHash",
      "outputs": [
        {
          "internalType": "string",
          "name": "",
          "type": "string"
        }
      ],
      "stateMutability": "view",
      "type": "function"
    },
    {
      "inputs": [],
      "name": "saleLauncher",
      "outputs": [
        {
          "internalType": "contract ISaleLauncher",
          "name": "",
          "type": "address"
        }
      ],
      "stateMutability": "view",
      "type": "function"
    },
    {
      "inputs": [],
      "name": "saleTemplateId",
      "outputs": [
        {
          "internalType": "uint256",
          "name": "",
          "type": "uint256"
        }
      ],
      "stateMutability": "view",
      "type": "function"
    },
    {
      "inputs": [
        {
          "internalType": "bytes4",
          "name": "interfaceId",
          "type": "bytes4"
        }
      ],
      "name": "supportsInterface",
      "outputs": [
        {
          "internalType": "bool",
          "name": "",
          "type": "bool"
        }
      ],
      "stateMutability": "view",
      "type": "function"
    },
    {
      "inputs": [],
      "name": "templateName",
      "outputs": [
        {
          "internalType": "string",
          "name": "",
          "type": "string"
        }
      ],
      "stateMutability": "view",
      "type": "function"
    },
    {
      "inputs": [],
      "name": "tokenOut",
      "outputs": [
        {
          "internalType": "address",
          "name": "",
          "type": "address"
        }
      ],
      "stateMutability": "view",
      "type": "function"
    },
    {
      "inputs": [],
      "name": "tokenSupplier",
      "outputs": [
        {
          "internalType": "address",
          "name": "",
          "type": "address"
        }
      ],
      "stateMutability": "view",
      "type": "function"
    },
    {
      "inputs": [],
      "name": "tokensForSale",
      "outputs": [
        {
          "internalType": "uint256",
          "name": "",
          "type": "uint256"
        }
      ],
      "stateMutability": "view",
      "type": "function"
    }
  ],
  "transactionHash": "0x18275594f9874f87c8d1b98c288a055261ec6621d6e0596d50eafbfd9a731484",
  "args": [],
  "solcInputHash": "cb2c1241ce553a65027f1ae8d438d5f8",
  "bytecode": "0x608060405234801561001057600080fd5b506100216301ffc9a760e01b610096565b61003163242c480560e01b610096565b6040805180820190915260108082526f4661697253616c6554656d706c61746560801b60209092019182526100689160019161011a565b5060408051808201909152600280825261060f60f31b6020909201918252610090918161011a565b506101ad565b6001600160e01b031980821614156100f5576040805162461bcd60e51b815260206004820152601c60248201527f4552433136353a20696e76616c696420696e7465726661636520696400000000604482015290519081900360640190fd5b6001600160e01b0319166000908152602081905260409020805460ff19166001179055565b828054600181600116156101000203166002900490600052602060002090601f016020900481019282601f1061015b57805160ff1916838001178555610188565b82800160010185558215610188579182015b8281111561018857825182559160200191906001019061016d565b50610194929150610198565b5090565b5b808211156101945760008155600101610199565b610afd806101bc6000396000f3fe6080604052600436106100dd5760003560e01c8063613bb30b1161007f57806369f30fd11161005957806369f30fd1146102f4578063906652be14610309578063d0202d3b14610311578063f569720d14610326576100dd565b8063613bb30b146102b557806366b210c2146102ca57806369708c69146102df576100dd565b80632a98bdbd116100bb5780632a98bdbd14610182578063392e53cd1461020c5780634ddf47d4146102215780635aeb431e146102a0576100dd565b806301ffc9a7146100e2578063047f6fe61461012a57806312aef8c31461015b575b600080fd5b3480156100ee57600080fd5b506101166004803603602081101561010557600080fd5b50356001600160e01b03191661033b565b604080519115158252519081900360200190f35b34801561013657600080fd5b5061013f61035a565b604080516001600160a01b039092168252519081900360200190f35b34801561016757600080fd5b50610170610369565b60408051918252519081900360200190f35b34801561018e57600080fd5b5061019761036f565b6040805160208082528351818301528351919283929083019185019080838360005b838110156101d15781810151838201526020016101b9565b50505050905090810190601f1680156101fe5780820380516001836020036101000a031916815260200191505b509250505060405180910390f35b34801561021857600080fd5b506101166103fd565b34801561022d57600080fd5b5061029e6004803603602081101561024457600080fd5b81019060208101813564010000000081111561025f57600080fd5b82018360208201111561027157600080fd5b8035906020019184600183028401116401000000008311171561029357600080fd5b509092509050610406565b005b3480156102ac57600080fd5b506101166104be565b3480156102c157600080fd5b506101706104cc565b3480156102d657600080fd5b506101976104d2565b3480156102eb57600080fd5b5061013f61052a565b34801561030057600080fd5b50610197610539565b61013f610593565b34801561031d57600080fd5b5061013f6107a1565b34801561033257600080fd5b5061013f6107b0565b6001600160e01b03191660009081526020819052604090205460ff1690565b6004546001600160a01b031681565b60085481565b6009805460408051602060026001851615610100026000190190941693909304601f810184900484028201840190925281815292918301828280156103f55780601f106103ca576101008083540402835291602001916103f5565b820191906000526020600020905b8154815290600101906020018083116103d857829003601f168201915b505050505081565b600a5460ff1681565b6000806000806000806000806000806000808d8d61018081101561042957600080fd5b506001600160a01b03813581169d5060208201359c50604082013581169b50606082013581169a506080820135995060a082013598506001600160601b0360c08301358116985060e0830135169650610100820135955061012082013594506101408201359350610160909101351690506104ae8c8c8c8c8c8c8c8c8c8c8c8c6107bf565b5050505050505050505050505050565b600a54610100900460ff1681565b60055481565b6002805460408051602060018416156101000260001901909316849004601f810184900484028201840190925281815292918301828280156103f55780601f106103ca576101008083540402835291602001916103f5565b6003546001600160a01b031681565b60018054604080516020600284861615610100026000190190941693909304601f810184900484028201840190925281815292918301828280156103f55780601f106103ca576101008083540402835291602001916103f5565b600a54600090610100900460ff16156105dd5760405162461bcd60e51b8152600401808060200182810382526026815260200180610a7e6026913960400191505060405180910390fd5b6006546001600160a01b0316331461063c576040805162461bcd60e51b815260206004820152601b60248201527f4661697253616c6554656d706c6174653a20464f5242494444454e0000000000604482015290519081900360640190fd5b60035460055460075460085460065460405163da550d8960e01b8152600481018581526001600160a01b0394851660248301819052604483018590529285166064830181905260a060848401908152600980546002600019600183161561010002019091160460a48601819052979099169863da550d899834989097959394919391929160c40190849080156107135780601f106106e857610100808354040283529160200191610713565b820191906000526020600020905b8154815290600101906020018083116106f657829003601f168201915b505096505050505050506020604051808303818588803b15801561073657600080fd5b505af115801561074a573d6000803e3d6000fd5b50505050506040513d602081101561076157600080fd5b5051600a805461ff0019166101001790556040519091507f75ec5602f8c53dccb97de898739afc3eb77713476dd27aa7ea4a4993e322bd8290600090a190565b6007546001600160a01b031681565b6006546001600160a01b031681565b600a5460ff16156108015760405162461bcd60e51b8152600401808060200182810382526024815260200180610aa46024913960400191505060405180910390fd5b600380546001600160a01b0319166001600160a01b038e169081179091556040805163c45a015560e01b8152905163c45a015591600480820192602092909190829003018186803b15801561085557600080fd5b505afa158015610869573d6000803e3d6000fd5b505050506040513d602081101561087f57600080fd5b5051600480546001600160a01b039283166001600160a01b03199182161790915560058d9055600680548484169083161790819055600780548d851693168317905560088a9055600a805460ff19166001179055604080518e85166020828101919091528183019490945260608101889052608081018d90526001600160601b03808d1660a08301528a1660c082015260e0810187905261010081018990526000610120820181905292909416610140808601919091528151808603909101815261016090940190528251909261095b926009929101906109ea565b50604080516001600160a01b03808e1682528c1660208201528082018b9052606081018a90526001600160601b03808a166080830152881660a082015260c0810187905260e08101869052610100810185905290517fdb951fb0128c55104d700e63111aabdc0dbcf723794a15d962ed1749eb02b7c1918190036101200190a150505050505050505050505050565b828054600181600116156101000203166002900490600052602060002090601f016020900481019282601f10610a2b57805160ff1916838001178555610a58565b82800160010185558215610a58579182015b82811115610a58578251825591602001919060010190610a3d565b50610a64929150610a68565b5090565b5b80821115610a645760008155600101610a6956fe4661697253616c6554656d706c6174653a2053616c6520616c726561647920637265617465644661697253616c6554656d706c6174653a20414c454144595f494e495449414c495a4544a26469706673582212201a3cc06bca7dcc45c7f7954f20398f9379def48b05fbebc8d21684298062abb364736f6c634300060c0033",
  "devdoc": {
    "kind": "dev",
    "methods": {
      "init(bytes)": {
        "details": "setup function expexted to be called by templateLauncher to init the template",
        "params": {
          "_data": "encoded template params"
        }
      },
      "supportsInterface(bytes4)": {
        "details": "See {IERC165-supportsInterface}. Time complexity O(1), guaranteed to always use less than 30 000 gas."
      }
    },
    "version": 1
  },
  "userdoc": {
    "kind": "user",
    "methods": {},
    "version": 1
  },
  "storageLayout": {
    "storage": [
      {
        "astId": 13,
        "contract": "contracts/templates/FairSaleTemplate.sol:FairSaleTemplate",
        "label": "_supportedInterfaces",
        "offset": 0,
        "slot": "0",
        "type": "t_mapping(t_bytes4,t_bool)"
      },
      {
        "astId": 6375,
        "contract": "contracts/templates/FairSaleTemplate.sol:FairSaleTemplate",
        "label": "templateName",
        "offset": 0,
        "slot": "1",
        "type": "t_string_storage"
      },
      {
        "astId": 6377,
        "contract": "contracts/templates/FairSaleTemplate.sol:FairSaleTemplate",
        "label": "metaDataContentHash",
        "offset": 0,
        "slot": "2",
        "type": "t_string_storage"
      },
      {
        "astId": 6426,
        "contract": "contracts/templates/FairSaleTemplate.sol:FairSaleTemplate",
        "label": "saleLauncher",
        "offset": 0,
        "slot": "3",
        "type": "t_contract(ISaleLauncher)5165"
      },
      {
        "astId": 6428,
        "contract": "contracts/templates/FairSaleTemplate.sol:FairSaleTemplate",
        "label": "aquaFactory",
        "offset": 0,
        "slot": "4",
        "type": "t_contract(IAquaFactory)5092"
      },
      {
        "astId": 6430,
        "contract": "contracts/templates/FairSaleTemplate.sol:FairSaleTemplate",
        "label": "saleTemplateId",
        "offset": 0,
        "slot": "5",
        "type": "t_uint256"
      },
      {
        "astId": 6432,
        "contract": "contracts/templates/FairSaleTemplate.sol:FairSaleTemplate",
        "label": "tokenSupplier",
        "offset": 0,
        "slot": "6",
        "type": "t_address"
      },
      {
        "astId": 6434,
        "contract": "contracts/templates/FairSaleTemplate.sol:FairSaleTemplate",
        "label": "tokenOut",
        "offset": 0,
        "slot": "7",
        "type": "t_address"
      },
      {
        "astId": 6436,
        "contract": "contracts/templates/FairSaleTemplate.sol:FairSaleTemplate",
        "label": "tokensForSale",
        "offset": 0,
        "slot": "8",
        "type": "t_uint256"
      },
      {
        "astId": 6438,
        "contract": "contracts/templates/FairSaleTemplate.sol:FairSaleTemplate",
        "label": "encodedInitData",
        "offset": 0,
        "slot": "9",
        "type": "t_bytes_storage"
      },
      {
        "astId": 6440,
        "contract": "contracts/templates/FairSaleTemplate.sol:FairSaleTemplate",
        "label": "isInitialized",
        "offset": 0,
        "slot": "10",
        "type": "t_bool"
      },
      {
        "astId": 6442,
        "contract": "contracts/templates/FairSaleTemplate.sol:FairSaleTemplate",
        "label": "isSaleCreated",
        "offset": 1,
        "slot": "10",
        "type": "t_bool"
      }
    ],
    "types": {
      "t_address": {
        "encoding": "inplace",
        "label": "address",
        "numberOfBytes": "20"
      },
      "t_bool": {
        "encoding": "inplace",
        "label": "bool",
        "numberOfBytes": "1"
      },
      "t_bytes4": {
        "encoding": "inplace",
        "label": "bytes4",
        "numberOfBytes": "4"
      },
      "t_bytes_storage": {
        "encoding": "bytes",
        "label": "bytes",
        "numberOfBytes": "32"
      },
      "t_contract(IAquaFactory)5092": {
        "encoding": "inplace",
        "label": "contract IAquaFactory",
        "numberOfBytes": "20"
      },
      "t_contract(ISaleLauncher)5165": {
        "encoding": "inplace",
        "label": "contract ISaleLauncher",
        "numberOfBytes": "20"
      },
      "t_mapping(t_bytes4,t_bool)": {
        "encoding": "mapping",
        "key": "t_bytes4",
        "label": "mapping(bytes4 => bool)",
        "numberOfBytes": "32",
        "value": "t_bool"
      },
      "t_string_storage": {
        "encoding": "bytes",
        "label": "string",
        "numberOfBytes": "32"
      },
      "t_uint256": {
        "encoding": "inplace",
        "label": "uint256",
        "numberOfBytes": "32"
      }
    }
  }
}