{
  "address": "0xd44CbF132A8EeC7a2aCB2Ac635806641E8233232",
  "abi": [
    {
      "inputs": [
        {
          "internalType": "address",
          "name": "_factory",
          "type": "address"
        }
      ],
      "stateMutability": "nonpayable",
      "type": "constructor"
    },
    {
      "anonymous": false,
      "inputs": [
        {
          "indexed": true,
          "internalType": "address",
          "name": "sale",
          "type": "address"
        },
        {
          "indexed": false,
          "internalType": "uint256",
          "name": "templateId",
          "type": "uint256"
        },
        {
          "indexed": true,
          "internalType": "address",
          "name": "template",
          "type": "address"
        },
        {
          "indexed": false,
          "internalType": "bytes",
          "name": "data",
          "type": "bytes"
        }
      ],
      "name": "SaleInitialized",
      "type": "event"
    },
    {
      "anonymous": false,
      "inputs": [
        {
          "indexed": true,
          "internalType": "address",
          "name": "sale",
          "type": "address"
        },
        {
          "indexed": false,
          "internalType": "uint256",
          "name": "templateId",
          "type": "uint256"
        }
      ],
      "name": "SaleLaunched",
      "type": "event"
    },
    {
      "anonymous": false,
      "inputs": [
        {
          "indexed": true,
          "internalType": "address",
          "name": "template",
          "type": "address"
        },
        {
          "indexed": false,
          "internalType": "uint256",
          "name": "templateId",
          "type": "uint256"
        }
      ],
      "name": "TemplateAdded",
      "type": "event"
    },
    {
      "anonymous": false,
      "inputs": [
        {
          "indexed": true,
          "internalType": "address",
          "name": "template",
          "type": "address"
        },
        {
          "indexed": false,
          "internalType": "uint256",
          "name": "templateId",
          "type": "uint256"
        }
      ],
      "name": "TemplateRemoved",
      "type": "event"
    },
    {
      "inputs": [
        {
          "internalType": "address",
          "name": "_template",
          "type": "address"
        }
      ],
      "name": "addTemplate",
      "outputs": [
        {
          "internalType": "uint256",
          "name": "",
          "type": "uint256"
        }
      ],
      "stateMutability": "nonpayable",
      "type": "function"
    },
    {
      "inputs": [
        {
          "internalType": "uint256",
          "name": "_templateId",
          "type": "uint256"
        },
        {
          "internalType": "address",
          "name": "_token",
          "type": "address"
        },
        {
          "internalType": "uint256",
          "name": "_tokenSupply",
          "type": "uint256"
        },
        {
          "internalType": "address",
          "name": "_tokenSupplier",
          "type": "address"
        },
        {
          "internalType": "bytes",
          "name": "_data",
          "type": "bytes"
        }
      ],
      "name": "createSale",
      "outputs": [
        {
          "internalType": "address",
          "name": "newSale",
          "type": "address"
        }
      ],
      "stateMutability": "payable",
      "type": "function"
    },
    {
      "inputs": [],
      "name": "factory",
      "outputs": [
        {
          "internalType": "address",
          "name": "",
          "type": "address"
        }
      ],
      "stateMutability": "view",
      "type": "function"
    },
    {
      "inputs": [
        {
          "internalType": "uint256",
          "name": "_tokenSupply",
          "type": "uint256"
        }
      ],
      "name": "getDepositAmountWithFees",
      "outputs": [
        {
          "internalType": "uint256",
          "name": "",
          "type": "uint256"
        }
      ],
      "stateMutability": "view",
      "type": "function"
    },
    {
      "inputs": [
        {
          "internalType": "uint256",
          "name": "_templateId",
          "type": "uint256"
        }
      ],
      "name": "getTemplate",
      "outputs": [
        {
          "internalType": "address",
          "name": "template",
          "type": "address"
        }
      ],
      "stateMutability": "view",
      "type": "function"
    },
    {
      "inputs": [
        {
          "internalType": "address",
          "name": "_template",
          "type": "address"
        }
      ],
      "name": "getTemplateId",
      "outputs": [
        {
          "internalType": "uint256",
          "name": "",
          "type": "uint256"
        }
      ],
      "stateMutability": "view",
      "type": "function"
    },
    {
      "inputs": [],
      "name": "numberOfSales",
      "outputs": [
        {
          "internalType": "uint256",
          "name": "",
          "type": "uint256"
        }
      ],
      "stateMutability": "view",
      "type": "function"
    },
    {
      "inputs": [
        {
          "internalType": "uint256",
          "name": "_templateId",
          "type": "uint256"
        }
      ],
      "name": "removeTemplate",
      "outputs": [],
      "stateMutability": "nonpayable",
      "type": "function"
    },
    {
      "inputs": [
        {
          "internalType": "address",
          "name": "",
          "type": "address"
        }
      ],
      "name": "saleInfo",
      "outputs": [
        {
          "internalType": "bool",
          "name": "exists",
          "type": "bool"
        },
        {
          "internalType": "uint64",
          "name": "templateId",
          "type": "uint64"
        },
        {
          "internalType": "uint128",
          "name": "index",
          "type": "uint128"
        }
      ],
      "stateMutability": "view",
      "type": "function"
    },
    {
      "inputs": [],
      "name": "saleTemplateId",
      "outputs": [
        {
          "internalType": "uint256",
          "name": "",
          "type": "uint256"
        }
      ],
      "stateMutability": "view",
      "type": "function"
    },
    {
      "inputs": [
        {
          "internalType": "uint256",
          "name": "",
          "type": "uint256"
        }
      ],
      "name": "sales",
      "outputs": [
        {
          "internalType": "address",
          "name": "",
          "type": "address"
        }
      ],
      "stateMutability": "view",
      "type": "function"
    }
  ],
  "transactionHash": "0x60e7226769a18918f0fdfcc51432e7e02ba59d0632a4b123ffd22e9cc9a0d877",
  "args": [
    "0x674A6773147b76B4d43a4c2fce4a72AcFeDA47A1"
  ],
  "solcInputHash": "0ae821e0bb58bcf6a08ec78cfdae45dc",
  "bytecode": "0x608060405234801561001057600080fd5b506040516114193803806114198339818101604052602081101561003357600080fd5b5051600580546001600160a01b0319166001600160a01b039092169190911790556113b6806100636000396000f3fe60806040526004361061009c5760003560e01c8063c04d0ab711610064578063c04d0ab714610180578063c45a0155146101ac578063d335ebda146101c1578063d7b0b29d146101f4578063da550d8914610259578063e8c51ccc146102ef5761009c565b806321745c15146100a157806331543cf4146100c857806355b302661461010e578063613bb30b14610141578063b5f522f714610156575b600080fd5b3480156100ad57600080fd5b506100b6610319565b60408051918252519081900360200190f35b3480156100d457600080fd5b506100f2600480360360208110156100eb57600080fd5b503561031f565b604080516001600160a01b039092168252519081900360200190f35b34801561011a57600080fd5b506100b66004803603602081101561013157600080fd5b50356001600160a01b031661033a565b34801561014d57600080fd5b506100b66104ec565b34801561016257600080fd5b506100f26004803603602081101561017957600080fd5b50356104f2565b34801561018c57600080fd5b506101aa600480360360208110156101a357600080fd5b5035610519565b005b3480156101b857600080fd5b506100f2610675565b3480156101cd57600080fd5b506100b6600480360360208110156101e457600080fd5b50356001600160a01b0316610684565b34801561020057600080fd5b506102276004803603602081101561021757600080fd5b50356001600160a01b031661069f565b60408051931515845267ffffffffffffffff90921660208401526001600160801b031682820152519081900360600190f35b6100f2600480360360a081101561026f57600080fd5b8135916001600160a01b0360208201358116926040830135926060810135909216919081019060a0810160808201356401000000008111156102b057600080fd5b8201836020820111156102c257600080fd5b803590602001918460018302840111640100000000831117156102e457600080fd5b5090925090506106d6565b3480156102fb57600080fd5b506100b66004803603602081101561031257600080fd5b5035610ac5565b60035490565b6000908152602081905260409020546001600160a01b031690565b60055460408051636a619f9560e11b815290516000926001600160a01b03169163d4c33f2a916004808301926020929190829003018186803b15801561037f57600080fd5b505afa158015610393573d6000803e3d6000fd5b505050506040513d60208110156103a957600080fd5b50516001600160a01b03163314610401576040805162461bcd60e51b815260206004820152601760248201527629b0b632a630bab731b432b91d102327a92124a22222a760491b604482015290519081900360640190fd5b6001600160a01b0382166000908152600160205260409020541561046c576040805162461bcd60e51b815260206004820181905260248201527f53616c654c61756e636865723a2054454d504c4154455f4455504c4943415445604482015290519081900360640190fd5b60048054600180820180845560009081526020818152604080832080546001600160a01b0319166001600160a01b038a16908117909155955486845293825291829020839055815192835290519293927f70300ab95e22eebeda3bb99011e4ddcd4e3012b97e60bf47c6f4d547dbb8d47a9281900390910190a292915050565b60045481565b600381815481106104ff57fe5b6000918252602090912001546001600160a01b0316905081565b600560009054906101000a90046001600160a01b03166001600160a01b031663d4c33f2a6040518163ffffffff1660e01b815260040160206040518083038186803b15801561056757600080fd5b505afa15801561057b573d6000803e3d6000fd5b505050506040513d602081101561059157600080fd5b50516001600160a01b031633146105e9576040805162461bcd60e51b815260206004820152601760248201527629b0b632a630bab731b432b91d102327a92124a22222a760491b604482015290519081900360640190fd5b6000818152602081905260409020546001600160a01b031661060a57600080fd5b60008181526020818152604080832080546001600160a01b031981169091556001600160a01b031680845260018352818420939093558051848152905183927f1891c760fe30a9bb6dc65c4f84a54ab625073606e21e0c4d81b1ea63582aa938928290030190a25050565b6005546001600160a01b031681565b6001600160a01b031660009081526001602052604090205490565b60026020526000908152604090205460ff811690610100810467ffffffffffffffff1690600160481b90046001600160801b031683565b6005546040805163178021e360e01b815290516000926001600160a01b03169163178021e3916004808301926020929190829003018186803b15801561071b57600080fd5b505afa15801561072f573d6000803e3d6000fd5b505050506040513d602081101561074557600080fd5b50513410156107855760405162461bcd60e51b81526004018080602001828103825260238152602001806113196023913960400191505060405180910390fd5b6000878152602081905260409020546001600160a01b03166107ee576040805162461bcd60e51b815260206004820152601e60248201527f53616c654c61756e636865723a20494e56414c49445f54454d504c4154450000604482015290519081900360640190fd5b6107f787610bdb565b905084156109b35760055460408051630c0586bf60e11b815290516000926001600160a01b03169163180b0d7e916004808301926020929190829003018186803b15801561084457600080fd5b505afa158015610858573d6000803e3d6000fd5b505050506040513d602081101561086e57600080fd5b505160055460408051637436f52560e11b815290519293506000926001600160a01b039092169163e86dea4a91600480820192602092909190829003018186803b1580156108bb57600080fd5b505afa1580156108cf573d6000803e3d6000fd5b505050506040513d60208110156108e557600080fd5b505190506000610909836109036108fc8286610d1c565b8b90610d7f565b90610dd8565b905061091789883084610e3f565b61092289858a610f9c565b6109af89600560009054906101000a90046001600160a01b03166001600160a01b031663017e7e586040518163ffffffff1660e01b815260040160206040518083038186803b15801561097457600080fd5b505afa158015610988573d6000803e3d6000fd5b505050506040513d602081101561099e57600080fd5b50516109aa848c611106565b611163565b5050505b604051631377d1f560e21b8152602060048201908152602482018490526001600160a01b03831691634ddf47d49186918691908190604401848480828437600081840152601f19601f8201169050808301925050509350505050600060405180830381600087803b158015610a2757600080fd5b505af1158015610a3b573d6000803e3d6000fd5b50505050336001600160a01b0316816001600160a01b03167f0628bec85a619dbfae8ef383d4e0d4bd1bd4a2b0637bfc9c8af32fe4b801876989868660405180848152602001806020018281038252848482818152602001925080828437600083820152604051601f909101601f1916909201829003965090945050505050a39695505050505050565b600080600560009054906101000a90046001600160a01b03166001600160a01b031663180b0d7e6040518163ffffffff1660e01b815260040160206040518083038186803b158015610b1657600080fd5b505afa158015610b2a573d6000803e3d6000fd5b505050506040513d6020811015610b4057600080fd5b505160055460408051637436f52560e11b815290519293506000926001600160a01b039092169163e86dea4a91600480820192602092909190829003018186803b158015610b8d57600080fd5b505afa158015610ba1573d6000803e3d6000fd5b505050506040513d6020811015610bb757600080fd5b50519050610bd382610903610bcc8285610d1c565b8790610d7f565b949350505050565b600081815260208190526040812054610bfc906001600160a01b03166112c6565b60408051606081018252600180825267ffffffffffffffff8681166020808501918252600380546001600160801b039081168789019081526001600160a01b038a166000818152600286528a812099518a549751935160ff199098169015151768ffffffffffffffff00191661010093909816929092029690961778ffffffffffffffffffffffffffffffff0000000000000000001916600160481b959092169490940217909555845493840185559390527fc2575a0e9e593c00f959f8c92f12db2869c3395a3b0502d05e2516446f71f85b90910180546001600160a01b0319168217905582518681529251939450927f5df7ea887dad4f348065dc199aa9a6e398f520855c5f356a079194872bf3d85e9281900390910190a2919050565b600082820183811015610d76576040805162461bcd60e51b815260206004820152601b60248201527f536166654d6174683a206164646974696f6e206f766572666c6f770000000000604482015290519081900360640190fd5b90505b92915050565b600082610d8e57506000610d79565b82820282848281610d9b57fe5b0414610d765760405162461bcd60e51b815260040180806020018281038252602181526020018061133c6021913960400191505060405180910390fd5b6000808211610e2e576040805162461bcd60e51b815260206004820152601a60248201527f536166654d6174683a206469766973696f6e206279207a65726f000000000000604482015290519081900360640190fd5b818381610e3757fe5b049392505050565b604080516001600160a01b0385811660248301528481166044830152606480830185905283518084039091018152608490920183526020820180516001600160e01b03166323b872dd60e01b17815292518251600094606094938a169392918291908083835b60208310610ec45780518252601f199092019160209182019101610ea5565b6001836020036101000a0380198251168184511680821785525050505050509050019150506000604051808303816000865af19150503d8060008114610f26576040519150601f19603f3d011682016040523d82523d6000602084013e610f2b565b606091505b5091509150818015610f59575080511580610f595750808060200190516020811015610f5657600080fd5b50515b610f945760405162461bcd60e51b815260040180806020018281038252602481526020018061135d6024913960400191505060405180910390fd5b505050505050565b604080516001600160a01b038481166024830152604480830185905283518084039091018152606490920183526020820180516001600160e01b031663095ea7b360e01b178152925182516000946060949389169392918291908083835b602083106110195780518252601f199092019160209182019101610ffa565b6001836020036101000a0380198251168184511680821785525050505050509050019150506000604051808303816000865af19150503d806000811461107b576040519150601f19603f3d011682016040523d82523d6000602084013e611080565b606091505b50915091508180156110ae5750805115806110ae57508080602001905160208110156110ab57600080fd5b50515b6110ff576040805162461bcd60e51b815260206004820152601e60248201527f5472616e7366657248656c7065723a20415050524f56455f4641494c45440000604482015290519081900360640190fd5b5050505050565b60008282111561115d576040805162461bcd60e51b815260206004820152601e60248201527f536166654d6174683a207375627472616374696f6e206f766572666c6f770000604482015290519081900360640190fd5b50900390565b604080516001600160a01b038481166024830152604480830185905283518084039091018152606490920183526020820180516001600160e01b031663a9059cbb60e01b178152925182516000946060949389169392918291908083835b602083106111e05780518252601f1990920191602091820191016111c1565b6001836020036101000a0380198251168184511680821785525050505050509050019150506000604051808303816000865af19150503d8060008114611242576040519150601f19603f3d011682016040523d82523d6000602084013e611247565b606091505b5091509150818015611275575080511580611275575080806020019051602081101561127257600080fd5b50515b6110ff576040805162461bcd60e51b815260206004820152601f60248201527f5472616e7366657248656c7065723a205452414e534645525f4641494c454400604482015290519081900360640190fd5b6000808260601b9050604051733d602d80600a3d3981f3363d3d373d3d3d363d7360601b81528160148201526e5af43d82803e903d91602b57fd5bf360881b60288201526037816000f094935050505056fe53616c654c61756e636865723a2053414c455f4645455f4e4f545f50524f5649444544536166654d6174683a206d756c7469706c69636174696f6e206f766572666c6f775472616e7366657248656c7065723a205452414e534645525f46524f4d5f4641494c4544a26469706673582212200d384d38aaa467f6a76520d0939daddca8f77e982dd18de7a3c2a590ee7d21f364736f6c634300060c0033",
  "devdoc": {
    "kind": "dev",
    "methods": {},
    "version": 1
  },
  "userdoc": {
    "kind": "user",
    "methods": {},
    "version": 1
  },
  "storageLayout": {
    "storage": [
      {
        "astId": 4644,
        "contract": "contracts/sales/SaleLauncher.sol:SaleLauncher",
        "label": "saleTemplates",
        "offset": 0,
        "slot": "0",
        "type": "t_mapping(t_uint256,t_address)"
      },
      {
        "astId": 4648,
        "contract": "contracts/sales/SaleLauncher.sol:SaleLauncher",
        "label": "saleTemplateToId",
        "offset": 0,
        "slot": "1",
        "type": "t_mapping(t_address,t_uint256)"
      },
      {
        "astId": 4652,
        "contract": "contracts/sales/SaleLauncher.sol:SaleLauncher",
        "label": "saleInfo",
        "offset": 0,
        "slot": "2",
        "type": "t_mapping(t_address,t_struct(Sale)4640_storage)"
      },
      {
        "astId": 4655,
        "contract": "contracts/sales/SaleLauncher.sol:SaleLauncher",
        "label": "sales",
        "offset": 0,
        "slot": "3",
        "type": "t_array(t_address)dyn_storage"
      },
      {
        "astId": 4657,
        "contract": "contracts/sales/SaleLauncher.sol:SaleLauncher",
        "label": "saleTemplateId",
        "offset": 0,
        "slot": "4",
        "type": "t_uint256"
      },
      {
        "astId": 4659,
        "contract": "contracts/sales/SaleLauncher.sol:SaleLauncher",
        "label": "factory",
        "offset": 0,
        "slot": "5",
        "type": "t_address"
      }
    ],
    "types": {
      "t_address": {
        "encoding": "inplace",
        "label": "address",
        "numberOfBytes": "20"
      },
      "t_array(t_address)dyn_storage": {
        "base": "t_address",
        "encoding": "dynamic_array",
        "label": "address[]",
        "numberOfBytes": "32"
      },
      "t_bool": {
        "encoding": "inplace",
        "label": "bool",
        "numberOfBytes": "1"
      },
      "t_mapping(t_address,t_struct(Sale)4640_storage)": {
        "encoding": "mapping",
        "key": "t_address",
        "label": "mapping(address => struct SaleLauncher.Sale)",
        "numberOfBytes": "32",
        "value": "t_struct(Sale)4640_storage"
      },
      "t_mapping(t_address,t_uint256)": {
        "encoding": "mapping",
        "key": "t_address",
        "label": "mapping(address => uint256)",
        "numberOfBytes": "32",
        "value": "t_uint256"
      },
      "t_mapping(t_uint256,t_address)": {
        "encoding": "mapping",
        "key": "t_uint256",
        "label": "mapping(uint256 => address)",
        "numberOfBytes": "32",
        "value": "t_address"
      },
      "t_struct(Sale)4640_storage": {
        "encoding": "inplace",
        "label": "struct SaleLauncher.Sale",
        "members": [
          {
            "astId": 4635,
            "contract": "contracts/sales/SaleLauncher.sol:SaleLauncher",
            "label": "exists",
            "offset": 0,
            "slot": "0",
            "type": "t_bool"
          },
          {
            "astId": 4637,
            "contract": "contracts/sales/SaleLauncher.sol:SaleLauncher",
            "label": "templateId",
            "offset": 1,
            "slot": "0",
            "type": "t_uint64"
          },
          {
            "astId": 4639,
            "contract": "contracts/sales/SaleLauncher.sol:SaleLauncher",
            "label": "index",
            "offset": 9,
            "slot": "0",
            "type": "t_uint128"
          }
        ],
        "numberOfBytes": "32"
      },
      "t_uint128": {
        "encoding": "inplace",
        "label": "uint128",
        "numberOfBytes": "16"
      },
      "t_uint256": {
        "encoding": "inplace",
        "label": "uint256",
        "numberOfBytes": "32"
      },
      "t_uint64": {
        "encoding": "inplace",
        "label": "uint64",
        "numberOfBytes": "8"
      }
    }
  }
}