{
  "address": "0x58C67b46C47f69D63AA09d5F822EdE377C479d5f",
  "abi": [
    {
      "inputs": [
        {
          "internalType": "address",
          "name": "_factory",
          "type": "address"
        },
        {
          "internalType": "address",
          "name": "_participantListLaucher",
          "type": "address"
        }
      ],
      "stateMutability": "nonpayable",
      "type": "constructor"
    },
    {
      "anonymous": false,
      "inputs": [
        {
          "indexed": false,
          "internalType": "bool",
          "name": "allowPublicTemplates",
          "type": "bool"
        }
      ],
      "name": "AllowPublicTemplatesUpdated",
      "type": "event"
    },
    {
      "anonymous": false,
      "inputs": [
        {
          "indexed": true,
          "internalType": "address",
          "name": "template",
          "type": "address"
        },
        {
          "indexed": false,
          "internalType": "uint256",
          "name": "templateId",
          "type": "uint256"
        }
      ],
      "name": "TemplateAdded",
      "type": "event"
    },
    {
      "anonymous": false,
      "inputs": [
        {
          "indexed": true,
          "internalType": "address",
          "name": "template",
          "type": "address"
        },
        {
          "indexed": false,
          "internalType": "uint256",
          "name": "templateId",
          "type": "uint256"
        },
        {
          "indexed": false,
          "internalType": "address",
          "name": "templateDeployer",
          "type": "address"
        },
        {
          "indexed": false,
          "internalType": "string",
          "name": "metadataContentHash",
          "type": "string"
        }
      ],
      "name": "TemplateLaunched",
      "type": "event"
    },
    {
      "anonymous": false,
      "inputs": [
        {
          "indexed": false,
          "internalType": "address",
          "name": "template",
          "type": "address"
        },
        {
          "indexed": false,
          "internalType": "string",
          "name": "newdetaDataContentHash",
          "type": "string"
        }
      ],
      "name": "TemplateMetadataContentHashUpdated",
      "type": "event"
    },
    {
      "anonymous": false,
      "inputs": [
        {
          "indexed": true,
          "internalType": "address",
          "name": "template",
          "type": "address"
        },
        {
          "indexed": false,
          "internalType": "uint256",
          "name": "templateId",
          "type": "uint256"
        }
      ],
      "name": "TemplateRemoved",
      "type": "event"
    },
    {
      "anonymous": false,
      "inputs": [
        {
          "indexed": true,
          "internalType": "address",
          "name": "template",
          "type": "address"
        },
        {
          "indexed": false,
          "internalType": "uint256",
          "name": "templateId",
          "type": "uint256"
        }
      ],
      "name": "TemplateVerified",
      "type": "event"
    },
    {
      "inputs": [
        {
          "internalType": "address",
          "name": "_template",
          "type": "address"
        }
      ],
      "name": "addTemplate",
      "outputs": [
        {
          "internalType": "uint256",
          "name": "",
          "type": "uint256"
        }
      ],
      "stateMutability": "payable",
      "type": "function"
    },
    {
      "inputs": [],
      "name": "allowPublicTemplates",
      "outputs": [
        {
          "internalType": "bool",
          "name": "",
          "type": "bool"
        }
      ],
      "stateMutability": "view",
      "type": "function"
    },
    {
      "inputs": [],
      "name": "factory",
      "outputs": [
        {
          "internalType": "address",
          "name": "",
          "type": "address"
        }
      ],
      "stateMutability": "view",
      "type": "function"
    },
    {
      "inputs": [
        {
          "internalType": "uint256",
          "name": "_templateId",
          "type": "uint256"
        }
      ],
      "name": "getTemplate",
      "outputs": [
        {
          "internalType": "address",
          "name": "",
          "type": "address"
        }
      ],
      "stateMutability": "view",
      "type": "function"
    },
    {
      "inputs": [
        {
          "internalType": "address",
          "name": "_template",
          "type": "address"
        }
      ],
      "name": "getTemplateId",
      "outputs": [
        {
          "internalType": "uint256",
          "name": "",
          "type": "uint256"
        }
      ],
      "stateMutability": "view",
      "type": "function"
    },
    {
      "inputs": [
        {
          "internalType": "uint256",
          "name": "_templateId",
          "type": "uint256"
        },
        {
          "internalType": "bytes",
          "name": "_data",
          "type": "bytes"
        },
        {
          "internalType": "string",
          "name": "_metadataContentHash",
          "type": "string"
        },
        {
          "internalType": "address",
          "name": "_templateDeployer",
          "type": "address"
        }
      ],
      "name": "launchTemplate",
      "outputs": [
        {
          "internalType": "address",
          "name": "newTemplate",
          "type": "address"
        }
      ],
      "stateMutability": "payable",
      "type": "function"
    },
    {
      "inputs": [
        {
          "internalType": "address",
          "name": "",
          "type": "address"
        }
      ],
      "name": "launchedTemplate",
      "outputs": [
        {
          "internalType": "address",
          "name": "deployer",
          "type": "address"
        },
        {
          "internalType": "string",
          "name": "metadataContentHash",
          "type": "string"
        }
      ],
      "stateMutability": "view",
      "type": "function"
    },
    {
      "inputs": [],
      "name": "participantListLaucher",
      "outputs": [
        {
          "internalType": "address",
          "name": "",
          "type": "address"
        }
      ],
      "stateMutability": "view",
      "type": "function"
    },
    {
      "inputs": [
        {
          "internalType": "uint256",
          "name": "_templateId",
          "type": "uint256"
        }
      ],
      "name": "removeTemplate",
      "outputs": [],
      "stateMutability": "nonpayable",
      "type": "function"
    },
    {
      "inputs": [
        {
          "internalType": "address",
          "name": "",
          "type": "address"
        }
      ],
      "name": "templateVerified",
      "outputs": [
        {
          "internalType": "bool",
          "name": "",
          "type": "bool"
        }
      ],
      "stateMutability": "view",
      "type": "function"
    },
    {
      "inputs": [],
      "name": "toggleAllowPublicTemplates",
      "outputs": [],
      "stateMutability": "nonpayable",
      "type": "function"
    },
    {
      "inputs": [
        {
          "internalType": "address",
          "name": "_template",
          "type": "address"
        },
        {
          "internalType": "string",
          "name": "_newMetadataContentHash",
          "type": "string"
        }
      ],
      "name": "updateTemplateMetadataContentHash",
      "outputs": [],
      "stateMutability": "nonpayable",
      "type": "function"
    },
    {
      "inputs": [
        {
          "internalType": "uint256",
          "name": "_templateId",
          "type": "uint256"
        }
      ],
      "name": "verifyTemplate",
      "outputs": [],
      "stateMutability": "nonpayable",
      "type": "function"
    }
  ],
  "transactionHash": "0x48b80a22a231a223a58fda4db624904cad4a3e144c180ff5f9c1ebec26a7063e",
  "args": [
    "0x0f1997E82cd484a54551b54009DdcE39deaE973f",
    "0x50f0F32c7E3A5Fe68124086436af3fA73AA69030"
  ],
  "solcInputHash": "4ba04ba33406321bbdb01a0b9dd39a0d",
  "bytecode": "0x608060405234801561001057600080fd5b506040516112bf3803806112bf8339818101604052604081101561003357600080fd5b508051602090910151600580546001600160a01b0319166001600160a01b03938416179055600680546001600160a81b031916929091169190911790556112408061007f6000396000f3fe6080604052600436106100c25760003560e01c80633c601dac1161007f578063c04d0ab711610059578063c04d0ab7146103de578063c45a015514610408578063d335ebda1461041d578063f401038914610450576100c2565b80633c601dac1461024757806355b30266146102d45780638c2d1b3d1461030c576100c2565b806304ef0c6d146100c757806305898668146100f05780632bfc9581146101ab57806331543cf4146101c257806332cf5cb61461020857806333333f611461021d575b600080fd5b3480156100d357600080fd5b506100dc610483565b604080519115158252519081900360200190f35b3480156100fc57600080fd5b506101236004803603602081101561011357600080fd5b50356001600160a01b0316610493565b60405180836001600160a01b0316815260200180602001828103825283818151815260200191508051906020019080838360005b8381101561016f578181015183820152602001610157565b50505050905090810190601f16801561019c5780820380516001836020036101000a031916815260200191505b50935050505060405180910390f35b3480156101b757600080fd5b506101c0610547565b005b3480156101ce57600080fd5b506101ec600480360360208110156101e557600080fd5b503561066a565b604080516001600160a01b039092168252519081900360200190f35b34801561021457600080fd5b506101ec610685565b34801561022957600080fd5b506101c06004803603602081101561024057600080fd5b5035610694565b34801561025357600080fd5b506101c06004803603604081101561026a57600080fd5b6001600160a01b03823516919081019060408101602082013564010000000081111561029557600080fd5b8201836020820111156102a757600080fd5b803590602001918460018302840111640100000000831117156102c957600080fd5b5090925090506107c7565b6102fa600480360360208110156102ea57600080fd5b50356001600160a01b03166108c3565b60408051918252519081900360200190f35b6101ec6004803603608081101561032257600080fd5b8135919081019060408101602082013564010000000081111561034457600080fd5b82018360208201111561035657600080fd5b8035906020019184600183028401116401000000008311171561037857600080fd5b91939092909160208101903564010000000081111561039657600080fd5b8201836020820111156103a857600080fd5b803590602001918460018302840111640100000000831117156103ca57600080fd5b9193509150356001600160a01b0316610b2b565b3480156103ea57600080fd5b506101c06004803603602081101561040157600080fd5b5035610e49565b34801561041457600080fd5b506101ec610f99565b34801561042957600080fd5b506102fa6004803603602081101561044057600080fd5b50356001600160a01b0316610fa8565b34801561045c57600080fd5b506100dc6004803603602081101561047357600080fd5b50356001600160a01b0316610fc3565b600654600160a01b900460ff1681565b6003602090815260009182526040918290208054600180830180548651600261010094831615949094026000190190911692909204601f81018690048602830186019096528582526001600160a01b0390921694929390929083018282801561053d5780601f106105125761010080835404028352916020019161053d565b820191906000526020600020905b81548152906001019060200180831161052057829003601f168201915b5050505050905082565b600560009054906101000a90046001600160a01b03166001600160a01b031663d4c33f2a6040518163ffffffff1660e01b815260040160206040518083038186803b15801561059557600080fd5b505afa1580156105a9573d6000803e3d6000fd5b505050506040513d60208110156105bf57600080fd5b50516001600160a01b0316331461060b576040805162461bcd60e51b815260206004820152601b602482015260008051602061117e833981519152604482015290519081900360640190fd5b6006805460ff600160a01b808304821615810260ff60a01b1990931692909217928390556040805192909304161515815290517f376fcb3356700c7f31d9f2c095ec0161bd445c0ded9328d390eac77c32566b079181900360200190a1565b6000908152602081905260409020546001600160a01b031690565b6006546001600160a01b031681565b600560009054906101000a90046001600160a01b03166001600160a01b031663d4c33f2a6040518163ffffffff1660e01b815260040160206040518083038186803b1580156106e257600080fd5b505afa1580156106f6573d6000803e3d6000fd5b505050506040513d602081101561070c57600080fd5b50516001600160a01b03163314610758576040805162461bcd60e51b815260206004820152601b602482015260008051602061117e833981519152604482015290519081900360640190fd5b60008181526020818152604080832080546001600160a01b03908116855260028452828520805460ff1916600117905585855293835254815185815291519316927f79367dfe846d6f38a936c6079e3c3ac5f8024e05df27596fe98e5c70893ab31c929181900390910190a250565b6001600160a01b038381166000908152600360205260409020548491163314610825576040805162461bcd60e51b815260206004820152601b602482015260008051602061117e833981519152604482015290519081900360640190fd5b6001600160a01b038416600090815260036020526040902061084b906001018484611051565b507fcd2a7cbac12f34a94dce6a6fe5d5c7a54220caaf9a098a68fdf6bbe5ab63a72384848460405180846001600160a01b03168152602001806020018281038252848482818152602001925080828437600083820152604051601f909101601f1916909201829003965090945050505050a150505050565b600654600090600160a01b900460ff168061095f5750600560009054906101000a90046001600160a01b03166001600160a01b031663d4c33f2a6040518163ffffffff1660e01b815260040160206040518083038186803b15801561092757600080fd5b505afa15801561093b573d6000803e3d6000fd5b505050506040513d602081101561095157600080fd5b50516001600160a01b031633145b61099e576040805162461bcd60e51b815260206004820152601b602482015260008051602061117e833981519152604482015290519081900360640190fd5b600560009054906101000a90046001600160a01b03166001600160a01b031663407e9fd16040518163ffffffff1660e01b815260040160206040518083038186803b1580156109ec57600080fd5b505afa158015610a00573d6000803e3d6000fd5b505050506040513d6020811015610a1657600080fd5b5051341015610a565760405162461bcd60e51b815260040180806020018281038252602b815260200180611153602b913960400191505060405180910390fd5b6001600160a01b03821660009081526001602052604090205415610aab5760405162461bcd60e51b81526004018080602001828103825260248152602001806111c56024913960400191505060405180910390fd5b60048054600180820180845560009081526020818152604080832080546001600160a01b0319166001600160a01b038a16908117909155955486845293825291829020839055815192835290519293927f70300ab95e22eebeda3bb99011e4ddcd4e3012b97e60bf47c6f4d547dbb8d47a9281900390910190a292915050565b6005546000906001600160a01b03163314610b7b576040805162461bcd60e51b815260206004820152601b602482015260008051602061117e833981519152604482015290519081900360640190fd5b600560009054906101000a90046001600160a01b03166001600160a01b031663178021e36040518163ffffffff1660e01b815260040160206040518083038186803b158015610bc957600080fd5b505afa158015610bdd573d6000803e3d6000fd5b505050506040513d6020811015610bf357600080fd5b5051341015610c335760405162461bcd60e51b815260040180806020018281038252602781526020018061119e6027913960400191505060405180910390fd5b6000878152602081905260409020546001600160a01b0316610c865760405162461bcd60e51b81526004018080602001828103825260228152602001806111e96022913960400191505060405180910390fd5b610c8f87610fd8565b90506040518060400160405280836001600160a01b0316815260200185858080601f01602080910402602001604051908101604052809392919081815260200183838082843760009201829052509390945250506001600160a01b038481168252600360209081526040909220845181546001600160a01b0319169216919091178155838201518051919350610d2c9260018501929101906110cf565b50905050806001600160a01b03167f64d2cc41c8e22a100fb524e6ae6ad859f47b26d0cda363047b17a632565352908884878760405180858152602001846001600160a01b03168152602001806020018281038252848482818152602001925080828437600083820152604051601f909101601f191690920182900397509095505050505050a2604051631377d1f560e21b8152602060048201908152602482018790526001600160a01b03831691634ddf47d49189918991908190604401848480828437600081840152601f19601f8201169050808301925050509350505050600060405180830381600087803b158015610e2757600080fd5b505af1158015610e3b573d6000803e3d6000fd5b505050509695505050505050565b600560009054906101000a90046001600160a01b03166001600160a01b031663d4c33f2a6040518163ffffffff1660e01b815260040160206040518083038186803b158015610e9757600080fd5b505afa158015610eab573d6000803e3d6000fd5b505050506040513d6020811015610ec157600080fd5b50516001600160a01b03163314610f0d576040805162461bcd60e51b815260206004820152601b602482015260008051602061117e833981519152604482015290519081900360640190fd5b6000818152602081905260409020546001600160a01b0316610f2e57600080fd5b60008181526020818152604080832080546001600160a01b031981169091556001600160a01b031680845260018352818420939093558051848152905183927f1891c760fe30a9bb6dc65c4f84a54ab625073606e21e0c4d81b1ea63582aa938928290030190a25050565b6005546001600160a01b031681565b6001600160a01b031660009081526001602052604090205490565b60026020526000908152604090205460ff1681565b600081815260208190526040812054610ff9906001600160a01b0316610fff565b92915050565b6000808260601b9050604051733d602d80600a3d3981f3363d3d373d3d3d363d7360601b81528160148201526e5af43d82803e903d91602b57fd5bf360881b60288201526037816000f0949350505050565b828054600181600116156101000203166002900490600052602060002090601f016020900481019282601f106110925782800160ff198235161785556110bf565b828001600101855582156110bf579182015b828111156110bf5782358255916020019190600101906110a4565b506110cb92915061113d565b5090565b828054600181600116156101000203166002900490600052602060002090601f016020900481019282601f1061111057805160ff19168380011785556110bf565b828001600101855582156110bf579182015b828111156110bf578251825591602001919060010190611122565b5b808211156110cb576000815560010161113e56fe54656d706c6174654c61756e636865723a2054454d504c4154455f4645455f4e4f545f50524f564944454454656d706c6174654c61756e636865723a20464f5242494444454e000000000054656d706c6174654c61756e636865723a2053414c455f4645455f4e4f545f50524f564944454454656d706c6174654c61756e636865723a2054454d504c4154455f4455504c494341544554656d706c6174654c61756e636865723a20494e56414c49445f54454d504c415445a26469706673582212204498c6b242d42a10dcb7337c85bbfd17ac936a77ce70a5b4bd147c517fc2b46464736f6c634300060c0033",
  "devdoc": {
    "kind": "dev",
    "methods": {
      "addTemplate(address)": {
        "details": "allows to register a template by paying a fee",
        "params": {
          "_template": "address of template to be added"
        }
      },
      "launchTemplate(uint256,bytes,string,address)": {
        "details": "function to launch a template on Aqua, called from AquaFactory",
        "params": {
          "_data": "encoded template parameters",
          "_templateId": "template to be deployed"
        }
      },
      "removeTemplate(uint256)": {
        "details": "allows the templateManager to unregister a template",
        "params": {
          "_templateId": "template to be removed"
        }
      },
      "updateTemplateMetadataContentHash(address,string)": {
        "details": "allows the template deployer to update the template metadataContentHash",
        "params": {
          "_newMetadataContentHash": "ipfs hash to be set",
          "_template": "launched template to be updated"
        }
      },
      "verifyTemplate(uint256)": {
        "details": "allows the templateManager to verify a template",
        "params": {
          "_templateId": "template to be verified"
        }
      }
    },
    "version": 1
  },
  "userdoc": {
    "kind": "user",
    "methods": {},
    "version": 1
  },
  "storageLayout": {
    "storage": [
      {
        "astId": 6794,
        "contract": "contracts/templates/TemplateLauncher.sol:TemplateLauncher",
        "label": "template",
        "offset": 0,
        "slot": "0",
        "type": "t_mapping(t_uint256,t_address)"
      },
      {
        "astId": 6798,
        "contract": "contracts/templates/TemplateLauncher.sol:TemplateLauncher",
        "label": "templateToId",
        "offset": 0,
        "slot": "1",
        "type": "t_mapping(t_address,t_uint256)"
      },
      {
        "astId": 6802,
        "contract": "contracts/templates/TemplateLauncher.sol:TemplateLauncher",
        "label": "templateVerified",
        "offset": 0,
        "slot": "2",
        "type": "t_mapping(t_address,t_bool)"
      },
      {
        "astId": 6811,
        "contract": "contracts/templates/TemplateLauncher.sol:TemplateLauncher",
        "label": "launchedTemplate",
        "offset": 0,
        "slot": "3",
        "type": "t_mapping(t_address,t_struct(TemplateData)6807_storage)"
      },
      {
        "astId": 6813,
        "contract": "contracts/templates/TemplateLauncher.sol:TemplateLauncher",
        "label": "templateCounter",
        "offset": 0,
        "slot": "4",
        "type": "t_uint256"
      },
      {
        "astId": 6815,
        "contract": "contracts/templates/TemplateLauncher.sol:TemplateLauncher",
        "label": "factory",
        "offset": 0,
        "slot": "5",
        "type": "t_address"
      },
      {
        "astId": 6817,
        "contract": "contracts/templates/TemplateLauncher.sol:TemplateLauncher",
        "label": "participantListLaucher",
        "offset": 0,
        "slot": "6",
        "type": "t_address"
      },
      {
        "astId": 6819,
        "contract": "contracts/templates/TemplateLauncher.sol:TemplateLauncher",
        "label": "allowPublicTemplates",
        "offset": 20,
        "slot": "6",
        "type": "t_bool"
      }
    ],
    "types": {
      "t_address": {
        "encoding": "inplace",
        "label": "address",
        "numberOfBytes": "20"
      },
      "t_bool": {
        "encoding": "inplace",
        "label": "bool",
        "numberOfBytes": "1"
      },
      "t_mapping(t_address,t_bool)": {
        "encoding": "mapping",
        "key": "t_address",
        "label": "mapping(address => bool)",
        "numberOfBytes": "32",
        "value": "t_bool"
      },
      "t_mapping(t_address,t_struct(TemplateData)6807_storage)": {
        "encoding": "mapping",
        "key": "t_address",
        "label": "mapping(address => struct TemplateLauncher.TemplateData)",
        "numberOfBytes": "32",
        "value": "t_struct(TemplateData)6807_storage"
      },
      "t_mapping(t_address,t_uint256)": {
        "encoding": "mapping",
        "key": "t_address",
        "label": "mapping(address => uint256)",
        "numberOfBytes": "32",
        "value": "t_uint256"
      },
      "t_mapping(t_uint256,t_address)": {
        "encoding": "mapping",
        "key": "t_uint256",
        "label": "mapping(uint256 => address)",
        "numberOfBytes": "32",
        "value": "t_address"
      },
      "t_string_storage": {
        "encoding": "bytes",
        "label": "string",
        "numberOfBytes": "32"
      },
      "t_struct(TemplateData)6807_storage": {
        "encoding": "inplace",
        "label": "struct TemplateLauncher.TemplateData",
        "members": [
          {
            "astId": 6804,
            "contract": "contracts/templates/TemplateLauncher.sol:TemplateLauncher",
            "label": "deployer",
            "offset": 0,
            "slot": "0",
            "type": "t_address"
          },
          {
            "astId": 6806,
            "contract": "contracts/templates/TemplateLauncher.sol:TemplateLauncher",
            "label": "metadataContentHash",
            "offset": 0,
            "slot": "1",
            "type": "t_string_storage"
          }
        ],
        "numberOfBytes": "64"
      },
      "t_uint256": {
        "encoding": "inplace",
        "label": "uint256",
        "numberOfBytes": "32"
      }
    }
  }
}