{
  "address": "0x206Cc2208f018a652112Db74CD921A540deB9180",
  "abi": [
    {
      "inputs": [
        {
          "internalType": "address",
          "name": "_factory",
          "type": "address"
        },
        {
          "internalType": "address",
          "name": "_participantListLaucher",
          "type": "address"
        }
      ],
      "stateMutability": "nonpayable",
      "type": "constructor"
    },
    {
      "anonymous": false,
      "inputs": [
        {
          "indexed": false,
          "internalType": "bool",
          "name": "allowPublicTemplates",
          "type": "bool"
        }
      ],
      "name": "AllowPublicTemplatesUpdated",
      "type": "event"
    },
    {
      "anonymous": false,
      "inputs": [
        {
          "indexed": true,
          "internalType": "address",
          "name": "template",
          "type": "address"
        },
        {
          "indexed": false,
          "internalType": "uint256",
          "name": "templateId",
          "type": "uint256"
        }
      ],
      "name": "TemplateAdded",
      "type": "event"
    },
    {
      "anonymous": false,
      "inputs": [
        {
          "indexed": true,
          "internalType": "address",
          "name": "template",
          "type": "address"
        },
        {
          "indexed": false,
          "internalType": "uint256",
          "name": "templateId",
          "type": "uint256"
        },
        {
          "indexed": false,
          "internalType": "address",
          "name": "templateDeployer",
          "type": "address"
        },
        {
          "indexed": false,
          "internalType": "string",
          "name": "metadataContentHash",
          "type": "string"
        }
      ],
      "name": "TemplateLaunched",
      "type": "event"
    },
    {
      "anonymous": false,
      "inputs": [
        {
          "indexed": false,
          "internalType": "address",
          "name": "template",
          "type": "address"
        },
        {
          "indexed": false,
          "internalType": "string",
          "name": "newdetaDataContentHash",
          "type": "string"
        }
      ],
      "name": "TemplateMetadataContentHashUpdated",
      "type": "event"
    },
    {
      "anonymous": false,
      "inputs": [
        {
          "indexed": true,
          "internalType": "address",
          "name": "template",
          "type": "address"
        },
        {
          "indexed": false,
          "internalType": "uint256",
          "name": "templateId",
          "type": "uint256"
        }
      ],
      "name": "TemplateRemoved",
      "type": "event"
    },
    {
      "anonymous": false,
      "inputs": [
        {
          "indexed": true,
          "internalType": "address",
          "name": "template",
          "type": "address"
        },
        {
          "indexed": false,
          "internalType": "uint256",
          "name": "templateId",
          "type": "uint256"
        }
      ],
      "name": "TemplateVerified",
      "type": "event"
    },
    {
      "inputs": [
        {
          "internalType": "address",
          "name": "_template",
          "type": "address"
        }
      ],
      "name": "addTemplate",
      "outputs": [
        {
          "internalType": "uint256",
          "name": "",
          "type": "uint256"
        }
      ],
      "stateMutability": "payable",
      "type": "function"
    },
    {
      "inputs": [],
      "name": "allowPublicTemplates",
      "outputs": [
        {
          "internalType": "bool",
          "name": "",
          "type": "bool"
        }
      ],
      "stateMutability": "view",
      "type": "function"
    },
    {
      "inputs": [],
      "name": "factory",
      "outputs": [
        {
          "internalType": "address",
          "name": "",
          "type": "address"
        }
      ],
      "stateMutability": "view",
      "type": "function"
    },
    {
      "inputs": [
        {
          "internalType": "uint256",
          "name": "_templateId",
          "type": "uint256"
        }
      ],
      "name": "getTemplate",
      "outputs": [
        {
          "internalType": "address",
          "name": "",
          "type": "address"
        }
      ],
      "stateMutability": "view",
      "type": "function"
    },
    {
      "inputs": [
        {
          "internalType": "address",
          "name": "_template",
          "type": "address"
        }
      ],
      "name": "getTemplateId",
      "outputs": [
        {
          "internalType": "uint256",
          "name": "",
          "type": "uint256"
        }
      ],
      "stateMutability": "view",
      "type": "function"
    },
    {
      "inputs": [
        {
          "internalType": "uint256",
          "name": "_templateId",
          "type": "uint256"
        },
        {
          "internalType": "bytes",
          "name": "_data",
          "type": "bytes"
        },
        {
          "internalType": "string",
          "name": "_metadataContentHash",
          "type": "string"
        },
        {
          "internalType": "address",
          "name": "_templateDeployer",
          "type": "address"
        }
      ],
      "name": "launchTemplate",
      "outputs": [
        {
          "internalType": "address",
          "name": "newTemplate",
          "type": "address"
        }
      ],
      "stateMutability": "payable",
      "type": "function"
    },
    {
      "inputs": [
        {
          "internalType": "address",
          "name": "",
          "type": "address"
        }
      ],
      "name": "launchedTemplate",
      "outputs": [
        {
          "internalType": "address",
          "name": "deployer",
          "type": "address"
        },
        {
          "internalType": "string",
          "name": "metadataContentHash",
          "type": "string"
        }
      ],
      "stateMutability": "view",
      "type": "function"
    },
    {
      "inputs": [],
      "name": "participantListLaucher",
      "outputs": [
        {
          "internalType": "address",
          "name": "",
          "type": "address"
        }
      ],
      "stateMutability": "view",
      "type": "function"
    },
    {
      "inputs": [
        {
          "internalType": "uint256",
          "name": "_templateId",
          "type": "uint256"
        }
      ],
      "name": "removeTemplate",
      "outputs": [],
      "stateMutability": "nonpayable",
      "type": "function"
    },
    {
      "inputs": [
        {
          "internalType": "address",
          "name": "",
          "type": "address"
        }
      ],
      "name": "templateVerified",
      "outputs": [
        {
          "internalType": "bool",
          "name": "",
          "type": "bool"
        }
      ],
      "stateMutability": "view",
      "type": "function"
    },
    {
      "inputs": [],
      "name": "toggleAllowPublicTemplates",
      "outputs": [],
      "stateMutability": "nonpayable",
      "type": "function"
    },
    {
      "inputs": [
        {
          "internalType": "address",
          "name": "_template",
          "type": "address"
        },
        {
          "internalType": "string",
          "name": "_newMetadataContentHash",
          "type": "string"
        }
      ],
      "name": "updateTemplateMetadataContentHash",
      "outputs": [],
      "stateMutability": "nonpayable",
      "type": "function"
    },
    {
      "inputs": [
        {
          "internalType": "uint256",
          "name": "_templateId",
          "type": "uint256"
        }
      ],
      "name": "verifyTemplate",
      "outputs": [],
      "stateMutability": "nonpayable",
      "type": "function"
    }
  ],
  "transactionHash": "0xbe9d92287d933258565f940c94ac8c79f4ef1d2dca5a3d78ebefc2ecc70383b2",
  "args": [
    "0xc73B2aE66e1557Cc195342A4F4f8FF11A48B7027",
    "0x1A71BaD603dD1a09698Ee0c0C9224d49885304a3"
  ],
  "solcInputHash": "cb2c1241ce553a65027f1ae8d438d5f8",
  "bytecode": "0x608060405234801561001057600080fd5b506040516114ed3803806114ed8339818101604052604081101561003357600080fd5b508051602090910151600580546001600160a01b0319166001600160a01b03938416179055600680546001600160a81b0319169290911691909117905561146e8061007f6000396000f3fe6080604052600436106100c25760003560e01c80633c601dac1161007f578063c04d0ab711610059578063c04d0ab7146103de578063c45a015514610408578063d335ebda1461041d578063f401038914610450576100c2565b80633c601dac1461024757806355b30266146102d45780638c2d1b3d1461030c576100c2565b806304ef0c6d146100c757806305898668146100f05780632bfc9581146101ab57806331543cf4146101c257806332cf5cb61461020857806333333f611461021d575b600080fd5b3480156100d357600080fd5b506100dc610483565b604080519115158252519081900360200190f35b3480156100fc57600080fd5b506101236004803603602081101561011357600080fd5b50356001600160a01b0316610493565b60405180836001600160a01b0316815260200180602001828103825283818151815260200191508051906020019080838360005b8381101561016f578181015183820152602001610157565b50505050905090810190601f16801561019c5780820380516001836020036101000a031916815260200191505b50935050505060405180910390f35b3480156101b757600080fd5b506101c0610547565b005b3480156101ce57600080fd5b506101ec600480360360208110156101e557600080fd5b503561066a565b604080516001600160a01b039092168252519081900360200190f35b34801561021457600080fd5b506101ec610685565b34801561022957600080fd5b506101c06004803603602081101561024057600080fd5b5035610694565b34801561025357600080fd5b506101c06004803603604081101561026a57600080fd5b6001600160a01b03823516919081019060408101602082013564010000000081111561029557600080fd5b8201836020820111156102a757600080fd5b803590602001918460018302840111640100000000831117156102c957600080fd5b5090925090506107c7565b6102fa600480360360208110156102ea57600080fd5b50356001600160a01b03166108c3565b60408051918252519081900360200190f35b6101ec6004803603608081101561032257600080fd5b8135919081019060408101602082013564010000000081111561034457600080fd5b82018360208201111561035657600080fd5b8035906020019184600183028401116401000000008311171561037857600080fd5b91939092909160208101903564010000000081111561039657600080fd5b8201836020820111156103a857600080fd5b803590602001918460018302840111640100000000831117156103ca57600080fd5b9193509150356001600160a01b0316610b77565b3480156103ea57600080fd5b506101c06004803603602081101561040157600080fd5b5035610e95565b34801561041457600080fd5b506101ec610fe5565b34801561042957600080fd5b506102fa6004803603602081101561044057600080fd5b50356001600160a01b0316610ff4565b34801561045c57600080fd5b506100dc6004803603602081101561047357600080fd5b50356001600160a01b031661100f565b600654600160a01b900460ff1681565b6003602090815260009182526040918290208054600180830180548651600261010094831615949094026000190190911692909204601f81018690048602830186019096528582526001600160a01b0390921694929390929083018282801561053d5780601f106105125761010080835404028352916020019161053d565b820191906000526020600020905b81548152906001019060200180831161052057829003601f168201915b5050505050905082565b600560009054906101000a90046001600160a01b03166001600160a01b031663d4c33f2a6040518163ffffffff1660e01b815260040160206040518083038186803b15801561059557600080fd5b505afa1580156105a9573d6000803e3d6000fd5b505050506040513d60208110156105bf57600080fd5b50516001600160a01b0316331461060b576040805162461bcd60e51b815260206004820152601b602482015260008051602061137a833981519152604482015290519081900360640190fd5b6006805460ff600160a01b808304821615810260ff60a01b1990931692909217928390556040805192909304161515815290517f376fcb3356700c7f31d9f2c095ec0161bd445c0ded9328d390eac77c32566b079181900360200190a1565b6000908152602081905260409020546001600160a01b031690565b6006546001600160a01b031681565b600560009054906101000a90046001600160a01b03166001600160a01b031663d4c33f2a6040518163ffffffff1660e01b815260040160206040518083038186803b1580156106e257600080fd5b505afa1580156106f6573d6000803e3d6000fd5b505050506040513d602081101561070c57600080fd5b50516001600160a01b03163314610758576040805162461bcd60e51b815260206004820152601b602482015260008051602061137a833981519152604482015290519081900360640190fd5b60008181526020818152604080832080546001600160a01b03908116855260028452828520805460ff1916600117905585855293835254815185815291519316927f79367dfe846d6f38a936c6079e3c3ac5f8024e05df27596fe98e5c70893ab31c929181900390910190a250565b6001600160a01b038381166000908152600360205260409020548491163314610825576040805162461bcd60e51b815260206004820152601b602482015260008051602061137a833981519152604482015290519081900360640190fd5b6001600160a01b038416600090815260036020526040902061084b90600101848461124d565b507fcd2a7cbac12f34a94dce6a6fe5d5c7a54220caaf9a098a68fdf6bbe5ab63a72384848460405180846001600160a01b03168152602001806020018281038252848482818152602001925080828437600083820152604051601f909101601f1916909201829003965090945050505050a150505050565b600654600090600160a01b900460ff168061095f5750600560009054906101000a90046001600160a01b03166001600160a01b031663d4c33f2a6040518163ffffffff1660e01b815260040160206040518083038186803b15801561092757600080fd5b505afa15801561093b573d6000803e3d6000fd5b505050506040513d602081101561095157600080fd5b50516001600160a01b031633145b61099e576040805162461bcd60e51b815260206004820152601b602482015260008051602061137a833981519152604482015290519081900360640190fd5b6109af8263242c480560e01b611024565b6109ea5760405162461bcd60e51b81526004018080602001828103825260328152602001806113e56032913960400191505060405180910390fd5b600560009054906101000a90046001600160a01b03166001600160a01b031663407e9fd16040518163ffffffff1660e01b815260040160206040518083038186803b158015610a3857600080fd5b505afa158015610a4c573d6000803e3d6000fd5b505050506040513d6020811015610a6257600080fd5b5051341015610aa25760405162461bcd60e51b815260040180806020018281038252602b81526020018061134f602b913960400191505060405180910390fd5b6001600160a01b03821660009081526001602052604090205415610af75760405162461bcd60e51b81526004018080602001828103825260248152602001806113c16024913960400191505060405180910390fd5b60048054600180820180845560009081526020818152604080832080546001600160a01b0319166001600160a01b038a16908117909155955486845293825291829020839055815192835290519293927f70300ab95e22eebeda3bb99011e4ddcd4e3012b97e60bf47c6f4d547dbb8d47a9281900390910190a292915050565b6005546000906001600160a01b03163314610bc7576040805162461bcd60e51b815260206004820152601b602482015260008051602061137a833981519152604482015290519081900360640190fd5b600560009054906101000a90046001600160a01b03166001600160a01b031663178021e36040518163ffffffff1660e01b815260040160206040518083038186803b158015610c1557600080fd5b505afa158015610c29573d6000803e3d6000fd5b505050506040513d6020811015610c3f57600080fd5b5051341015610c7f5760405162461bcd60e51b815260040180806020018281038252602781526020018061139a6027913960400191505060405180910390fd5b6000878152602081905260409020546001600160a01b0316610cd25760405162461bcd60e51b81526004018080602001828103825260228152602001806114176022913960400191505060405180910390fd5b610cdb87611047565b90506040518060400160405280836001600160a01b0316815260200185858080601f01602080910402602001604051908101604052809392919081815260200183838082843760009201829052509390945250506001600160a01b038481168252600360209081526040909220845181546001600160a01b0319169216919091178155838201518051919350610d789260018501929101906112cb565b50905050806001600160a01b03167f64d2cc41c8e22a100fb524e6ae6ad859f47b26d0cda363047b17a632565352908884878760405180858152602001846001600160a01b03168152602001806020018281038252848482818152602001925080828437600083820152604051601f909101601f191690920182900397509095505050505050a2604051631377d1f560e21b8152602060048201908152602482018790526001600160a01b03831691634ddf47d49189918991908190604401848480828437600081840152601f19601f8201169050808301925050509350505050600060405180830381600087803b158015610e7357600080fd5b505af1158015610e87573d6000803e3d6000fd5b505050509695505050505050565b600560009054906101000a90046001600160a01b03166001600160a01b031663d4c33f2a6040518163ffffffff1660e01b815260040160206040518083038186803b158015610ee357600080fd5b505afa158015610ef7573d6000803e3d6000fd5b505050506040513d6020811015610f0d57600080fd5b50516001600160a01b03163314610f59576040805162461bcd60e51b815260206004820152601b602482015260008051602061137a833981519152604482015290519081900360640190fd5b6000818152602081905260409020546001600160a01b0316610f7a57600080fd5b60008181526020818152604080832080546001600160a01b031981169091556001600160a01b031680845260018352818420939093558051848152905183927f1891c760fe30a9bb6dc65c4f84a54ab625073606e21e0c4d81b1ea63582aa938928290030190a25050565b6005546001600160a01b031681565b6001600160a01b031660009081526001602052604090205490565b60026020526000908152604090205460ff1681565b600061102f8361106e565b8015611040575061104083836110a1565b9392505050565b600081815260208190526040812054611068906001600160a01b03166110c7565b92915050565b6000611081826301ffc9a760e01b6110a1565b8015611068575061109a826001600160e01b03196110a1565b1592915050565b60008060006110b08585611119565b915091508180156110be5750805b95945050505050565b6000808260601b9050604051733d602d80600a3d3981f3363d3d373d3d3d363d7360601b81528160148201526e5af43d82803e903d91602b57fd5bf360881b60288201526037816000f0949350505050565b604080516001600160e01b0319831660248083019190915282518083039091018152604490910182526020810180516001600160e01b03166301ffc9a760e01b1781529151815160009384939284926060926001600160a01b038a169261753092879282918083835b602083106111a15780518252601f199092019160209182019101611182565b6001836020036101000a0380198251168184511680821785525050505050509050019150506000604051808303818686fa925050503d8060008114611202576040519150601f19603f3d011682016040523d82523d6000602084013e611207565b606091505b50915091506020815110156112255760008094509450505050611246565b8181806020019051602081101561123b57600080fd5b505190955093505050505b9250929050565b828054600181600116156101000203166002900490600052602060002090601f016020900481019282601f1061128e5782800160ff198235161785556112bb565b828001600101855582156112bb579182015b828111156112bb5782358255916020019190600101906112a0565b506112c7929150611339565b5090565b828054600181600116156101000203166002900490600052602060002090601f016020900481019282601f1061130c57805160ff19168380011785556112bb565b828001600101855582156112bb579182015b828111156112bb57825182559160200191906001019061131e565b5b808211156112c7576000815560010161133a56fe54656d706c6174654c61756e636865723a2054454d504c4154455f4645455f4e4f545f50524f564944454454656d706c6174654c61756e636865723a20464f5242494444454e000000000054656d706c6174654c61756e636865723a2053414c455f4645455f4e4f545f50524f564944454454656d706c6174654c61756e636865723a2054454d504c4154455f4455504c494341544554656d706c6174654c61756e636865723a2054454d504c4154455f494e544552464143455f4e4f545f535550504f5254454454656d706c6174654c61756e636865723a20494e56414c49445f54454d504c415445a2646970667358221220ea0e8457dfe1bbe522164a6fbea5008f0af69ed7360902ef260c840af60b0a5264736f6c634300060c0033",
  "devdoc": {
    "kind": "dev",
    "methods": {
      "addTemplate(address)": {
        "details": "allows to register a template by paying a fee",
        "params": {
          "_template": "address of template to be added"
        }
      },
      "launchTemplate(uint256,bytes,string,address)": {
        "details": "function to launch a template on Aqua, called from AquaFactory",
        "params": {
          "_data": "encoded template parameters",
          "_templateId": "template to be deployed"
        }
      },
      "removeTemplate(uint256)": {
        "details": "allows the templateManager to unregister a template",
        "params": {
          "_templateId": "template to be removed"
        }
      },
      "updateTemplateMetadataContentHash(address,string)": {
        "details": "allows the template deployer to update the template metadataContentHash",
        "params": {
          "_newMetadataContentHash": "ipfs hash to be set",
          "_template": "launched template to be updated"
        }
      },
      "verifyTemplate(uint256)": {
        "details": "allows the templateManager to verify a template",
        "params": {
          "_templateId": "template to be verified"
        }
      }
    },
    "version": 1
  },
  "userdoc": {
    "kind": "user",
    "methods": {},
    "version": 1
  },
  "storageLayout": {
    "storage": [
      {
        "astId": 7118,
        "contract": "contracts/templates/TemplateLauncher.sol:TemplateLauncher",
        "label": "template",
        "offset": 0,
        "slot": "0",
        "type": "t_mapping(t_uint256,t_address)"
      },
      {
        "astId": 7122,
        "contract": "contracts/templates/TemplateLauncher.sol:TemplateLauncher",
        "label": "templateToId",
        "offset": 0,
        "slot": "1",
        "type": "t_mapping(t_address,t_uint256)"
      },
      {
        "astId": 7126,
        "contract": "contracts/templates/TemplateLauncher.sol:TemplateLauncher",
        "label": "templateVerified",
        "offset": 0,
        "slot": "2",
        "type": "t_mapping(t_address,t_bool)"
      },
      {
        "astId": 7135,
        "contract": "contracts/templates/TemplateLauncher.sol:TemplateLauncher",
        "label": "launchedTemplate",
        "offset": 0,
        "slot": "3",
        "type": "t_mapping(t_address,t_struct(TemplateData)7131_storage)"
      },
      {
        "astId": 7137,
        "contract": "contracts/templates/TemplateLauncher.sol:TemplateLauncher",
        "label": "templateCounter",
        "offset": 0,
        "slot": "4",
        "type": "t_uint256"
      },
      {
        "astId": 7139,
        "contract": "contracts/templates/TemplateLauncher.sol:TemplateLauncher",
        "label": "factory",
        "offset": 0,
        "slot": "5",
        "type": "t_address"
      },
      {
        "astId": 7141,
        "contract": "contracts/templates/TemplateLauncher.sol:TemplateLauncher",
        "label": "participantListLaucher",
        "offset": 0,
        "slot": "6",
        "type": "t_address"
      },
      {
        "astId": 7143,
        "contract": "contracts/templates/TemplateLauncher.sol:TemplateLauncher",
        "label": "allowPublicTemplates",
        "offset": 20,
        "slot": "6",
        "type": "t_bool"
      }
    ],
    "types": {
      "t_address": {
        "encoding": "inplace",
        "label": "address",
        "numberOfBytes": "20"
      },
      "t_bool": {
        "encoding": "inplace",
        "label": "bool",
        "numberOfBytes": "1"
      },
      "t_mapping(t_address,t_bool)": {
        "encoding": "mapping",
        "key": "t_address",
        "label": "mapping(address => bool)",
        "numberOfBytes": "32",
        "value": "t_bool"
      },
      "t_mapping(t_address,t_struct(TemplateData)7131_storage)": {
        "encoding": "mapping",
        "key": "t_address",
        "label": "mapping(address => struct TemplateLauncher.TemplateData)",
        "numberOfBytes": "32",
        "value": "t_struct(TemplateData)7131_storage"
      },
      "t_mapping(t_address,t_uint256)": {
        "encoding": "mapping",
        "key": "t_address",
        "label": "mapping(address => uint256)",
        "numberOfBytes": "32",
        "value": "t_uint256"
      },
      "t_mapping(t_uint256,t_address)": {
        "encoding": "mapping",
        "key": "t_uint256",
        "label": "mapping(uint256 => address)",
        "numberOfBytes": "32",
        "value": "t_address"
      },
      "t_string_storage": {
        "encoding": "bytes",
        "label": "string",
        "numberOfBytes": "32"
      },
      "t_struct(TemplateData)7131_storage": {
        "encoding": "inplace",
        "label": "struct TemplateLauncher.TemplateData",
        "members": [
          {
            "astId": 7128,
            "contract": "contracts/templates/TemplateLauncher.sol:TemplateLauncher",
            "label": "deployer",
            "offset": 0,
            "slot": "0",
            "type": "t_address"
          },
          {
            "astId": 7130,
            "contract": "contracts/templates/TemplateLauncher.sol:TemplateLauncher",
            "label": "metadataContentHash",
            "offset": 0,
            "slot": "1",
            "type": "t_string_storage"
          }
        ],
        "numberOfBytes": "64"
      },
      "t_uint256": {
        "encoding": "inplace",
        "label": "uint256",
        "numberOfBytes": "32"
      }
    }
  }
}