{
  "_format": "hh-sol-artifact-1",
  "contractName": "IterableOrderedOrderSetWrapper",
  "sourceName": "contracts/test/IterableOrderedOrderSetWrapper.sol",
  "abi": [
    {
      "inputs": [
        {
          "internalType": "bytes32",
          "name": "value",
          "type": "bytes32"
        }
      ],
      "name": "contains",
      "outputs": [
        {
          "internalType": "bool",
          "name": "",
          "type": "bool"
        }
      ],
      "stateMutability": "view",
      "type": "function"
    },
    {
      "inputs": [
        {
          "internalType": "bytes32",
          "name": "value",
          "type": "bytes32"
        }
      ],
      "name": "decodeOrder",
      "outputs": [
        {
          "internalType": "uint64",
          "name": "",
          "type": "uint64"
        },
        {
          "internalType": "uint96",
          "name": "",
          "type": "uint96"
        },
        {
          "internalType": "uint96",
          "name": "",
          "type": "uint96"
        }
      ],
      "stateMutability": "pure",
      "type": "function"
    },
    {
      "inputs": [
        {
          "internalType": "uint64",
          "name": "userId",
          "type": "uint64"
        },
        {
          "internalType": "uint96",
          "name": "sellAmount",
          "type": "uint96"
        },
        {
          "internalType": "uint96",
          "name": "buyAmount",
          "type": "uint96"
        }
      ],
      "name": "encodeOrder",
      "outputs": [
        {
          "internalType": "bytes32",
          "name": "",
          "type": "bytes32"
        }
      ],
      "stateMutability": "pure",
      "type": "function"
    },
    {
      "inputs": [],
      "name": "first",
      "outputs": [
        {
          "internalType": "bytes32",
          "name": "",
          "type": "bytes32"
        }
      ],
      "stateMutability": "view",
      "type": "function"
    },
    {
      "inputs": [],
      "name": "initializeEmptyList",
      "outputs": [],
      "stateMutability": "nonpayable",
      "type": "function"
    },
    {
      "inputs": [
        {
          "internalType": "bytes32",
          "name": "value",
          "type": "bytes32"
        }
      ],
      "name": "insert",
      "outputs": [
        {
          "internalType": "bool",
          "name": "",
          "type": "bool"
        }
      ],
      "stateMutability": "nonpayable",
      "type": "function"
    },
    {
      "inputs": [
        {
          "internalType": "bytes32",
          "name": "value",
          "type": "bytes32"
        },
        {
          "internalType": "bytes32",
          "name": "at",
          "type": "bytes32"
        },
        {
          "internalType": "bytes32",
          "name": "periodFromStart",
          "type": "bytes32"
        }
      ],
      "name": "insertAt",
      "outputs": [
        {
          "internalType": "bool",
          "name": "",
          "type": "bool"
        }
      ],
      "stateMutability": "nonpayable",
      "type": "function"
    },
    {
      "inputs": [],
      "name": "isEmpty",
      "outputs": [
        {
          "internalType": "bool",
          "name": "",
          "type": "bool"
        }
      ],
      "stateMutability": "view",
      "type": "function"
    },
    {
      "inputs": [
        {
          "internalType": "bytes32",
          "name": "value",
          "type": "bytes32"
        }
      ],
      "name": "next",
      "outputs": [
        {
          "internalType": "bytes32",
          "name": "",
          "type": "bytes32"
        }
      ],
      "stateMutability": "view",
      "type": "function"
    },
    {
      "inputs": [
        {
          "internalType": "bytes32",
          "name": "value",
          "type": "bytes32"
        }
      ],
      "name": "nextMap",
      "outputs": [
        {
          "internalType": "bytes32",
          "name": "",
          "type": "bytes32"
        }
      ],
      "stateMutability": "view",
      "type": "function"
    },
    {
      "inputs": [
        {
          "internalType": "bytes32",
          "name": "value",
          "type": "bytes32"
        }
      ],
      "name": "prevMap",
      "outputs": [
        {
          "internalType": "bytes32",
          "name": "",
          "type": "bytes32"
        }
      ],
      "stateMutability": "view",
      "type": "function"
    },
    {
      "inputs": [
        {
          "internalType": "bytes32",
          "name": "value",
          "type": "bytes32"
        }
      ],
      "name": "remove",
      "outputs": [
        {
          "internalType": "bool",
          "name": "",
          "type": "bool"
        }
      ],
      "stateMutability": "nonpayable",
      "type": "function"
    },
    {
      "inputs": [
        {
          "internalType": "bytes32",
          "name": "value",
          "type": "bytes32"
        }
      ],
      "name": "removeKeepHistory",
      "outputs": [
        {
          "internalType": "bool",
          "name": "",
          "type": "bool"
        }
      ],
      "stateMutability": "nonpayable",
      "type": "function"
    },
    {
      "inputs": [
        {
          "internalType": "bytes32",
          "name": "orderLeft",
          "type": "bytes32"
        },
        {
          "internalType": "bytes32",
          "name": "orderRight",
          "type": "bytes32"
        }
      ],
      "name": "smallerThan",
      "outputs": [
        {
          "internalType": "bool",
          "name": "",
          "type": "bool"
        }
      ],
      "stateMutability": "pure",
      "type": "function"
    }
  ],
  "bytecode": "0x608060405234801561001057600080fd5b50610a3c806100206000396000f3fe608060405234801561001057600080fd5b50600436106100ea5760003560e01c80636d5349ea1161008c578063b077006611610066578063b077006614610240578063cfbbb9db1461025d578063de853c4014610267578063e9f498dc146102b7576100ea565b80636d5349ea146101bc57806395bc2673146101fa578063a021c01f14610217576100ea565b80632d287e43116100c85780632d287e43146101725780632dd39d711461018f5780633df4ddf4146101ac578063681fe70c146101b4576100ea565b80630263eca8146100ef57806302d3af5b146101265780631d1a696d14610155575b600080fd5b6101126004803603604081101561010557600080fd5b50803590602001356102d4565b604080519115158252519081900360200190f35b6101436004803603602081101561013c57600080fd5b50356102e9565b60408051918252519081900360200190f35b6101126004803603602081101561016b57600080fd5b50356102f5565b6101126004803603602081101561018857600080fd5b5035610301565b610143600480360360208110156101a557600080fd5b5035610310565b610143610322565b610112610333565b610143600480360360608110156101d257600080fd5b5067ffffffffffffffff813516906001600160601b036020820135811691604001351661033f565b6101126004803603602081101561021057600080fd5b5035610354565b6101126004803603606081101561022d57600080fd5b5080359060208101359060400135610360565b6101126004803603602081101561025657600080fd5b503561036e565b61026561037a565b005b6102846004803603602081101561027d57600080fd5b5035610386565b6040805167ffffffffffffffff90941684526001600160601b039283166020850152911682820152519081900360600190f35b610143600480360360208110156102cd57600080fd5b50356103a1565b60006102e083836103b3565b90505b92915050565b60006102e381836104ec565b60006102e38183610580565b60006102e381836001826105a9565b60009081526020819052604090205490565b600061032e6000610778565b905090565b600061032e60006107d5565b600061034c8484846107f4565b949350505050565b60006102e3818361082c565b600061034c818585856105a9565b60006102e38183610858565b61038460006108b6565b565b6000806000610394846108e2565b9250925092509193909250565b60009081526001602052604090205490565b6000806000806103c2866108e2565b92509250925060008060006103d6886108e2565b919450925090506103f36001600160601b038084169086166108f1565b6104096001600160601b038781169084166108f1565b101561041e57600196505050505050506102e3565b6104346001600160601b038381169086166108f1565b61044a6001600160601b038781169084166108f1565b111561045f57600096505050505050506102e3565b8267ffffffffffffffff168667ffffffffffffffff1614156104b25760405162461bcd60e51b815260040180806020018281038252602d8152602001806109da602d913960400191505060405180910390fd5b8267ffffffffffffffff168667ffffffffffffffff1610156104dd57600196505050505050506102e3565b50600098975050505050505050565b60006002600160601b03198214156105355760405162461bcd60e51b815260040180806020018281038252602281526020018061096d6022913960400191505060405180910390fd5b600082815260208490526040902054806102e05760405162461bcd60e51b815260040180806020018281038252602a81526020018061098f602a913960400191505060405180910390fd5b60006001821415610593575060006102e3565b5060009081526020919091526040902054151590565b6000806105b5856108e2565b925050506001600160601b038116610614576040805162461bcd60e51b815260206004820152601f60248201527f496e73657274696e67207a65726f206973206e6f7420737570706f7274656400604482015290519081900360640190fd5b6001851480159061062d57506002600160601b03198514155b61067e576040805162461bcd60e51b815260206004820152601e60248201527f496e73657274696e6720656c656d656e74206973206e6f742076616c69640000604482015290519081900360640190fd5b6106888686610580565b1561069757600091505061034c565b600184148015906106b657506000848152600187016020526040902054155b156106c557600091505061034c565b6106cf84866103b3565b6106dd57600091505061034c565b5b60008481526020879052604090205461070957600093845260018601602052604090932054926106de565b6000845b60008181526020899052604090205490915061072981886103b3565b61070d576000828152602089815260408083208a90558383526001808c0183528184208b90558a8452818420959095558a82528083209390935560028a01905220849055915050949350505050565b6000610783826107d5565b156107bf5760405162461bcd60e51b815260040180806020018281038252602281526020018061094b6022913960400191505060405180910390fd5b5060016000908152602091909152604090205490565b6001600090815260209190915260409020546002600160601b03191490565b6001600160c01b031960c084901b166bffffffffffffffffffffffff60601b606084901b16016001600160601b038216019392505050565b6000806108398484610858565b905080156102e057600092835260019390930160205250604081205590565b60006108648383610580565b610870575060006102e3565b5060008181526001838101602081815260408085205487835281862080548288528388208190558752938352818620559484529083905560029094019093529081205590565b60016000818152602083815260408083206002600160601b031990819055835293830190529190912055565b60c081901c91606082901c9190565b600082610900575060006102e3565b8282028284828161090d57fe5b04146102e05760405162461bcd60e51b81526004018080602001828103825260218152602001806109b96021913960400191505060405180910390fdfe547279696e6720746f206765742066697273742066726f6d20656d70747920736574547279696e6720746f20676574206e657874206f66206c61737420656c656d656e74547279696e6720746f20676574206e657874206f66206e6f6e2d6578697374656e7420656c656d656e74536166654d6174683a206d756c7469706c69636174696f6e206f766572666c6f7775736572206973206e6f7420616c6c6f77656420746f20706c6163652073616d65206f72646572207477696365a2646970667358221220df46ee3671c79507f7e1beea5fb343599c0f409c87fb00c9b3a853721b41e3eb64736f6c634300060c0033",
  "linkReferences": {},
  "deployedLinkReferences": {}
}