{
  "_format": "hh-sol-artifact-1",
  "contractName": "EasyAuction",
  "sourceName": "contracts/auctions/EasyAuction.sol",
  "abi": [
    {
      "inputs": [],
      "stateMutability": "nonpayable",
      "type": "constructor"
    },
    {
      "anonymous": false,
      "inputs": [
        {
          "indexed": false,
          "internalType": "uint96",
          "name": "auctionedTokens",
          "type": "uint96"
        },
        {
          "indexed": false,
          "internalType": "uint96",
          "name": "soldBiddingTokens",
          "type": "uint96"
        },
        {
          "indexed": false,
          "internalType": "bytes32",
          "name": "clearingOrder",
          "type": "bytes32"
        }
      ],
      "name": "AuctionCleared",
      "type": "event"
    },
    {
      "anonymous": false,
      "inputs": [
        {
          "indexed": true,
          "internalType": "uint64",
          "name": "userId",
          "type": "uint64"
        },
        {
          "indexed": false,
          "internalType": "uint96",
          "name": "amountToBuy",
          "type": "uint96"
        },
        {
          "indexed": false,
          "internalType": "uint96",
          "name": "amountToBid",
          "type": "uint96"
        }
      ],
      "name": "CancellationOrder",
      "type": "event"
    },
    {
      "anonymous": false,
      "inputs": [
        {
          "indexed": true,
          "internalType": "uint64",
          "name": "userId",
          "type": "uint64"
        },
        {
          "indexed": false,
          "internalType": "uint96",
          "name": "amountToBuy",
          "type": "uint96"
        },
        {
          "indexed": false,
          "internalType": "uint96",
          "name": "amountToBid",
          "type": "uint96"
        }
      ],
      "name": "ClaimedFromOrder",
      "type": "event"
    },
    {
      "anonymous": false,
      "inputs": [
        {
          "indexed": true,
          "internalType": "contract IERC20",
          "name": "_auctioningToken",
          "type": "address"
        },
        {
          "indexed": true,
          "internalType": "contract IERC20",
          "name": "_biddingToken",
          "type": "address"
        },
        {
          "indexed": false,
          "internalType": "uint256",
          "name": "orderCancellationEndDate",
          "type": "uint256"
        },
        {
          "indexed": false,
          "internalType": "uint256",
          "name": "gracePeriodStartDate",
          "type": "uint256"
        },
        {
          "indexed": false,
          "internalType": "uint256",
          "name": "gracePeriodEndDate",
          "type": "uint256"
        },
        {
          "indexed": false,
          "internalType": "uint96",
          "name": "_amountToSell",
          "type": "uint96"
        },
        {
          "indexed": false,
          "internalType": "uint96",
          "name": "_minBidAmountToReceive",
          "type": "uint96"
        },
        {
          "indexed": false,
          "internalType": "uint256",
          "name": "minimumBiddingAmountPerOrder",
          "type": "uint256"
        },
        {
          "indexed": false,
          "internalType": "uint256",
          "name": "minFundingThreshold",
          "type": "uint256"
        }
      ],
      "name": "InitializedAuction",
      "type": "event"
    },
    {
      "anonymous": false,
      "inputs": [
        {
          "indexed": true,
          "internalType": "uint64",
          "name": "userId",
          "type": "uint64"
        },
        {
          "indexed": false,
          "internalType": "uint96",
          "name": "amountToBuy",
          "type": "uint96"
        },
        {
          "indexed": false,
          "internalType": "uint96",
          "name": "amountToBid",
          "type": "uint96"
        }
      ],
      "name": "NewOrder",
      "type": "event"
    },
    {
      "anonymous": false,
      "inputs": [
        {
          "indexed": true,
          "internalType": "uint64",
          "name": "userId",
          "type": "uint64"
        },
        {
          "indexed": true,
          "internalType": "address",
          "name": "userAddress",
          "type": "address"
        }
      ],
      "name": "NewUser",
      "type": "event"
    },
    {
      "anonymous": false,
      "inputs": [
        {
          "indexed": true,
          "internalType": "address",
          "name": "user",
          "type": "address"
        },
        {
          "indexed": false,
          "internalType": "uint64",
          "name": "userId",
          "type": "uint64"
        }
      ],
      "name": "UserRegistration",
      "type": "event"
    },
    {
      "inputs": [],
      "name": "FEE_DENOMINATOR",
      "outputs": [
        {
          "internalType": "uint256",
          "name": "",
          "type": "uint256"
        }
      ],
      "stateMutability": "view",
      "type": "function"
    },
    {
      "inputs": [],
      "name": "auctionEndDate",
      "outputs": [
        {
          "internalType": "uint256",
          "name": "",
          "type": "uint256"
        }
      ],
      "stateMutability": "view",
      "type": "function"
    },
    {
      "inputs": [],
      "name": "auctionStartedDate",
      "outputs": [
        {
          "internalType": "uint256",
          "name": "",
          "type": "uint256"
        }
      ],
      "stateMutability": "view",
      "type": "function"
    },
    {
      "inputs": [],
      "name": "auctioningToken",
      "outputs": [
        {
          "internalType": "contract IERC20",
          "name": "",
          "type": "address"
        }
      ],
      "stateMutability": "view",
      "type": "function"
    },
    {
      "inputs": [],
      "name": "biddingToken",
      "outputs": [
        {
          "internalType": "contract IERC20",
          "name": "",
          "type": "address"
        }
      ],
      "stateMutability": "view",
      "type": "function"
    },
    {
      "inputs": [
        {
          "internalType": "bytes32[]",
          "name": "_orders",
          "type": "bytes32[]"
        }
      ],
      "name": "cancelOrders",
      "outputs": [],
      "stateMutability": "nonpayable",
      "type": "function"
    },
    {
      "inputs": [
        {
          "internalType": "bytes32[]",
          "name": "_orders",
          "type": "bytes32[]"
        }
      ],
      "name": "claimFromParticipantOrder",
      "outputs": [
        {
          "internalType": "uint256",
          "name": "sumAuctioningTokenAmount",
          "type": "uint256"
        },
        {
          "internalType": "uint256",
          "name": "sumBiddingTokenAmount",
          "type": "uint256"
        }
      ],
      "stateMutability": "nonpayable",
      "type": "function"
    },
    {
      "inputs": [],
      "name": "clearingPriceOrder",
      "outputs": [
        {
          "internalType": "bytes32",
          "name": "",
          "type": "bytes32"
        }
      ],
      "stateMutability": "view",
      "type": "function"
    },
    {
      "inputs": [
        {
          "internalType": "bytes32",
          "name": "_order",
          "type": "bytes32"
        }
      ],
      "name": "containsOrder",
      "outputs": [
        {
          "internalType": "bool",
          "name": "",
          "type": "bool"
        }
      ],
      "stateMutability": "view",
      "type": "function"
    },
    {
      "inputs": [],
      "name": "feeNumerator",
      "outputs": [
        {
          "internalType": "uint256",
          "name": "",
          "type": "uint256"
        }
      ],
      "stateMutability": "view",
      "type": "function"
    },
    {
      "inputs": [],
      "name": "feeReceiverUserId",
      "outputs": [
        {
          "internalType": "uint64",
          "name": "",
          "type": "uint64"
        }
      ],
      "stateMutability": "view",
      "type": "function"
    },
    {
      "inputs": [],
      "name": "getSecondsRemainingInBatch",
      "outputs": [
        {
          "internalType": "uint256",
          "name": "",
          "type": "uint256"
        }
      ],
      "stateMutability": "view",
      "type": "function"
    },
    {
      "inputs": [
        {
          "internalType": "address",
          "name": "user",
          "type": "address"
        }
      ],
      "name": "getUserId",
      "outputs": [
        {
          "internalType": "uint64",
          "name": "userId",
          "type": "uint64"
        }
      ],
      "stateMutability": "nonpayable",
      "type": "function"
    },
    {
      "inputs": [],
      "name": "gracePeriodEndDate",
      "outputs": [
        {
          "internalType": "uint256",
          "name": "",
          "type": "uint256"
        }
      ],
      "stateMutability": "view",
      "type": "function"
    },
    {
      "inputs": [],
      "name": "gracePeriodStartDate",
      "outputs": [
        {
          "internalType": "uint256",
          "name": "",
          "type": "uint256"
        }
      ],
      "stateMutability": "view",
      "type": "function"
    },
    {
      "inputs": [
        {
          "internalType": "contract IERC20",
          "name": "_auctioningToken",
          "type": "address"
        },
        {
          "internalType": "contract IERC20",
          "name": "_biddingToken",
          "type": "address"
        },
        {
          "internalType": "uint256",
          "name": "_orderCancelationPeriodDuration",
          "type": "uint256"
        },
        {
          "internalType": "uint96",
          "name": "_amountToSell",
          "type": "uint96"
        },
        {
          "internalType": "uint96",
          "name": "_minBidAmountToReceive",
          "type": "uint96"
        },
        {
          "internalType": "uint256",
          "name": "_minimumBiddingAmountPerOrder",
          "type": "uint256"
        },
        {
          "internalType": "uint256",
          "name": "_minFundingThreshold",
          "type": "uint256"
        },
        {
          "internalType": "uint256",
          "name": "_gracePeriodStartDuration",
          "type": "uint256"
        },
        {
          "internalType": "uint256",
          "name": "_gracePeriodDuration",
          "type": "uint256"
        },
        {
          "internalType": "bool",
          "name": "_isAtomicClosureAllowed",
          "type": "bool"
        }
      ],
      "name": "initAuction",
      "outputs": [],
      "stateMutability": "nonpayable",
      "type": "function"
    },
    {
      "inputs": [],
      "name": "initialAuctionOrder",
      "outputs": [
        {
          "internalType": "bytes32",
          "name": "",
          "type": "bytes32"
        }
      ],
      "stateMutability": "view",
      "type": "function"
    },
    {
      "inputs": [],
      "name": "interimOrder",
      "outputs": [
        {
          "internalType": "bytes32",
          "name": "",
          "type": "bytes32"
        }
      ],
      "stateMutability": "view",
      "type": "function"
    },
    {
      "inputs": [],
      "name": "interimSumBidAmount",
      "outputs": [
        {
          "internalType": "uint256",
          "name": "",
          "type": "uint256"
        }
      ],
      "stateMutability": "view",
      "type": "function"
    },
    {
      "inputs": [],
      "name": "isAtomicClosureAllowed",
      "outputs": [
        {
          "internalType": "bool",
          "name": "",
          "type": "bool"
        }
      ],
      "stateMutability": "view",
      "type": "function"
    },
    {
      "inputs": [],
      "name": "minFundingThreshold",
      "outputs": [
        {
          "internalType": "uint256",
          "name": "",
          "type": "uint256"
        }
      ],
      "stateMutability": "view",
      "type": "function"
    },
    {
      "inputs": [],
      "name": "minFundingThresholdNotReached",
      "outputs": [
        {
          "internalType": "bool",
          "name": "",
          "type": "bool"
        }
      ],
      "stateMutability": "view",
      "type": "function"
    },
    {
      "inputs": [],
      "name": "minimumBiddingAmountPerOrder",
      "outputs": [
        {
          "internalType": "uint256",
          "name": "",
          "type": "uint256"
        }
      ],
      "stateMutability": "view",
      "type": "function"
    },
    {
      "inputs": [],
      "name": "numUsers",
      "outputs": [
        {
          "internalType": "uint64",
          "name": "",
          "type": "uint64"
        }
      ],
      "stateMutability": "view",
      "type": "function"
    },
    {
      "inputs": [],
      "name": "orderCancellationEndDate",
      "outputs": [
        {
          "internalType": "uint256",
          "name": "",
          "type": "uint256"
        }
      ],
      "stateMutability": "view",
      "type": "function"
    },
    {
      "inputs": [
        {
          "internalType": "uint96[]",
          "name": "_amountsToBuy",
          "type": "uint96[]"
        },
        {
          "internalType": "uint96[]",
          "name": "_amountsToBid",
          "type": "uint96[]"
        },
        {
          "internalType": "bytes32[]",
          "name": "_prevOrders",
          "type": "bytes32[]"
        }
      ],
      "name": "placeOrders",
      "outputs": [
        {
          "internalType": "uint64",
          "name": "userId",
          "type": "uint64"
        }
      ],
      "stateMutability": "nonpayable",
      "type": "function"
    },
    {
      "inputs": [
        {
          "internalType": "uint256",
          "name": "iterationSteps",
          "type": "uint256"
        }
      ],
      "name": "precalculateSellAmountSum",
      "outputs": [],
      "stateMutability": "nonpayable",
      "type": "function"
    },
    {
      "inputs": [
        {
          "internalType": "address",
          "name": "user",
          "type": "address"
        }
      ],
      "name": "registerUser",
      "outputs": [
        {
          "internalType": "uint64",
          "name": "userId",
          "type": "uint64"
        }
      ],
      "stateMutability": "nonpayable",
      "type": "function"
    },
    {
      "inputs": [
        {
          "internalType": "uint256",
          "name": "_auctionEndDate",
          "type": "uint256"
        }
      ],
      "name": "setAuctionEndDate",
      "outputs": [],
      "stateMutability": "nonpayable",
      "type": "function"
    },
    {
      "inputs": [],
      "name": "settleAuction",
      "outputs": [
        {
          "internalType": "bytes32",
          "name": "clearingOrder",
          "type": "bytes32"
        }
      ],
      "stateMutability": "nonpayable",
      "type": "function"
    },
    {
      "inputs": [
        {
          "internalType": "uint96[]",
          "name": "_amountsToBuy",
          "type": "uint96[]"
        },
        {
          "internalType": "uint96[]",
          "name": "_amountsToBid",
          "type": "uint96[]"
        },
        {
          "internalType": "bytes32[]",
          "name": "_prevOrder",
          "type": "bytes32[]"
        }
      ],
      "name": "settleAuctionAtomically",
      "outputs": [],
      "stateMutability": "nonpayable",
      "type": "function"
    },
    {
      "inputs": [],
      "name": "volumeClearingPriceOrder",
      "outputs": [
        {
          "internalType": "uint96",
          "name": "",
          "type": "uint96"
        }
      ],
      "stateMutability": "view",
      "type": "function"
    }
  ],
  "bytecode": "0x608060405260148054600160401b600160801b0319166801000000000000000017905534801561002e57600080fd5b5061309a8061003e6000396000f3fe608060405234801561001057600080fd5b50600436106101f05760003560e01c8063757a1d281161010f578063b90545ee116100a2578063de5f252e11610071578063de5f252e14610565578063e6470ba31461070a578063e86dea4a146108af578063f1e2fc4f146108b7576101f0565b8063b90545ee14610545578063d45e3f2f1461054d578063d4dda12f14610555578063d73792a91461055d576101f0565b80639d9f14c6116100de5780639d9f14c614610510578063a4d0a17e14610518578063a90c8c8d14610520578063b4a41c731461053d576101f0565b8063757a1d28146104db57806380d616a5146104e35780638eb54efa1461050057806392f987be14610508576101f0565b80633d827e051161018757806352b2cf4f1161015657806352b2cf4f146103ed5780635cefb291146104a75780635f2aee41146104af578063639d7566146104b7576101f0565b80633d827e051461034e578063422e6fa014610356578063459b72d51461037357806351c4c17c1461037b576101f0565b806321c77c96116101c357806321c77c9614610261578063257d33ff146103045780632b956ff71461030c57806338474ff514610332576101f0565b806317569c1d146101f557806319a50f491461020f5780631b14d926146102335780632199d5cd1461023b575b600080fd5b6101fd6108db565b60408051918252519081900360200190f35b610217610901565b604080516001600160401b039092168252519081900360200190f35b6101fd610910565b6102176004803603602081101561025157600080fd5b50356001600160a01b0316610916565b6103026004803603602081101561027757600080fd5b810190602081018135600160201b81111561029157600080fd5b8201836020820111156102a357600080fd5b803590602001918460208302840111600160201b831117156102c457600080fd5b919080806020026020016040519081016040528093929190818152602001838360200280828437600092019190915250929550610a0b945050505050565b005b6101fd610c80565b6102176004803603602081101561032257600080fd5b50356001600160a01b0316610c86565b61033a610cfb565b604080519115158252519081900360200190f35b6101fd610d0b565b61033a6004803603602081101561036c57600080fd5b5035610d11565b61033a610d24565b610302600480360361014081101561039257600080fd5b506001600160a01b0381358116916020810135909116906040810135906001600160601b03606082013581169160808101359091169060a08101359060c08101359060e0810135906101008101359061012001351515610d34565b61048e6004803603602081101561040357600080fd5b810190602081018135600160201b81111561041d57600080fd5b82018360208201111561042f57600080fd5b803590602001918460208302840111600160201b8311171561045057600080fd5b919080806020026020016040519081016040528093929190818152602001838360200280828437600092019190915250929550611062945050505050565b6040805192835260208301919091528051918290030190f35b61021761136f565b6101fd611385565b6104bf61138b565b604080516001600160a01b039092168252519081900360200190f35b6101fd61139a565b610302600480360360208110156104f957600080fd5b50356113a0565b6101fd61148a565b6101fd611490565b6101fd611496565b6101fd61149c565b6103026004803603602081101561053657600080fd5b50356117c1565b6101fd611977565b6101fd61197d565b6104bf611983565b6101fd611992565b6101fd611998565b6103026004803603606081101561057b57600080fd5b810190602081018135600160201b81111561059557600080fd5b8201836020820111156105a757600080fd5b803590602001918460208302840111600160201b831117156105c857600080fd5b9190808060200260200160405190810160405280939291908181526020018383602002808284376000920191909152509295949360208101935035915050600160201b81111561061757600080fd5b82018360208201111561062957600080fd5b803590602001918460208302840111600160201b8311171561064a57600080fd5b9190808060200260200160405190810160405280939291908181526020018383602002808284376000920191909152509295949360208101935035915050600160201b81111561069957600080fd5b8201836020820111156106ab57600080fd5b803590602001918460208302840111600160201b831117156106cc57600080fd5b91908080602002602001604051908101604052809392919081815260200183836020028082843760009201919091525092955061199e945050505050565b6102176004803603606081101561072057600080fd5b810190602081018135600160201b81111561073a57600080fd5b82018360208201111561074c57600080fd5b803590602001918460208302840111600160201b8311171561076d57600080fd5b9190808060200260200160405190810160405280939291908181526020018383602002808284376000920191909152509295949360208101935035915050600160201b8111156107bc57600080fd5b8201836020820111156107ce57600080fd5b803590602001918460208302840111600160201b831117156107ef57600080fd5b9190808060200260200160405190810160405280939291908181526020018383602002808284376000920191909152509295949360208101935035915050600160201b81111561083e57600080fd5b82018360208201111561085057600080fd5b803590602001918460208302840111600160201b8311171561087157600080fd5b919080806020026020016040519081016040528093929190818152602001838360200280828437600092019190915250929550611b48945050505050565b6101fd611b9f565b6108bf611ba5565b604080516001600160601b039092168252519081900360200190f35b600042600e54116108ee575060006108fe565b600e546108fb9042611bb4565b90505b90565b6014546001600160401b031681565b600e5481565b60145460009061093990610934906001600160401b03166001611c11565b611c6b565b6014805467ffffffffffffffff19166001600160401b039283161790819055610966916012911684611cb3565b6109b7576040805162461bcd60e51b815260206004820152601760248201527f5573657220616c72656164792072656769737465726564000000000000000000604482015290519081900360640190fd5b50601454604080516001600160401b03909216808352905190916001600160a01b038416917f6838f67cb358c332087b73dbe769a6c869a5f87225236c16dda5d0013a77074c9181900360200190a2919050565b600254421080610a1c575060045415155b610a575760405162461bcd60e51b8152600401808060200182810382526032815260200180612da96032913960400191505060405180910390fd5b6000610a6233610c86565b905060008060045460001415610a79576000610a93565b610a93610934600d54600454611bb490919063ffffffff16565b905060005b8451811015610c62576000610ad5600f6002016000888581518110610ab957fe5b6020026020010151815260200190815260200160002054611e2b565b50509050826001600160401b031660001480610b025750826001600160401b0316816001600160401b0316115b610b46576040805162461bcd60e51b815260206004820152601060248201526f155b98589b19481d1bc818d85b98d95b60821b604482015290519081900360640190fd5b6000610b6f878481518110610b5757fe5b6020026020010151600f611e3a90919063ffffffff16565b90508015610c58576000806000610b988a8781518110610b8b57fe5b6020026020010151611e2b565b925092509250886001600160401b0316836001600160401b031614610bee5760405162461bcd60e51b8152600401808060200182810382526023815260200180612d636023913960400191505060405180910390fd5b610c01886001600160601b038316611c11565b604080516001600160601b038086168252841660208201528151929a506001600160401b038c16927fa191df51d6448f39a95184fa8c95dd9f6463fa9ea030811f3ec8d30e4f530d72929181900390910190a25050505b5050600101610a98565b50600154610c7a906001600160a01b03163384611e98565b50505050565b60085481565b6000610c93601283611eef565b15610caa57610ca3601283611f19565b9050610cf6565b610cb382610916565b9050816001600160a01b0316816001600160401b03167f969d438b19b6b5fb3c0d3c6f16867e519fcec4233799d6be29d1c00f2045ba2660405160405180910390a35b919050565b600a54600160601b900460ff1681565b60045481565b6000610d1e600f83611fa3565b92915050565b600a54600160681b900460ff1681565b6000610d3f33610c86565b9050610d8e3330610d7c6103e8610d76610d66600b546103e8611c1190919063ffffffff16565b6001600160601b038f1690611fcc565b90612025565b6001600160a01b038f1692919061208c565b6000886001600160601b031611610dec576040805162461bcd60e51b815260206004820152601a60248201527f63616e6e6f742061756374696f6e207a65726f20746f6b656e73000000000000604482015290519081900360640190fd5b6000876001600160601b031611610e345760405162461bcd60e51b8152600401808060200182810382526023815260200180612d866023913960400191505060405180910390fd5b60008611610e735760405162461bcd60e51b8152600401808060200182810382526036815260200180612ea76036913960400191505060405180910390fd5b610e7d4285611c11565b600d819055610e8c9084611c11565b600e556000610e9b8585611c11565b9050808a1115610edc5760405162461bcd60e51b8152600401808060200182810382526029815260200180612ff06029913960400191505060405180910390fd5b610ee6600f6120e6565b600080546001600160a01b03808f166001600160a01b031992831617835560018054918f169190921617905542808c016002819055600391909155600491909155610f32838b8b612112565b600581905550876006819055506000600781905550600160001b6008819055506000801b6009819055506000600a60006101000a8154816001600160601b0302191690836001600160601b031602179055506000600a600c6101000a81548160ff02191690831515021790555083600a600d6101000a81548160ff02191690831515021790555086600c819055508b6001600160a01b03168d6001600160a01b03167fd44b17caacec213ddfc3723ae799449242941c81dbd8696f196ad01deee97356600254600d54600e548f8f8f8f60405180888152602001878152602001868152602001856001600160601b03168152602001846001600160601b0316815260200183815260200182815260200197505050505050505060405180910390a350505050505050505050505050565b60095460009081906110bb576040805162461bcd60e51b815260206004820152601860248201527f41756374696f6e206e6f74207965742066696e69736865640000000000000000604482015290519081900360640190fd5b60005b8351811015611147576110ee8482815181106110d657fe5b6020026020010151600f61214a90919063ffffffff16565b61113f576040805162461bcd60e51b815260206004820152601c60248201527f6f72646572206973206e6f206c6f6e67657220636c61696d61626c6500000000604482015290519081900360640190fd5b6001016110be565b50600080611156600954611e2b565b9250925050600061116d86600081518110610b8b57fe5b5050905060005b865181101561135b5760008060006111918a8581518110610b8b57fe5b925092509250846001600160401b0316836001600160401b0316146111e75760405162461bcd60e51b8152600401808060200182810382526023815260200180612f246023913960400191505060405180910390fd5b600a54600160601b900460ff16156112135761120c886001600160601b038316611c11565b9750611303565b6009548a858151811061122257fe5b6020026020010151141561128457600a5461125d90611256906001600160601b03808a1691610d7691908116908c16611fcc565b8a90611c11565b600a5490995061120c9061127d906001600160601b038481169116611bb4565b8990611c11565b6112ac6009548b868151811061129657fe5b602002602001015161217690919063ffffffff16565b156112ed576112e6611256876001600160601b0316610d768a6001600160601b0316856001600160601b0316611fcc90919063ffffffff16565b9850611303565b611300886001600160601b038316611c11565b97505b604080516001600160601b0380851682528316602082015281516001600160401b038816927ff75ff0412dab9132bc6907f911ff4b016eef8911771400efa692b1868162700f928290030190a2505050600101611174565b506113678585836122ab565b505050915091565b601454600160401b90046001600160401b031681565b60095481565b6001546001600160a01b031681565b60065481565b600454156113f5576040805162461bcd60e51b815260206004820152601c60248201527f61756374696f6e20656e64206461746520616c72656164792073657400000000604482015290519081900360640190fd5b600e544210156114365760405162461bcd60e51b8152600401808060200182810382526033815260200180612e746033913960400191505060405180910390fd5b600d54811015801561144a5750600e548111155b6114855760405162461bcd60e51b815260040180806020018281038252602b815260200180612f6f602b913960400191505060405180910390fd5b600455565b600c5481565b60055481565b600d5481565b60045460009080158015906114b15750600954155b6114ec5760405162461bcd60e51b8152600401808060200182810382526028815260200180612f476028913960400191505060405180910390fd5b5060008060006114fd600554611e2b565b600754600854600d54600454959850939650919450929091829160009182918891839161152e916109349190611bb4565b90505b61153c600f866122f4565b94506002600160601b0319851415611553576115de565b60008581526011602052604081205461156b90611e2b565b50509050816001600160401b0316816001600160401b0316111561158f57506115bb565b85965061159b87611e2b565b6001600160601b0391821697501694506115b790508885611c11565b9750505b6115ce6001600160601b038a1684611fcc565b6115d88886611fcc565b10611531575b60008711801561160957506115fc6001600160601b038a1684611fcc565b6116068886611fcc565b10155b156116b457600061163161162a86610d766001600160601b038e1688611fcc565b8990611bb4565b905080841061168b5760006116468583611bb4565b905061165181612388565b600a80546bffffffffffffffffffffffff19166001600160601b03929092169190911790556116808983611bb4565b9850879c50506116ae565b6116958885611bb4565b97506116ab60008b6116a68b612388565b612112565b9b505b5061171d565b876001600160601b03168711156116db576116d460008a6116a68a612388565b9a5061171d565b6116e760008a8a612112565b9a5061171a611715896001600160601b0316610d768c6001600160601b03168b611fcc90919063ffffffff16565b612388565b91505b60098b9055600c5487101561174057600a805460ff60601b1916600160601b1790555b611754826001600160601b03168b8b6123cc565b604080516001600160601b038085168252891660208201528082018d905290517f7fbd6633ec7ba81b40067a45fe5b8351c03e9e3765569f20247044ec4247b5319181900360600190a1505060006005819055600881905560078190556006555096979650505050505050565b60045480158015906117d35750600954155b61180e5760405162461bcd60e51b8152600401808060200182810382526028815260200180612f476028913960400191505060405180910390fd5b50600061181c600554611e2b565b50600754600854919350915060005b8481101561186f5761183e600f836122f4565b9150600061184b83611e2b565b925061186491508590506001600160601b038316611c11565b93505060010161182b565b506002600160601b03198114156118cd576040805162461bcd60e51b815260206004820152601960248201527f7265616368656420656e64206f66206f72646572206c69737400000000000000604482015290519081900360640190fd5b6000806118d983611e2b565b9250925050611903816001600160601b0316866001600160601b0316611fcc90919063ffffffff16565b611916856001600160601b038516611fcc565b10611968576040805162461bcd60e51b815260206004820152601960248201527f746f6f206d616e79206f72646572732073756d6d656420757000000000000000604482015290519081900360640190fd5b50506007919091556008555050565b60035481565b60025481565b6000546001600160a01b031681565b60075481565b6103e881565b60045480158015906119b05750600954155b6119eb5760405162461bcd60e51b8152600401808060200182810382526028815260200180612f476028913960400191505060405180910390fd5b50600a54600160681b900460ff16611a345760405162461bcd60e51b8152600401808060200182810382526028815260200180612d0a6028913960400191505060405180910390fd5b82516001148015611a46575081516001145b611a815760405162461bcd60e51b8152600401808060200182810382526027815260200180612e236027913960400191505060405180910390fd5b6000611a8c33610c86565b9050611acd611ac48286600081518110611aa257fe5b602002602001015186600081518110611ab757fe5b6020026020010151612112565b60085490612176565b611b085760405162461bcd60e51b8152600401808060200182810382526031815260200180612d326031913960400191505060405180910390fd5b611b138484846124f3565b506000611b278286600081518110611aa257fe5b6000818152601160205260408120559050611b4061149c565b505050505050565b6000600e544210611b8a5760405162461bcd60e51b81526004018080602001828103825260228152602001806130436022913960400191505060405180910390fd5b611b958484846124f3565b90505b9392505050565b600b5481565b600a546001600160601b031681565b600082821115611c0b576040805162461bcd60e51b815260206004820152601e60248201527f536166654d6174683a207375627472616374696f6e206f766572666c6f770000604482015290519081900360640190fd5b50900390565b600082820183811015611b98576040805162461bcd60e51b815260206004820152601b60248201527f536166654d6174683a206164646974696f6e206f766572666c6f770000000000604482015290519081900360640190fd5b6000600160401b8210611caf5760405162461bcd60e51b8152600401808060200182810382526026815260200180612efe6026913960400191505060405180910390fd5b5090565b60006001600160a01b038216611d10576040805162461bcd60e51b815260206004820152601a60248201527f43616e6e6f7420696e73657274207a65726f2061646472657373000000000000604482015290519081900360640190fd5b6001600160401b038381161415611d6e576040805162461bcd60e51b815260206004820152601860248201527f43616e6e6f7420696e73657274206d61782075696e7436340000000000000000604482015290519081900360640190fd5b6001600160a01b03821660009081526001850160205260409020546001600160401b0316151580611dc257506001600160401b0360018401166000908152602085905260409020546001600160a01b031615155b15611dcf57506000611b98565b5060019182016001600160401b031660008181526020858152604080832080546001600160a01b0319166001600160a01b039690961695861790559382529484019094529220805467ffffffffffffffff191690921790915590565b60c081901c91606082901c9190565b6000611e468383611fa3565b611e5257506000610d1e565b5060008181526001838101602081815260408085205487835281862080548288528388208190558752938352818620559484529083905560029094019093529081205590565b604080516001600160a01b038416602482015260448082018490528251808303909101815260649091019091526020810180516001600160e01b031663a9059cbb60e01b179052611eea90849061279d565b505050565b6001600160a01b0316600090815260019190910160205260409020546001600160401b0316151590565b6000611f258383611eef565b611f76576040805162461bcd60e51b815260206004820152601b60248201527f4d7573742068617665204164647265737320746f206765742049440000000000604482015290519081900360640190fd5b506001600160a01b0316600090815260019190910160205260409020546001600160401b03166000190190565b60006001821415611fb657506000610d1e565b5060009081526020919091526040902054151590565b600082611fdb57506000610d1e565b82820282848281611fe857fe5b0414611b985760405162461bcd60e51b8152600401808060200182810382526021815260200180612edd6021913960400191505060405180910390fd5b600080821161207b576040805162461bcd60e51b815260206004820152601a60248201527f536166654d6174683a206469766973696f6e206279207a65726f000000000000604482015290519081900360640190fd5b81838161208457fe5b049392505050565b604080516001600160a01b0380861660248301528416604482015260648082018490528251808303909101815260849091019091526020810180516001600160e01b03166323b872dd60e01b179052610c7a90859061279d565b60016000818152602083815260408083206002600160601b031990819055835293830190529190912055565b6001600160c01b031960c084901b166bffffffffffffffffffffffff60601b606084901b16016001600160601b038216019392505050565b6000806121578484611e3a565b90508015611b9857600092835260019390930160205250604081205590565b60008060008061218586611e2b565b925092509250600080600061219988611e2b565b919450925090506121b66001600160601b03808416908616611fcc565b6121cc6001600160601b03878116908416611fcc565b10156121e15760019650505050505050610d1e565b6121f76001600160601b03838116908616611fcc565b61220d6001600160601b03878116908416611fcc565b11156122225760009650505050505050610d1e565b826001600160401b0316866001600160401b031614156122735760405162461bcd60e51b815260040180806020018281038252602d815260200180612f9a602d913960400191505060405180910390fd5b826001600160401b0316866001600160401b0316101561229c5760019650505050505050610d1e565b50600098975050505050505050565b60006122b860128361284e565b905083156122d7576000546122d7906001600160a01b03168286611e98565b8215610c7a57600154610c7a906001600160a01b03168285611e98565b60006002600160601b031982141561233d5760405162461bcd60e51b8152600401808060200182810382526022815260200180612ddb6022913960400191505060405180910390fd5b60008281526020849052604090205480611b985760405162461bcd60e51b815260040180806020018281038252602a815260200180612e4a602a913960400191505060405180910390fd5b6000600160601b8210611caf5760405162461bcd60e51b8152600401808060200182810382526026815260200180612ce46026913960400191505060405180910390fd5b60006123f26103e8610d76600b54856001600160601b0316611fcc90919063ffffffff16565b600a54909150600160601b900460ff161561242a5761242561241d6001600160601b03841683611c11565b6000856122ab565b610c7a565b600080612438600954611e2b565b9093509150600090506124546001600160601b03861688611bb4565b905060006124796124726001600160601b038816610d768886611fcc565b8390611c11565b905060006124a6856001600160601b0316610d76866001600160601b03168c611fcc90919063ffffffff16565b90506124b382828a6122ab565b6124e86124cd6001600160601b038916610d76898d611fcc565b601454600090600160401b90046001600160401b03166122ab565b505050505050505050565b6000806000612503600554611e2b565b9250925050600061251333610c86565b600d549094506000904211156125495761254661253e610934600d5442611bb490919063ffffffff16565b600080612112565b90505b60005b88518110156127795761258d88828151811061256457fe5b60200260200101516001600160601b0316866001600160601b0316611fcc90919063ffffffff16565b6125c5856001600160601b03168b84815181106125a657fe5b60200260200101516001600160601b0316611fcc90919063ffffffff16565b106126015760405162461bcd60e51b8152600401808060200182810382526029815260200180612fc76029913960400191505060405180910390fd5b60065488828151811061261057fe5b60200260200101516001600160601b031611612665576040805162461bcd60e51b815260206004820152600f60248201526e1bdc99195c881d1bdbc81cdb585b1b608a1b604482015290519081900360640190fd5b60006126b561268e888c858151811061267a57fe5b60200260200101518c8681518110611ab757fe5b89848151811061269a57fe5b602002602001015185600f6128d4909392919063ffffffff16565b90508015612770576126ec8983815181106126cc57fe5b60200260200101516001600160601b031685611c1190919063ffffffff16565b9350866001600160401b03167f74df79be96152afe44c2a06a37046de4d335629601e2cf1b58c5346216a5d3d38b848151811061272557fe5b60200260200101518b858151811061273957fe5b602002602001015160405180836001600160601b03168152602001826001600160601b031681526020019250505060405180910390a25b5060010161254c565b50600154612792906001600160a01b031633308561208c565b505050509392505050565b60606127f2826040518060400160405280602081526020017f5361666545524332303a206c6f772d6c6576656c2063616c6c206661696c6564815250856001600160a01b0316612aa49092919063ffffffff16565b805190915015611eea5780806020019051602081101561281157600080fd5b5051611eea5760405162461bcd60e51b815260040180806020018281038252602a815260200180613019602a913960400191505060405180910390fd5b600061285a8383612ab3565b6128ab576040805162461bcd60e51b815260206004820152601b60248201527f4d757374206861766520494420746f2067657420416464726573730000000000604482015290519081900360640190fd5b506001016001600160401b0316600090815260209190915260409020546001600160a01b031690565b6000806128e085611e2b565b925050506001600160601b03811661293f576040805162461bcd60e51b815260206004820152601f60248201527f496e73657274696e67207a65726f206973206e6f7420737570706f7274656400604482015290519081900360640190fd5b6001851480159061295857506002600160601b03198514155b6129a9576040805162461bcd60e51b815260206004820152601e60248201527f496e73657274696e6720656c656d656e74206973206e6f742076616c69640000604482015290519081900360640190fd5b6129b38686611fa3565b156129c2576000915050612a9c565b600184148015906129e157506000848152600187016020526040902054155b156129f0576000915050612a9c565b6129fa8486612176565b612a08576000915050612a9c565b5b600084815260208790526040902054612a345760009384526001860160205260409093205492612a09565b6000845b600081815260208990526040902054909150612a548188612176565b612a38576000828152602089815260408083208a90558383526001808c0183528184208b90558a8452818420959095558a82528083209390935560028a019052208490559150505b949350505050565b6060611b958484600085612add565b6001016001600160401b0316600090815260209190915260409020546001600160a01b0316151590565b606082471015612b1e5760405162461bcd60e51b8152600401808060200182810382526026815260200180612dfd6026913960400191505060405180910390fd5b612b2785612c39565b612b78576040805162461bcd60e51b815260206004820152601d60248201527f416464726573733a2063616c6c20746f206e6f6e2d636f6e7472616374000000604482015290519081900360640190fd5b60006060866001600160a01b031685876040518082805190602001908083835b60208310612bb75780518252601f199092019160209182019101612b98565b6001836020036101000a03801982511681845116808217855250505050505090500191505060006040518083038185875af1925050503d8060008114612c19576040519150601f19603f3d011682016040523d82523d6000602084013e612c1e565b606091505b5091509150612c2e828286612c3f565b979650505050505050565b3b151590565b60608315612c4e575081611b98565b825115612c5e5782518084602001fd5b8160405162461bcd60e51b81526004018080602001828103825283818151815260200191508051906020019080838360005b83811015612ca8578181015183820152602001612c90565b50505050905090810190601f168015612cd55780820380516001836020036101000a031916815260200191505b509250505060405180910390fdfe53616665436173743a2076616c756520646f65736e27742066697420696e20393620626974736e6f7420616c6c6f77656420746f20736574746c652061756374696f6e2061746f6d6963616c6c7970726563616c63756c61746553656c6c416d6f756e7453756d20697320616c726561647920746f6f20616476616e6365644f6e6c792074686520757365722063616e2063616e63656c20686973206f7264657273746f6b656e732063616e6e6f742062652061756374696f6e656420666f7220667265656e6f206c6f6e67657220696e206f7264657220706c6163656d656e7420616e642063616e63656c6174696f6e207068617365547279696e6720746f20676574206e657874206f66206c61737420656c656d656e74416464726573733a20696e73756666696369656e742062616c616e636520666f722063616c6c4f6e6c79206f6e65206f726465722063616e20626520706c616365642061746f6d6963616c6c79547279696e6720746f20676574206e657874206f66206e6f6e2d6578697374656e7420656c656d656e7463616e6e6f74207365742061756374696f6e456e6444617465206265666f7265206772616365506572696f64456e64446174656d696e696d756d42696464696e67416d6f756e745065724f72646572206973206e6f7420616c6c6f77656420746f206265207a65726f536166654d6174683a206d756c7469706c69636174696f6e206f766572666c6f7753616665436173743a2076616c756520646f65736e27742066697420696e20363420626974736f6e6c7920616c6c6f77656420746f20636c61696d20666f722073616d65207573657241756374696f6e206e6f7420696e20736f6c7574696f6e207375626d697373696f6e20706861736561756374696f6e456e6444617465206d757374206265206265747765656e20677261636520706572696f6475736572206973206e6f7420616c6c6f77656420746f20706c6163652073616d65206f726465722074776963656c696d6974207072696365206e6f7420626574746572207468616e206d696d696d616c206f6666657274696d6520706572696f647320617265206e6f7420636f6e6669677572656420636f72726563746c795361666545524332303a204552433230206f7065726174696f6e20646964206e6f7420737563636565646e6f206c6f6e67657220696e206f7264657220706c6163656d656e74207068617365a2646970667358221220713872cd16403e0b8914f84aec7d53db9e25325d5867cd18570858cb2212fe6664736f6c634300060c0033",
  "linkReferences": {},
  "deployedLinkReferences": {}
}