{
  "_format": "hh-sol-artifact-1",
  "contractName": "TemplateLauncher",
  "sourceName": "contracts/templates/TemplateLauncher.sol",
  "abi": [
    {
      "inputs": [
        {
          "internalType": "address",
          "name": "_factory",
          "type": "address"
        }
      ],
      "stateMutability": "nonpayable",
      "type": "constructor"
    },
    {
      "anonymous": false,
      "inputs": [
        {
          "indexed": true,
          "internalType": "address",
          "name": "template",
          "type": "address"
        },
        {
          "indexed": false,
          "internalType": "uint256",
          "name": "templateId",
          "type": "uint256"
        }
      ],
      "name": "TemplateAdded",
      "type": "event"
    },
    {
      "anonymous": false,
      "inputs": [
        {
          "indexed": true,
          "internalType": "address",
          "name": "auction",
          "type": "address"
        },
        {
          "indexed": false,
          "internalType": "uint256",
          "name": "templateId",
          "type": "uint256"
        }
      ],
      "name": "TemplateLaunched",
      "type": "event"
    },
    {
      "anonymous": false,
      "inputs": [
        {
          "indexed": true,
          "internalType": "address",
          "name": "template",
          "type": "address"
        },
        {
          "indexed": false,
          "internalType": "uint256",
          "name": "templateId",
          "type": "uint256"
        }
      ],
      "name": "TemplateRemoved",
      "type": "event"
    },
    {
      "inputs": [
        {
          "internalType": "address",
          "name": "_template",
          "type": "address"
        }
      ],
      "name": "addTemplate",
      "outputs": [],
      "stateMutability": "nonpayable",
      "type": "function"
    },
    {
      "inputs": [],
      "name": "factory",
      "outputs": [
        {
          "internalType": "address",
          "name": "",
          "type": "address"
        }
      ],
      "stateMutability": "view",
      "type": "function"
    },
    {
      "inputs": [
        {
          "internalType": "uint256",
          "name": "_templateId",
          "type": "uint256"
        }
      ],
      "name": "getTemplate",
      "outputs": [
        {
          "internalType": "address",
          "name": "template",
          "type": "address"
        }
      ],
      "stateMutability": "view",
      "type": "function"
    },
    {
      "inputs": [
        {
          "internalType": "address",
          "name": "_template",
          "type": "address"
        }
      ],
      "name": "getTemplateId",
      "outputs": [
        {
          "internalType": "uint256",
          "name": "",
          "type": "uint256"
        }
      ],
      "stateMutability": "view",
      "type": "function"
    },
    {
      "inputs": [
        {
          "internalType": "uint256",
          "name": "_templateId",
          "type": "uint256"
        },
        {
          "internalType": "bytes",
          "name": "_data",
          "type": "bytes"
        }
      ],
      "name": "launchTemplate",
      "outputs": [
        {
          "internalType": "address",
          "name": "newAuction",
          "type": "address"
        }
      ],
      "stateMutability": "payable",
      "type": "function"
    },
    {
      "inputs": [
        {
          "internalType": "uint256",
          "name": "_templateId",
          "type": "uint256"
        }
      ],
      "name": "removeTemplate",
      "outputs": [],
      "stateMutability": "nonpayable",
      "type": "function"
    },
    {
      "inputs": [],
      "name": "templateId",
      "outputs": [
        {
          "internalType": "uint256",
          "name": "",
          "type": "uint256"
        }
      ],
      "stateMutability": "view",
      "type": "function"
    },
    {
      "inputs": [
        {
          "internalType": "address",
          "name": "",
          "type": "address"
        }
      ],
      "name": "templateInfo",
      "outputs": [
        {
          "internalType": "bool",
          "name": "exists",
          "type": "bool"
        },
        {
          "internalType": "uint64",
          "name": "templateId",
          "type": "uint64"
        },
        {
          "internalType": "uint128",
          "name": "index",
          "type": "uint128"
        }
      ],
      "stateMutability": "view",
      "type": "function"
    }
  ],
  "bytecode": "0x608060405234801561001057600080fd5b5060405161098d38038061098d8339818101604052602081101561003357600080fd5b5051600480546001600160a01b0319166001600160a01b0390921691909117905561092a806100636000396000f3fe60806040526004361061007b5760003560e01c80637aa77f291161004e5780637aa77f29146101d7578063c04d0ab7146101fe578063c45a015514610228578063d335ebda1461023d5761007b565b806331543cf41461008057806341a7ab1b146100c657806355b302661461013d5780636f71d73514610172575b600080fd5b34801561008c57600080fd5b506100aa600480360360208110156100a357600080fd5b5035610270565b604080516001600160a01b039092168252519081900360200190f35b6100aa600480360360408110156100dc57600080fd5b813591908101906040810160208201356401000000008111156100fe57600080fd5b82018360208201111561011057600080fd5b8035906020019184600183028401116401000000008311171561013257600080fd5b50909250905061028b565b34801561014957600080fd5b506101706004803603602081101561016057600080fd5b50356001600160a01b031661049c565b005b34801561017e57600080fd5b506101a56004803603602081101561019557600080fd5b50356001600160a01b0316610630565b60408051931515845267ffffffffffffffff90921660208401526001600160801b031682820152519081900360600190f35b3480156101e357600080fd5b506101ec61066d565b60408051918252519081900360200190f35b34801561020a57600080fd5b506101706004803603602081101561022157600080fd5b5035610673565b34801561023457600080fd5b506100aa6107c7565b34801561024957600080fd5b506101ec6004803603602081101561026057600080fd5b50356001600160a01b03166107d6565b6000908152600160205260409020546001600160a01b031690565b6004546000906001600160a01b031633146102e9576040805162461bcd60e51b815260206004820152601960248201527820bab1ba34b7b721b932b0ba37b91d102327a92124a22222a760391b604482015290519081900360640190fd5b60048054604080516314525b6b60e01b815290516001600160a01b03909216926314525b6b928282019260209290829003018186803b15801561032b57600080fd5b505afa15801561033f573d6000803e3d6000fd5b505050506040513d602081101561035557600080fd5b50513410156103955760405162461bcd60e51b81526004018080602001828103825260288152602001806108ab6028913960400191505060405180910390fd5b6000848152600160205260409020546001600160a01b03166103fe576040805162461bcd60e51b815260206004820181905260248201527f41756374696f6e43726561746f723a20494e56414c49445f54454d504c415445604482015290519081900360640190fd5b610407846107f1565b604051631377d1f560e21b8152602060048201908152602482018590529192506001600160a01b03831691634ddf47d491869186918190604401848480828437600081840152601f19601f8201169050808301925050509350505050600060405180830381600087803b15801561047d57600080fd5b505af1158015610491573d6000803e3d6000fd5b505050509392505050565b6004805460408051636a619f9560e11b815290516001600160a01b039092169263d4c33f2a928282019260209290829003018186803b1580156104de57600080fd5b505afa1580156104f2573d6000803e3d6000fd5b505050506040513d602081101561050857600080fd5b50516001600160a01b03163314610562576040805162461bcd60e51b815260206004820152601960248201527820bab1ba34b7b721b932b0ba37b91d102327a92124a22222a760391b604482015290519081900360640190fd5b6001600160a01b038116600090815260026020526040902054156105b75760405162461bcd60e51b81526004018080602001828103825260228152602001806108d36022913960400191505060405180910390fd5b60008054600190810180835582526020908152604080832080546001600160a01b0319166001600160a01b038616908117909155835481855260028452938290208490558151938452905190927f70300ab95e22eebeda3bb99011e4ddcd4e3012b97e60bf47c6f4d547dbb8d47a92908290030190a250565b60036020526000908152604090205460ff811690610100810467ffffffffffffffff1690690100000000000000000090046001600160801b031683565b60005481565b6004805460408051636a619f9560e11b815290516001600160a01b039092169263d4c33f2a928282019260209290829003018186803b1580156106b557600080fd5b505afa1580156106c9573d6000803e3d6000fd5b505050506040513d60208110156106df57600080fd5b50516001600160a01b03163314610739576040805162461bcd60e51b815260206004820152601960248201527820bab1ba34b7b721b932b0ba37b91d102327a92124a22222a760391b604482015290519081900360640190fd5b6000818152600160205260409020546001600160a01b031661075a57600080fd5b600081815260016020908152604080832080546001600160a01b031981169091556001600160a01b031680845260028352818420939093558051848152905183927f1891c760fe30a9bb6dc65c4f84a54ab625073606e21e0c4d81b1ea63582aa938928290030190a25050565b6004546001600160a01b031681565b6001600160a01b031660009081526002602052604090205490565b600081815260016020526040812054610812906001600160a01b0316610858565b6040805184815290519192506001600160a01b038316917fb4e0c04d31936037ef6d0ff42d7e7dbea22f4842fecb0702df62c79e70d918619181900360200190a2919050565b6000808260601b9050604051733d602d80600a3d3981f3363d3d373d3d3d363d7360601b81528160148201526e5af43d82803e903d91602b57fd5bf360881b60288201526037816000f094935050505056fe41756374696f6e43726561746f723a2041554354494f4e5f4645455f4e4f545f50524f564944454441756374696f6e43726561746f723a2054454d504c4154455f4455504c4943415445a26469706673582212207fa25d69f99801bcb16d067db788b17720a33ad34fa5f0a49773705ca6ea0c4964736f6c634300060c0033",
  "linkReferences": {},
  "deployedLinkReferences": {}
}