{
  "_format": "hh-sol-artifact-1",
  "contractName": "AuctionLauncher",
  "sourceName": "contracts/auctions/AuctionLauncher.sol",
  "abi": [
    {
      "inputs": [
        {
          "internalType": "address",
          "name": "_factory",
          "type": "address"
        }
      ],
      "stateMutability": "nonpayable",
      "type": "constructor"
    },
    {
      "anonymous": false,
      "inputs": [
        {
          "indexed": true,
          "internalType": "address",
          "name": "auction",
          "type": "address"
        },
        {
          "indexed": false,
          "internalType": "uint256",
          "name": "templateId",
          "type": "uint256"
        },
        {
          "indexed": false,
          "internalType": "bytes",
          "name": "data",
          "type": "bytes"
        }
      ],
      "name": "AuctionInitialized",
      "type": "event"
    },
    {
      "anonymous": false,
      "inputs": [
        {
          "indexed": true,
          "internalType": "address",
          "name": "auction",
          "type": "address"
        },
        {
          "indexed": false,
          "internalType": "uint256",
          "name": "templateId",
          "type": "uint256"
        }
      ],
      "name": "AuctionLaunched",
      "type": "event"
    },
    {
      "anonymous": false,
      "inputs": [
        {
          "indexed": true,
          "internalType": "address",
          "name": "template",
          "type": "address"
        },
        {
          "indexed": false,
          "internalType": "uint256",
          "name": "templateId",
          "type": "uint256"
        }
      ],
      "name": "TemplateAdded",
      "type": "event"
    },
    {
      "anonymous": false,
      "inputs": [
        {
          "indexed": true,
          "internalType": "address",
          "name": "template",
          "type": "address"
        },
        {
          "indexed": false,
          "internalType": "uint256",
          "name": "templateId",
          "type": "uint256"
        }
      ],
      "name": "TemplateRemoved",
      "type": "event"
    },
    {
      "inputs": [
        {
          "internalType": "address",
          "name": "_template",
          "type": "address"
        }
      ],
      "name": "addTemplate",
      "outputs": [
        {
          "internalType": "uint256",
          "name": "",
          "type": "uint256"
        }
      ],
      "stateMutability": "nonpayable",
      "type": "function"
    },
    {
      "inputs": [
        {
          "internalType": "address",
          "name": "",
          "type": "address"
        }
      ],
      "name": "auctionInfo",
      "outputs": [
        {
          "internalType": "bool",
          "name": "exists",
          "type": "bool"
        },
        {
          "internalType": "uint64",
          "name": "templateId",
          "type": "uint64"
        },
        {
          "internalType": "uint128",
          "name": "index",
          "type": "uint128"
        }
      ],
      "stateMutability": "view",
      "type": "function"
    },
    {
      "inputs": [],
      "name": "auctionTemplateId",
      "outputs": [
        {
          "internalType": "uint256",
          "name": "",
          "type": "uint256"
        }
      ],
      "stateMutability": "view",
      "type": "function"
    },
    {
      "inputs": [
        {
          "internalType": "uint256",
          "name": "",
          "type": "uint256"
        }
      ],
      "name": "auctions",
      "outputs": [
        {
          "internalType": "address",
          "name": "",
          "type": "address"
        }
      ],
      "stateMutability": "view",
      "type": "function"
    },
    {
      "inputs": [
        {
          "internalType": "uint256",
          "name": "_templateId",
          "type": "uint256"
        },
        {
          "internalType": "address",
          "name": "_token",
          "type": "address"
        },
        {
          "internalType": "uint256",
          "name": "_tokenSupply",
          "type": "uint256"
        },
        {
          "internalType": "bytes",
          "name": "_data",
          "type": "bytes"
        }
      ],
      "name": "createAuction",
      "outputs": [
        {
          "internalType": "address",
          "name": "newAuction",
          "type": "address"
        }
      ],
      "stateMutability": "payable",
      "type": "function"
    },
    {
      "inputs": [],
      "name": "factory",
      "outputs": [
        {
          "internalType": "address",
          "name": "",
          "type": "address"
        }
      ],
      "stateMutability": "view",
      "type": "function"
    },
    {
      "inputs": [
        {
          "internalType": "uint256",
          "name": "_tokenSupply",
          "type": "uint256"
        }
      ],
      "name": "getDepositAmountWithFees",
      "outputs": [
        {
          "internalType": "uint256",
          "name": "",
          "type": "uint256"
        }
      ],
      "stateMutability": "view",
      "type": "function"
    },
    {
      "inputs": [
        {
          "internalType": "uint256",
          "name": "_templateId",
          "type": "uint256"
        }
      ],
      "name": "getTemplate",
      "outputs": [
        {
          "internalType": "address",
          "name": "template",
          "type": "address"
        }
      ],
      "stateMutability": "view",
      "type": "function"
    },
    {
      "inputs": [
        {
          "internalType": "address",
          "name": "_template",
          "type": "address"
        }
      ],
      "name": "getTemplateId",
      "outputs": [
        {
          "internalType": "uint256",
          "name": "",
          "type": "uint256"
        }
      ],
      "stateMutability": "view",
      "type": "function"
    },
    {
      "inputs": [],
      "name": "numberOfAuctions",
      "outputs": [
        {
          "internalType": "uint256",
          "name": "",
          "type": "uint256"
        }
      ],
      "stateMutability": "view",
      "type": "function"
    },
    {
      "inputs": [
        {
          "internalType": "uint256",
          "name": "_templateId",
          "type": "uint256"
        }
      ],
      "name": "removeTemplate",
      "outputs": [],
      "stateMutability": "nonpayable",
      "type": "function"
    }
  ],
  "bytecode": "0x608060405234801561001057600080fd5b5060405161138d38038061138d8339818101604052602081101561003357600080fd5b5051600580546001600160a01b0319166001600160a01b0390921691909117905561132a806100636000396000f3fe60806040526004361061009c5760003560e01c80636c2eefe1116100645780636c2eefe1146101d0578063c04d0ab7146101e5578063c45a015514610211578063c9a871d014610226578063d335ebda146102b2578063e8c51ccc146102e55761009c565b80630448e51a146100a157806331543cf41461010657806350d9d4721461014c57806355b3026614610173578063571a26a0146101a6575b600080fd5b3480156100ad57600080fd5b506100d4600480360360208110156100c457600080fd5b50356001600160a01b031661030f565b60408051931515845267ffffffffffffffff90921660208401526001600160801b031682820152519081900360600190f35b34801561011257600080fd5b506101306004803603602081101561012957600080fd5b5035610346565b604080516001600160a01b039092168252519081900360200190f35b34801561015857600080fd5b50610161610361565b60408051918252519081900360200190f35b34801561017f57600080fd5b506101616004803603602081101561019657600080fd5b50356001600160a01b0316610367565b3480156101b257600080fd5b50610130600480360360208110156101c957600080fd5b5035610503565b3480156101dc57600080fd5b5061016161052a565b3480156101f157600080fd5b5061020f6004803603602081101561020857600080fd5b5035610530565b005b34801561021d57600080fd5b50610130610690565b6101306004803603608081101561023c57600080fd5b8135916001600160a01b03602082013516916040820135919081019060808101606082013564010000000081111561027357600080fd5b82018360208201111561028557600080fd5b803590602001918460018302840111640100000000831117156102a757600080fd5b50909250905061069f565b3480156102be57600080fd5b50610161600480360360208110156102d557600080fd5b50356001600160a01b03166109f7565b3480156102f157600080fd5b506101616004803603602081101561030857600080fd5b5035610a12565b60046020526000908152604090205460ff811690610100810467ffffffffffffffff1690600160481b90046001600160801b031683565b6000908152600260205260409020546001600160a01b031690565b60005490565b60055460408051636a619f9560e11b815290516000926001600160a01b03169163d4c33f2a916004808301926020929190829003018186803b1580156103ac57600080fd5b505afa1580156103c0573d6000803e3d6000fd5b505050506040513d60208110156103d657600080fd5b50516001600160a01b03163314610430576040805162461bcd60e51b815260206004820152601960248201527820bab1ba34b7b721b932b0ba37b91d102327a92124a22222a760391b604482015290519081900360640190fd5b6001600160a01b038216600090815260066020526040902054156104855760405162461bcd60e51b815260040180806020018281038252602281526020018061128e6022913960400191505060405180910390fd5b600180548101808255600090815260026020908152604080832080546001600160a01b0319166001600160a01b038816908117909155935484845260038352928190208390558051928352517f70300ab95e22eebeda3bb99011e4ddcd4e3012b97e60bf47c6f4d547dbb8d47a9281900390910190a2505060015490565b6000818154811061051057fe5b6000918252602090912001546001600160a01b0316905081565b60015481565b600560009054906101000a90046001600160a01b03166001600160a01b031663d4c33f2a6040518163ffffffff1660e01b815260040160206040518083038186803b15801561057e57600080fd5b505afa158015610592573d6000803e3d6000fd5b505050506040513d60208110156105a857600080fd5b50516001600160a01b03163314610602576040805162461bcd60e51b815260206004820152601960248201527820bab1ba34b7b721b932b0ba37b91d102327a92124a22222a760391b604482015290519081900360640190fd5b6000818152600260205260409020546001600160a01b031661062357600080fd5b600081815260026020908152604080832080546001600160a01b031981169091556001600160a01b031680845260068352818420939093558051848152905183927f1891c760fe30a9bb6dc65c4f84a54ab625073606e21e0c4d81b1ea63582aa938928290030190a25050565b6005546001600160a01b031681565b600554604080516314525b6b60e01b815290516000926001600160a01b0316916314525b6b916004808301926020929190829003018186803b1580156106e457600080fd5b505afa1580156106f8573d6000803e3d6000fd5b505050506040513d602081101561070e57600080fd5b505134101561074e5760405162461bcd60e51b81526004018080602001828103825260288152602001806112666028913960400191505060405180910390fd5b6000868152600260205260409020546001600160a01b03166107b7576040805162461bcd60e51b815260206004820181905260248201527f41756374696f6e43726561746f723a20494e56414c49445f54454d504c415445604482015290519081900360640190fd5b6107c086610b28565b9050831561097c5760055460408051630c0586bf60e11b815290516000926001600160a01b03169163180b0d7e916004808301926020929190829003018186803b15801561080d57600080fd5b505afa158015610821573d6000803e3d6000fd5b505050506040513d602081101561083757600080fd5b505160055460408051637436f52560e11b815290519293506000926001600160a01b039092169163e86dea4a91600480820192602092909190829003018186803b15801561088457600080fd5b505afa158015610898573d6000803e3d6000fd5b505050506040513d60208110156108ae57600080fd5b5051905060006108d2836108cc6108c58286610c69565b8a90610ccc565b90610d25565b90506108e088333084610d8c565b6108eb888589610ee9565b61097888600560009054906101000a90046001600160a01b03166001600160a01b031663017e7e586040518163ffffffff1660e01b815260040160206040518083038186803b15801561093d57600080fd5b505afa158015610951573d6000803e3d6000fd5b505050506040513d602081101561096757600080fd5b5051610973848b611053565b6110b0565b5050505b806001600160a01b03167f470fa9f25efc7707dd60dbf14bce1e2ea03d868bf110d4057a259ce94514356887858560405180848152602001806020018281038252848482818152602001925080828437600083820152604051601f909101601f1916909201829003965090945050505050a295945050505050565b6001600160a01b031660009081526006602052604090205490565b600080600560009054906101000a90046001600160a01b03166001600160a01b031663180b0d7e6040518163ffffffff1660e01b815260040160206040518083038186803b158015610a6357600080fd5b505afa158015610a77573d6000803e3d6000fd5b505050506040513d6020811015610a8d57600080fd5b505160055460408051637436f52560e11b815290519293506000926001600160a01b039092169163e86dea4a91600480820192602092909190829003018186803b158015610ada57600080fd5b505afa158015610aee573d6000803e3d6000fd5b505050506040513d6020811015610b0457600080fd5b50519050610b20826108cc610b198285610c69565b8790610ccc565b949350505050565b600081815260026020526040812054610b49906001600160a01b0316611213565b60408051606081018252600180825267ffffffffffffffff8681166020808501918252600080546001600160801b039081168789019081526001600160a01b038a1680845260048552898420985189549651925160ff199097169015151768ffffffffffffffff00191661010092909716919091029590951778ffffffffffffffffffffffffffffffff0000000000000000001916600160481b9490911693909302929092179094558054928301815580527f290decd9548b62a8d60345a988386fc84ba6bc95484008f6362f93160ef3e56390910180546001600160a01b0319168217905582518681529251939450927f77495396ab0af735d4ecd10bbfc9b72dcd8a0e2bf509c810d42d221bce33db809281900390910190a2919050565b600082820183811015610cc3576040805162461bcd60e51b815260206004820152601b60248201527f536166654d6174683a206164646974696f6e206f766572666c6f770000000000604482015290519081900360640190fd5b90505b92915050565b600082610cdb57506000610cc6565b82820282848281610ce857fe5b0414610cc35760405162461bcd60e51b81526004018080602001828103825260218152602001806112b06021913960400191505060405180910390fd5b6000808211610d7b576040805162461bcd60e51b815260206004820152601a60248201527f536166654d6174683a206469766973696f6e206279207a65726f000000000000604482015290519081900360640190fd5b818381610d8457fe5b049392505050565b604080516001600160a01b0385811660248301528481166044830152606480830185905283518084039091018152608490920183526020820180516001600160e01b03166323b872dd60e01b17815292518251600094606094938a169392918291908083835b60208310610e115780518252601f199092019160209182019101610df2565b6001836020036101000a0380198251168184511680821785525050505050509050019150506000604051808303816000865af19150503d8060008114610e73576040519150601f19603f3d011682016040523d82523d6000602084013e610e78565b606091505b5091509150818015610ea6575080511580610ea65750808060200190516020811015610ea357600080fd5b50515b610ee15760405162461bcd60e51b81526004018080602001828103825260248152602001806112d16024913960400191505060405180910390fd5b505050505050565b604080516001600160a01b038481166024830152604480830185905283518084039091018152606490920183526020820180516001600160e01b031663095ea7b360e01b178152925182516000946060949389169392918291908083835b60208310610f665780518252601f199092019160209182019101610f47565b6001836020036101000a0380198251168184511680821785525050505050509050019150506000604051808303816000865af19150503d8060008114610fc8576040519150601f19603f3d011682016040523d82523d6000602084013e610fcd565b606091505b5091509150818015610ffb575080511580610ffb5750808060200190516020811015610ff857600080fd5b50515b61104c576040805162461bcd60e51b815260206004820152601e60248201527f5472616e7366657248656c7065723a20415050524f56455f4641494c45440000604482015290519081900360640190fd5b5050505050565b6000828211156110aa576040805162461bcd60e51b815260206004820152601e60248201527f536166654d6174683a207375627472616374696f6e206f766572666c6f770000604482015290519081900360640190fd5b50900390565b604080516001600160a01b038481166024830152604480830185905283518084039091018152606490920183526020820180516001600160e01b031663a9059cbb60e01b178152925182516000946060949389169392918291908083835b6020831061112d5780518252601f19909201916020918201910161110e565b6001836020036101000a0380198251168184511680821785525050505050509050019150506000604051808303816000865af19150503d806000811461118f576040519150601f19603f3d011682016040523d82523d6000602084013e611194565b606091505b50915091508180156111c25750805115806111c257508080602001905160208110156111bf57600080fd5b50515b61104c576040805162461bcd60e51b815260206004820152601f60248201527f5472616e7366657248656c7065723a205452414e534645525f4641494c454400604482015290519081900360640190fd5b6000808260601b9050604051733d602d80600a3d3981f3363d3d373d3d3d363d7360601b81528160148201526e5af43d82803e903d91602b57fd5bf360881b60288201526037816000f094935050505056fe41756374696f6e43726561746f723a2041554354494f4e5f4645455f4e4f545f50524f564944454441756374696f6e43726561746f723a2054454d504c4154455f4455504c4943415445536166654d6174683a206d756c7469706c69636174696f6e206f766572666c6f775472616e7366657248656c7065723a205452414e534645525f46524f4d5f4641494c4544a26469706673582212208fff60443013ae778992ca89c5cfb51a7dee21113fedbf514196be3d3d541bdf64736f6c634300060c0033",
  "linkReferences": {},
  "deployedLinkReferences": {}
}