{
  "_format": "hh-sol-artifact-1",
  "contractName": "EasyAuctionTemplate",
  "sourceName": "contracts/templates/EasyAuctionTemplate.sol",
  "abi": [
    {
      "inputs": [
        {
          "internalType": "address",
          "name": "_WETH",
          "type": "address"
        },
        {
          "internalType": "address",
          "name": "_auctionLauncher",
          "type": "address"
        },
        {
          "internalType": "uint256",
          "name": "_auctionTemplateId",
          "type": "uint256"
        }
      ],
      "stateMutability": "nonpayable",
      "type": "constructor"
    },
    {
      "anonymous": false,
      "inputs": [
        {
          "indexed": false,
          "internalType": "address",
          "name": "tokenOut",
          "type": "address"
        },
        {
          "indexed": false,
          "internalType": "address",
          "name": "tokenIn",
          "type": "address"
        },
        {
          "indexed": false,
          "internalType": "uint256",
          "name": "duration",
          "type": "uint256"
        },
        {
          "indexed": false,
          "internalType": "uint256",
          "name": "tokenOutSupply",
          "type": "uint256"
        },
        {
          "indexed": false,
          "internalType": "uint96",
          "name": "minPrice",
          "type": "uint96"
        },
        {
          "indexed": false,
          "internalType": "uint96",
          "name": "minBuyAmount",
          "type": "uint96"
        },
        {
          "indexed": false,
          "internalType": "uint256",
          "name": "minRaise",
          "type": "uint256"
        }
      ],
      "name": "TemplateInitialized",
      "type": "event"
    },
    {
      "inputs": [],
      "name": "WETH",
      "outputs": [
        {
          "internalType": "contract IWETH",
          "name": "",
          "type": "address"
        }
      ],
      "stateMutability": "view",
      "type": "function"
    },
    {
      "inputs": [],
      "name": "auction",
      "outputs": [
        {
          "internalType": "contract IAuction",
          "name": "",
          "type": "address"
        }
      ],
      "stateMutability": "view",
      "type": "function"
    },
    {
      "inputs": [],
      "name": "auctionLauncher",
      "outputs": [
        {
          "internalType": "contract IAuctionLauncher",
          "name": "",
          "type": "address"
        }
      ],
      "stateMutability": "view",
      "type": "function"
    },
    {
      "inputs": [],
      "name": "auctionTemplateId",
      "outputs": [
        {
          "internalType": "uint256",
          "name": "",
          "type": "uint256"
        }
      ],
      "stateMutability": "view",
      "type": "function"
    },
    {
      "inputs": [
        {
          "internalType": "bytes",
          "name": "_data",
          "type": "bytes"
        }
      ],
      "name": "init",
      "outputs": [
        {
          "internalType": "address",
          "name": "newAuction",
          "type": "address"
        }
      ],
      "stateMutability": "nonpayable",
      "type": "function"
    },
    {
      "inputs": [],
      "name": "mesaFactory",
      "outputs": [
        {
          "internalType": "contract IMesaFactory",
          "name": "",
          "type": "address"
        }
      ],
      "stateMutability": "view",
      "type": "function"
    }
  ],
  "bytecode": "0x60806040526005805460ff1916905534801561001a57600080fd5b506040516104933803806104938339818101604052606081101561003d57600080fd5b508051602080830151604093840151600180546001600160a01b038087166001600160a01b031992831617909255600280549285169290911682179055855163c45a015560e01b81529551949592949193909263c45a01559260048083019392829003018186803b1580156100b157600080fd5b505afa1580156100c5573d6000803e3d6000fd5b505050506040513d60208110156100db57600080fd5b5051600380546001600160a01b0319166001600160a01b03909216919091179055600455506103829050806101116000396000f3fe608060405234801561001057600080fd5b50600436106100625760003560e01c806305e499a5146100675780634ddf47d41461008b5780636c2eefe1146100fb5780637d9f6db514610115578063ad5c46481461011d578063c3a4de1414610125575b600080fd5b61006f61012d565b604080516001600160a01b039092168252519081900360200190f35b61006f600480360360208110156100a157600080fd5b8101906020810181356401000000008111156100bc57600080fd5b8201836020820111156100ce57600080fd5b803590602001918460018302840111640100000000831117156100f057600080fd5b50909250905061013c565b6101036101be565b60408051918252519081900360200190f35b61006f6101c4565b61006f6101d3565b61006f6101e2565b6002546001600160a01b031681565b600080600080600080600080898960e081101561015857600080fd5b506001600160a01b03813581169850602082013516965060408101359550606081013594506bffffffffffffffffffffffff60808201358116945060a082013516925060c0013590506101b0878787878787876101f1565b9a9950505050505050505050565b60045481565b6000546001600160a01b031681565b6001546001600160a01b031681565b6003546001600160a01b031681565b60055460009060ff16156102365760405162461bcd60e51b81526004018080602001828103825260278152602001806103266027913960400191505060405180910390fd5b604080516001600160a01b03808b1660208301819052908a16828401819052606460608401819052608084018b905260a084018a90526bffffffffffffffffffffffff80891660c0860181905260e0860183905261010086018990526000610120808801829052885180890390910181526101408801808a529690965261016087019490945261018086018d90526101a086018c9052908a166101c08601526101e08501526102008401879052935184939192917ff243c2358fe9c4fb273fbfd3caa64e7f6b8c49b8100281f1a904bc13f475161f91908190036102200190a15050505097965050505050505056fe4561737941756374696f6e54656d706c6174653a20414c454144595f494e495449414c495a4544a2646970667358221220b5e421227ebc4dece396d04474e72ed51aded90658fcdf3f02cbf6716e26696a64736f6c634300060c0033",
  "linkReferences": {},
  "deployedLinkReferences": {}
}