{
  "_format": "hh-sol-artifact-1",
  "contractName": "MesaFactory",
  "sourceName": "contracts/MesaFactory.sol",
  "abi": [
    {
      "inputs": [],
      "stateMutability": "nonpayable",
      "type": "constructor"
    },
    {
      "anonymous": false,
      "inputs": [
        {
          "indexed": false,
          "internalType": "address",
          "name": "feeManager",
          "type": "address"
        },
        {
          "indexed": false,
          "internalType": "address",
          "name": "feeTo",
          "type": "address"
        },
        {
          "indexed": false,
          "internalType": "address",
          "name": "templateManager",
          "type": "address"
        },
        {
          "indexed": false,
          "internalType": "address",
          "name": "templateLauncher",
          "type": "address"
        },
        {
          "indexed": false,
          "internalType": "uint256",
          "name": "feeNumerator",
          "type": "uint256"
        },
        {
          "indexed": false,
          "internalType": "uint256",
          "name": "auctionFee",
          "type": "uint256"
        }
      ],
      "name": "FactoryInitialized",
      "type": "event"
    },
    {
      "anonymous": false,
      "inputs": [
        {
          "indexed": true,
          "internalType": "uint256",
          "name": "auctionFee",
          "type": "uint256"
        }
      ],
      "name": "SetAuctionFee",
      "type": "event"
    },
    {
      "anonymous": false,
      "inputs": [
        {
          "indexed": true,
          "internalType": "address",
          "name": "feeManager",
          "type": "address"
        }
      ],
      "name": "SetFeeManager",
      "type": "event"
    },
    {
      "anonymous": false,
      "inputs": [
        {
          "indexed": true,
          "internalType": "uint256",
          "name": "feeNumerator",
          "type": "uint256"
        }
      ],
      "name": "SetFeeNumerator",
      "type": "event"
    },
    {
      "anonymous": false,
      "inputs": [
        {
          "indexed": true,
          "internalType": "address",
          "name": "feeTo",
          "type": "address"
        }
      ],
      "name": "SetFeeTo",
      "type": "event"
    },
    {
      "anonymous": false,
      "inputs": [
        {
          "indexed": true,
          "internalType": "address",
          "name": "templateLauncher",
          "type": "address"
        }
      ],
      "name": "SetTemplateLauncher",
      "type": "event"
    },
    {
      "anonymous": false,
      "inputs": [
        {
          "indexed": true,
          "internalType": "address",
          "name": "templateManager",
          "type": "address"
        }
      ],
      "name": "SetTemplateManager",
      "type": "event"
    },
    {
      "anonymous": false,
      "inputs": [
        {
          "indexed": true,
          "internalType": "address",
          "name": "auction",
          "type": "address"
        },
        {
          "indexed": false,
          "internalType": "uint256",
          "name": "templateId",
          "type": "uint256"
        }
      ],
      "name": "TemplateLaunched",
      "type": "event"
    },
    {
      "inputs": [
        {
          "internalType": "uint256",
          "name": "",
          "type": "uint256"
        }
      ],
      "name": "allAuctions",
      "outputs": [
        {
          "internalType": "address",
          "name": "",
          "type": "address"
        }
      ],
      "stateMutability": "view",
      "type": "function"
    },
    {
      "inputs": [],
      "name": "auctionFee",
      "outputs": [
        {
          "internalType": "uint256",
          "name": "",
          "type": "uint256"
        }
      ],
      "stateMutability": "view",
      "type": "function"
    },
    {
      "inputs": [],
      "name": "feeDenominator",
      "outputs": [
        {
          "internalType": "uint256",
          "name": "",
          "type": "uint256"
        }
      ],
      "stateMutability": "view",
      "type": "function"
    },
    {
      "inputs": [],
      "name": "feeManager",
      "outputs": [
        {
          "internalType": "address",
          "name": "",
          "type": "address"
        }
      ],
      "stateMutability": "view",
      "type": "function"
    },
    {
      "inputs": [],
      "name": "feeNumerator",
      "outputs": [
        {
          "internalType": "uint256",
          "name": "",
          "type": "uint256"
        }
      ],
      "stateMutability": "view",
      "type": "function"
    },
    {
      "inputs": [],
      "name": "feeTo",
      "outputs": [
        {
          "internalType": "address",
          "name": "",
          "type": "address"
        }
      ],
      "stateMutability": "view",
      "type": "function"
    },
    {
      "inputs": [
        {
          "internalType": "address",
          "name": "_feeManager",
          "type": "address"
        },
        {
          "internalType": "address",
          "name": "_feeTo",
          "type": "address"
        },
        {
          "internalType": "address",
          "name": "_templateManager",
          "type": "address"
        },
        {
          "internalType": "address",
          "name": "_templateLauncher",
          "type": "address"
        },
        {
          "internalType": "uint256",
          "name": "_feeNumerator",
          "type": "uint256"
        },
        {
          "internalType": "uint256",
          "name": "_auctionFee",
          "type": "uint256"
        }
      ],
      "name": "initalize",
      "outputs": [],
      "stateMutability": "nonpayable",
      "type": "function"
    },
    {
      "inputs": [
        {
          "internalType": "uint256",
          "name": "_templateId",
          "type": "uint256"
        },
        {
          "internalType": "bytes",
          "name": "_data",
          "type": "bytes"
        }
      ],
      "name": "launchTemplate",
      "outputs": [
        {
          "internalType": "address",
          "name": "newAuction",
          "type": "address"
        }
      ],
      "stateMutability": "payable",
      "type": "function"
    },
    {
      "inputs": [],
      "name": "numberOfAuctions",
      "outputs": [
        {
          "internalType": "uint256",
          "name": "",
          "type": "uint256"
        }
      ],
      "stateMutability": "view",
      "type": "function"
    },
    {
      "inputs": [
        {
          "internalType": "uint256",
          "name": "_auctionFee",
          "type": "uint256"
        }
      ],
      "name": "setAuctionFee",
      "outputs": [],
      "stateMutability": "nonpayable",
      "type": "function"
    },
    {
      "inputs": [
        {
          "internalType": "address",
          "name": "_feeManager",
          "type": "address"
        }
      ],
      "name": "setFeeManager",
      "outputs": [],
      "stateMutability": "nonpayable",
      "type": "function"
    },
    {
      "inputs": [
        {
          "internalType": "uint256",
          "name": "_feeNumerator",
          "type": "uint256"
        }
      ],
      "name": "setFeeNumerator",
      "outputs": [],
      "stateMutability": "nonpayable",
      "type": "function"
    },
    {
      "inputs": [
        {
          "internalType": "address",
          "name": "_feeTo",
          "type": "address"
        }
      ],
      "name": "setFeeTo",
      "outputs": [],
      "stateMutability": "nonpayable",
      "type": "function"
    },
    {
      "inputs": [
        {
          "internalType": "address",
          "name": "_templateLauncher",
          "type": "address"
        }
      ],
      "name": "setTemplateLauncher",
      "outputs": [],
      "stateMutability": "nonpayable",
      "type": "function"
    },
    {
      "inputs": [
        {
          "internalType": "address",
          "name": "_templateManager",
          "type": "address"
        }
      ],
      "name": "setTemplateManager",
      "outputs": [],
      "stateMutability": "nonpayable",
      "type": "function"
    },
    {
      "inputs": [],
      "name": "templateId",
      "outputs": [
        {
          "internalType": "uint256",
          "name": "",
          "type": "uint256"
        }
      ],
      "stateMutability": "view",
      "type": "function"
    },
    {
      "inputs": [],
      "name": "templateLauncher",
      "outputs": [
        {
          "internalType": "address",
          "name": "",
          "type": "address"
        }
      ],
      "stateMutability": "view",
      "type": "function"
    },
    {
      "inputs": [],
      "name": "templateManager",
      "outputs": [
        {
          "internalType": "address",
          "name": "",
          "type": "address"
        }
      ],
      "stateMutability": "view",
      "type": "function"
    }
  ],
  "bytecode": "0x60a06040526103e86080526008805460ff1916905534801561002057600080fd5b50608051610aad61003b600039806104535250610aad6000f3fe6080604052600436106101095760003560e01c80636b0cd16711610095578063d0fb020311610064578063d0fb020314610379578063d4c33f2a1461038e578063e86dea4a146103a3578063f46901ed146103b8578063f59e754c146103eb57610109565b80636b0cd167146102d45780637aa77f29146103075780639afff8441461031c578063a45db9111461034f57610109565b806341a7ab1b116100dc57806341a7ab1b146101a5578063472d35b91461021c5780634c15d3ac146102515780634d68287e146102aa57806350d9d472146102bf57610109565b8063017e7e581461010e57806314525b6b1461013f578063165c588114610166578063180b0d7e14610190575b600080fd5b34801561011a57600080fd5b50610123610415565b604080516001600160a01b039092168252519081900360200190f35b34801561014b57600080fd5b50610154610424565b60408051918252519081900360200190f35b34801561017257600080fd5b506101236004803603602081101561018957600080fd5b503561042a565b34801561019c57600080fd5b50610154610451565b610123600480360360408110156101bb57600080fd5b813591908101906040810160208201356401000000008111156101dd57600080fd5b8201836020820111156101ef57600080fd5b8035906020019184600183028401116401000000008311171561021157600080fd5b509092509050610475565b34801561022857600080fd5b5061024f6004803603602081101561023f57600080fd5b50356001600160a01b03166105b3565b005b34801561025d57600080fd5b5061024f600480360360c081101561027457600080fd5b506001600160a01b0381358116916020810135821691604082013581169160608101359091169060808101359060a0013561064a565b3480156102b657600080fd5b50610123610756565b3480156102cb57600080fd5b50610154610765565b3480156102e057600080fd5b5061024f600480360360208110156102f757600080fd5b50356001600160a01b031661076b565b34801561031357600080fd5b50610154610802565b34801561032857600080fd5b5061024f6004803603602081101561033f57600080fd5b50356001600160a01b0316610808565b34801561035b57600080fd5b5061024f6004803603602081101561037257600080fd5b503561089f565b34801561038557600080fd5b5061012361091c565b34801561039a57600080fd5b5061012361092b565b3480156103af57600080fd5b5061015461093a565b3480156103c457600080fd5b5061024f600480360360208110156103db57600080fd5b50356001600160a01b0316610940565b3480156103f757600080fd5b5061024f6004803603602081101561040e57600080fd5b50356109d7565b6002546001600160a01b031681565b60015481565b6006818154811061043757fe5b6000918252602090912001546001600160a01b0316905081565b7f000000000000000000000000000000000000000000000000000000000000000081565b600554604080516341a7ab1b60e01b81526004810186815260248201928352604482018590526000936001600160a01b0316926341a7ab1b92889288928892606401848480828437600081840152601f19601f820116905080830192505050945050505050602060405180830381600087803b1580156104f457600080fd5b505af1158015610508573d6000803e3d6000fd5b505050506040513d602081101561051e57600080fd5b50516040805186815290519192506001600160a01b038316917fb4e0c04d31936037ef6d0ff42d7e7dbea22f4842fecb0702df62c79e70d918619181900360200190a2600680546001810182556000919091527ff652222313e28459528d920b65115c16c04f3efc82aaedc97be59f3f377c0d3f0180546001600160a01b0319166001600160a01b0383161790559392505050565b6003546001600160a01b03163314610600576040805162461bcd60e51b81526020600482015260166024820152600080516020610a58833981519152604482015290519081900360640190fd5b600380546001600160a01b0319166001600160a01b0383169081179091556040517f5d0517e3a4eabea892d9750138cd21d4a6cf3b935b43d0598df7055f463819b290600090a250565b60085460ff16156106a2576040805162461bcd60e51b815260206004820181905260248201527f4d657361466163746f72793a20414c52454144595f494e495449414c495a4544604482015290519081900360640190fd5b600380546001600160a01b038089166001600160a01b0319928316811790935560028054898316908416811790915560008690556004805489841690851681179091556005805493891693909416831790935560018590556040805194855260208501919091528381019290925260608301526080820184905260a08201839052517f228df483cbe73c534e5af85d3704dfc4ba11a24c8a2d6923e6c0b743b3dc02eb9181900360c00190a1505050505050565b6005546001600160a01b031681565b60065490565b6004546001600160a01b031633146107b8576040805162461bcd60e51b81526020600482015260166024820152600080516020610a58833981519152604482015290519081900360640190fd5b600580546001600160a01b0319166001600160a01b0383169081179091556040517f79df299870e2d96fc19ed876c317dad718a6b7bcddbee389016cc81daa9972f690600090a250565b60075481565b6004546001600160a01b03163314610855576040805162461bcd60e51b81526020600482015260166024820152600080516020610a58833981519152604482015290519081900360640190fd5b600480546001600160a01b0319166001600160a01b0383169081179091556040517f9a6aeabb5aa9c1121a3c35c1d8b07a62cfcb6b10f09c83e85cd44c316be661fe90600090a250565b6003546001600160a01b031633146108ec576040805162461bcd60e51b81526020600482015260166024820152600080516020610a58833981519152604482015290519081900360640190fd5b600081815560405182917f683d2ab2955f064231f4bac9d1c4c37c54876be8a38c5dc695e27ee95af15c1191a250565b6003546001600160a01b031681565b6004546001600160a01b031681565b60005481565b6003546001600160a01b0316331461098d576040805162461bcd60e51b81526020600482015260166024820152600080516020610a58833981519152604482015290519081900360640190fd5b600280546001600160a01b0319166001600160a01b0383169081179091556040517ff6b59ffc88fbb27f33470b919e00b41139ee340eb349521f0cbbc1504ce29c3e90600090a250565b6003546001600160a01b03163314610a24576040805162461bcd60e51b81526020600482015260166024820152600080516020610a58833981519152604482015290519081900360640190fd5b600181905560405181907fe9715983ea4b510d21736461b533375c53104a5a09ef89162344b5d74fc69b7e90600090a25056fe4d657361466163746f72793a20464f5242494444454e00000000000000000000a2646970667358221220ec3baa2c6e35f34f32a1a209fd330adf0738b172234de50a8a572eccd8a9990564736f6c634300060c0033",
  "linkReferences": {},
  "deployedLinkReferences": {}
}