{
  "address": "0xE554897039fC755b46c0cb084aE16079e645Ed50",
  "abi": [
    {
      "anonymous": false,
      "inputs": [
        {
          "indexed": false,
          "internalType": "uint96",
          "name": "soldTokenOuts",
          "type": "uint96"
        },
        {
          "indexed": false,
          "internalType": "uint96",
          "name": "soldTokenIns",
          "type": "uint96"
        },
        {
          "indexed": false,
          "internalType": "bytes32",
          "name": "clearingPriceOrder",
          "type": "bytes32"
        }
      ],
      "name": "AuctionCleared",
      "type": "event"
    },
    {
      "anonymous": false,
      "inputs": [
        {
          "indexed": true,
          "internalType": "contract IERC20",
          "name": "tokenOut",
          "type": "address"
        },
        {
          "indexed": true,
          "internalType": "contract IERC20",
          "name": "tokenIn",
          "type": "address"
        },
        {
          "indexed": false,
          "internalType": "uint256",
          "name": "orderCancellationEndDate",
          "type": "uint256"
        },
        {
          "indexed": false,
          "internalType": "uint256",
          "name": "auctionEndDate",
          "type": "uint256"
        },
        {
          "indexed": false,
          "internalType": "uint64",
          "name": "userId",
          "type": "uint64"
        },
        {
          "indexed": false,
          "internalType": "uint96",
          "name": "auctionedSellAmount",
          "type": "uint96"
        },
        {
          "indexed": false,
          "internalType": "uint96",
          "name": "minBuyAmount",
          "type": "uint96"
        },
        {
          "indexed": false,
          "internalType": "uint256",
          "name": "minimumBiddingAmountPerOrder",
          "type": "uint256"
        },
        {
          "indexed": false,
          "internalType": "uint256",
          "name": "minFundingThreshold",
          "type": "uint256"
        }
      ],
      "name": "AuctionInitialized",
      "type": "event"
    },
    {
      "anonymous": false,
      "inputs": [
        {
          "indexed": true,
          "internalType": "uint64",
          "name": "userId",
          "type": "uint64"
        },
        {
          "indexed": false,
          "internalType": "uint96",
          "name": "buyAmount",
          "type": "uint96"
        },
        {
          "indexed": false,
          "internalType": "uint96",
          "name": "sellAmount",
          "type": "uint96"
        }
      ],
      "name": "CancellationSellOrder",
      "type": "event"
    },
    {
      "anonymous": false,
      "inputs": [
        {
          "indexed": true,
          "internalType": "uint64",
          "name": "userId",
          "type": "uint64"
        },
        {
          "indexed": false,
          "internalType": "uint96",
          "name": "buyAmount",
          "type": "uint96"
        },
        {
          "indexed": false,
          "internalType": "uint96",
          "name": "sellAmount",
          "type": "uint96"
        }
      ],
      "name": "ClaimedFromOrder",
      "type": "event"
    },
    {
      "anonymous": false,
      "inputs": [
        {
          "indexed": true,
          "internalType": "uint64",
          "name": "userId",
          "type": "uint64"
        },
        {
          "indexed": false,
          "internalType": "uint96",
          "name": "buyAmount",
          "type": "uint96"
        },
        {
          "indexed": false,
          "internalType": "uint96",
          "name": "sellAmount",
          "type": "uint96"
        }
      ],
      "name": "NewSellOrder",
      "type": "event"
    },
    {
      "anonymous": false,
      "inputs": [
        {
          "indexed": true,
          "internalType": "uint64",
          "name": "userId",
          "type": "uint64"
        },
        {
          "indexed": true,
          "internalType": "address",
          "name": "userAddress",
          "type": "address"
        }
      ],
      "name": "NewUser",
      "type": "event"
    },
    {
      "anonymous": false,
      "inputs": [
        {
          "indexed": true,
          "internalType": "address",
          "name": "user",
          "type": "address"
        },
        {
          "indexed": false,
          "internalType": "uint64",
          "name": "userId",
          "type": "uint64"
        }
      ],
      "name": "UserRegistration",
      "type": "event"
    },
    {
      "inputs": [],
      "name": "TEMPLATE_NAME",
      "outputs": [
        {
          "internalType": "string",
          "name": "",
          "type": "string"
        }
      ],
      "stateMutability": "view",
      "type": "function"
    },
    {
      "inputs": [],
      "name": "auctionEndDate",
      "outputs": [
        {
          "internalType": "uint256",
          "name": "",
          "type": "uint256"
        }
      ],
      "stateMutability": "view",
      "type": "function"
    },
    {
      "inputs": [
        {
          "internalType": "bytes32[]",
          "name": "_sellOrders",
          "type": "bytes32[]"
        }
      ],
      "name": "cancelSellOrders",
      "outputs": [],
      "stateMutability": "nonpayable",
      "type": "function"
    },
    {
      "inputs": [
        {
          "internalType": "bytes32[]",
          "name": "orders",
          "type": "bytes32[]"
        }
      ],
      "name": "claimFromParticipantOrder",
      "outputs": [
        {
          "internalType": "uint256",
          "name": "sumTokenOutAmount",
          "type": "uint256"
        },
        {
          "internalType": "uint256",
          "name": "sumTokenInAmount",
          "type": "uint256"
        }
      ],
      "stateMutability": "nonpayable",
      "type": "function"
    },
    {
      "inputs": [],
      "name": "clearingPriceOrder",
      "outputs": [
        {
          "internalType": "bytes32",
          "name": "",
          "type": "bytes32"
        }
      ],
      "stateMutability": "view",
      "type": "function"
    },
    {
      "inputs": [
        {
          "internalType": "bytes32",
          "name": "order",
          "type": "bytes32"
        }
      ],
      "name": "containsOrder",
      "outputs": [
        {
          "internalType": "bool",
          "name": "",
          "type": "bool"
        }
      ],
      "stateMutability": "view",
      "type": "function"
    },
    {
      "inputs": [],
      "name": "getSecondsRemainingInBatch",
      "outputs": [
        {
          "internalType": "uint256",
          "name": "",
          "type": "uint256"
        }
      ],
      "stateMutability": "view",
      "type": "function"
    },
    {
      "inputs": [
        {
          "internalType": "address",
          "name": "user",
          "type": "address"
        }
      ],
      "name": "getUserId",
      "outputs": [
        {
          "internalType": "uint64",
          "name": "userId",
          "type": "uint64"
        }
      ],
      "stateMutability": "nonpayable",
      "type": "function"
    },
    {
      "inputs": [
        {
          "internalType": "bytes",
          "name": "_data",
          "type": "bytes"
        }
      ],
      "name": "init",
      "outputs": [],
      "stateMutability": "nonpayable",
      "type": "function"
    },
    {
      "inputs": [],
      "name": "initialAuctionOrder",
      "outputs": [
        {
          "internalType": "bytes32",
          "name": "",
          "type": "bytes32"
        }
      ],
      "stateMutability": "view",
      "type": "function"
    },
    {
      "inputs": [],
      "name": "initialized",
      "outputs": [
        {
          "internalType": "bool",
          "name": "",
          "type": "bool"
        }
      ],
      "stateMutability": "view",
      "type": "function"
    },
    {
      "inputs": [],
      "name": "interimOrder",
      "outputs": [
        {
          "internalType": "bytes32",
          "name": "",
          "type": "bytes32"
        }
      ],
      "stateMutability": "view",
      "type": "function"
    },
    {
      "inputs": [],
      "name": "interimSumBidAmount",
      "outputs": [
        {
          "internalType": "uint256",
          "name": "",
          "type": "uint256"
        }
      ],
      "stateMutability": "view",
      "type": "function"
    },
    {
      "inputs": [],
      "name": "isAtomicClosureAllowed",
      "outputs": [
        {
          "internalType": "bool",
          "name": "",
          "type": "bool"
        }
      ],
      "stateMutability": "view",
      "type": "function"
    },
    {
      "inputs": [],
      "name": "minFundingThreshold",
      "outputs": [
        {
          "internalType": "uint256",
          "name": "",
          "type": "uint256"
        }
      ],
      "stateMutability": "view",
      "type": "function"
    },
    {
      "inputs": [],
      "name": "minFundingThresholdNotReached",
      "outputs": [
        {
          "internalType": "bool",
          "name": "",
          "type": "bool"
        }
      ],
      "stateMutability": "view",
      "type": "function"
    },
    {
      "inputs": [],
      "name": "minimumBiddingAmountPerOrder",
      "outputs": [
        {
          "internalType": "uint256",
          "name": "",
          "type": "uint256"
        }
      ],
      "stateMutability": "view",
      "type": "function"
    },
    {
      "inputs": [],
      "name": "numUsers",
      "outputs": [
        {
          "internalType": "uint64",
          "name": "",
          "type": "uint64"
        }
      ],
      "stateMutability": "view",
      "type": "function"
    },
    {
      "inputs": [],
      "name": "orderCancellationEndDate",
      "outputs": [
        {
          "internalType": "uint256",
          "name": "",
          "type": "uint256"
        }
      ],
      "stateMutability": "view",
      "type": "function"
    },
    {
      "inputs": [],
      "name": "owner",
      "outputs": [
        {
          "internalType": "address",
          "name": "",
          "type": "address"
        }
      ],
      "stateMutability": "view",
      "type": "function"
    },
    {
      "inputs": [
        {
          "internalType": "uint96[]",
          "name": "_minBuyAmounts",
          "type": "uint96[]"
        },
        {
          "internalType": "uint96[]",
          "name": "_sellAmounts",
          "type": "uint96[]"
        },
        {
          "internalType": "bytes32[]",
          "name": "_prevSellOrders",
          "type": "bytes32[]"
        }
      ],
      "name": "placeSellOrders",
      "outputs": [
        {
          "internalType": "uint64",
          "name": "userId",
          "type": "uint64"
        }
      ],
      "stateMutability": "nonpayable",
      "type": "function"
    },
    {
      "inputs": [
        {
          "internalType": "uint96[]",
          "name": "_minBuyAmounts",
          "type": "uint96[]"
        },
        {
          "internalType": "uint96[]",
          "name": "_sellAmounts",
          "type": "uint96[]"
        },
        {
          "internalType": "bytes32[]",
          "name": "_prevSellOrders",
          "type": "bytes32[]"
        },
        {
          "internalType": "address",
          "name": "orderSubmitter",
          "type": "address"
        }
      ],
      "name": "placeSellOrdersOnBehalf",
      "outputs": [
        {
          "internalType": "uint64",
          "name": "userId",
          "type": "uint64"
        }
      ],
      "stateMutability": "nonpayable",
      "type": "function"
    },
    {
      "inputs": [
        {
          "internalType": "uint256",
          "name": "iterationSteps",
          "type": "uint256"
        }
      ],
      "name": "precalculateSellAmountSum",
      "outputs": [],
      "stateMutability": "nonpayable",
      "type": "function"
    },
    {
      "inputs": [
        {
          "internalType": "address",
          "name": "user",
          "type": "address"
        }
      ],
      "name": "registerUser",
      "outputs": [
        {
          "internalType": "uint64",
          "name": "userId",
          "type": "uint64"
        }
      ],
      "stateMutability": "nonpayable",
      "type": "function"
    },
    {
      "inputs": [],
      "name": "settleAuction",
      "outputs": [
        {
          "internalType": "bytes32",
          "name": "clearingOrder",
          "type": "bytes32"
        }
      ],
      "stateMutability": "nonpayable",
      "type": "function"
    },
    {
      "inputs": [
        {
          "internalType": "uint96[]",
          "name": "_minBuyAmount",
          "type": "uint96[]"
        },
        {
          "internalType": "uint96[]",
          "name": "_sellAmount",
          "type": "uint96[]"
        },
        {
          "internalType": "bytes32[]",
          "name": "_prevSellOrder",
          "type": "bytes32[]"
        }
      ],
      "name": "settleAuctionAtomically",
      "outputs": [],
      "stateMutability": "nonpayable",
      "type": "function"
    },
    {
      "inputs": [],
      "name": "tokenIn",
      "outputs": [
        {
          "internalType": "contract IERC20",
          "name": "",
          "type": "address"
        }
      ],
      "stateMutability": "view",
      "type": "function"
    },
    {
      "inputs": [],
      "name": "tokenOut",
      "outputs": [
        {
          "internalType": "contract IERC20",
          "name": "",
          "type": "address"
        }
      ],
      "stateMutability": "view",
      "type": "function"
    },
    {
      "inputs": [],
      "name": "volumeClearingPriceOrder",
      "outputs": [
        {
          "internalType": "uint96",
          "name": "",
          "type": "uint96"
        }
      ],
      "stateMutability": "view",
      "type": "function"
    }
  ],
  "transactionHash": "0x0516f742bdbb4cbfbf712de64fca656a734bf269321847f395ad73414dbad3d2",
  "args": [],
  "solcInputHash": "caea4eca9fddf66e8a5b4ed801cc528f",
  "bytecode": "0x608060405234801561001057600080fd5b50612fdf806100206000396000f3fe608060405234801561001057600080fd5b50600436106101cf5760003560e01c80636daf390b11610104578063a90c8c8d116100a2578063d4dda12f11610071578063d4dda12f14610725578063d63bc2a51461072d578063de5f252e146108dd578063f1e2fc4f14610a82576101cf565b8063a90c8c8d14610657578063ac61a28514610674578063b90545ee14610715578063d0202d3b1461071d576101cf565b80638da5cb5b116100de5780638da5cb5b146106375780638eb54efa1461063f57806392f987be14610647578063a4d0a17e1461064f576101cf565b80636daf390b14610466578063724acaac1461048a578063757a1d281461062f576101cf565b806338474ff511610171578063459b72d51161014b578063459b72d51461032c5780634ddf47d41461033457806352b2cf4f146103a45780635f2aee411461045e576101cf565b806338474ff5146102ff5780633d827e0514610307578063422e6fa01461030f576101cf565b80632199d5cd116101ad5780632199d5cd1461022e578063257d33ff146102545780632898f7d11461025c5780632b956ff7146102d9576101cf565b8063158ef93e146101d457806317569c1d146101f057806319a50f491461020a575b600080fd5b6101dc610aa6565b604080519115158252519081900360200190f35b6101f8610aaf565b60408051918252519081900360200190f35b610212610ad6565b604080516001600160401b039092168252519081900360200190f35b6102126004803603602081101561024457600080fd5b50356001600160a01b0316610ae5565b6101f8610bda565b610264610be0565b6040805160208082528351818301528351919283929083019185019080838360005b8381101561029e578181015183820152602001610286565b50505050905090810190601f1680156102cb5780820380516001836020036101000a031916815260200191505b509250505060405180910390f35b610212600480360360208110156102ef57600080fd5b50356001600160a01b0316610c04565b6101dc610c79565b6101f8610c89565b6101dc6004803603602081101561032557600080fd5b5035610c8f565b6101dc610ca2565b6103a26004803603602081101561034a57600080fd5b810190602081018135600160201b81111561036457600080fd5b82018360208201111561037657600080fd5b803590602001918460018302840111600160201b8311171561039757600080fd5b509092509050610cb2565b005b610445600480360360208110156103ba57600080fd5b810190602081018135600160201b8111156103d457600080fd5b8201836020820111156103e657600080fd5b803590602001918460208302840111600160201b8311171561040757600080fd5b919080806020026020016040519081016040528093929190818152602001838360200280828437600092019190915250929550610da1945050505050565b6040805192835260208301919091528051918290030190f35b6101f86110c1565b61046e6110c7565b604080516001600160a01b039092168252519081900360200190f35b610212600480360360608110156104a057600080fd5b810190602081018135600160201b8111156104ba57600080fd5b8201836020820111156104cc57600080fd5b803590602001918460208302840111600160201b831117156104ed57600080fd5b9190808060200260200160405190810160405280939291908181526020018383602002808284376000920191909152509295949360208101935035915050600160201b81111561053c57600080fd5b82018360208201111561054e57600080fd5b803590602001918460208302840111600160201b8311171561056f57600080fd5b9190808060200260200160405190810160405280939291908181526020018383602002808284376000920191909152509295949360208101935035915050600160201b8111156105be57600080fd5b8201836020820111156105d057600080fd5b803590602001918460208302840111600160201b831117156105f157600080fd5b9190808060200260200160405190810160405280939291908181526020018383602002808284376000920191909152509295506110d6945050505050565b6101f861112e565b61046e611134565b6101f8611143565b6101f8611149565b6101f861114f565b6103a26004803603602081101561066d57600080fd5b5035611411565b6103a26004803603602081101561068a57600080fd5b810190602081018135600160201b8111156106a457600080fd5b8201836020820111156106b657600080fd5b803590602001918460208302840111600160201b831117156106d757600080fd5b9190808060200260200160405190810160405280939291908181526020018383602002808284376000920191909152509295506115d4945050505050565b6101f8611759565b61046e61175f565b6101f861176e565b6102126004803603608081101561074357600080fd5b810190602081018135600160201b81111561075d57600080fd5b82018360208201111561076f57600080fd5b803590602001918460208302840111600160201b8311171561079057600080fd5b9190808060200260200160405190810160405280939291908181526020018383602002808284376000920191909152509295949360208101935035915050600160201b8111156107df57600080fd5b8201836020820111156107f157600080fd5b803590602001918460208302840111600160201b8311171561081257600080fd5b9190808060200260200160405190810160405280939291908181526020018383602002808284376000920191909152509295949360208101935035915050600160201b81111561086157600080fd5b82018360208201111561087357600080fd5b803590602001918460208302840111600160201b8311171561089457600080fd5b919080806020026020016040519081016040528093929190818152602001838360200280828437600092019190915250929550505090356001600160a01b031691506117749050565b6103a2600480360360608110156108f357600080fd5b810190602081018135600160201b81111561090d57600080fd5b82018360208201111561091f57600080fd5b803590602001918460208302840111600160201b8311171561094057600080fd5b9190808060200260200160405190810160405280939291908181526020018383602002808284376000920191909152509295949360208101935035915050600160201b81111561098f57600080fd5b8201836020820111156109a157600080fd5b803590602001918460208302840111600160201b831117156109c257600080fd5b9190808060200260200160405190810160405280939291908181526020018383602002808284376000920191909152509295949360208101935035915050600160201b811115610a1157600080fd5b820183602082011115610a2357600080fd5b803590602001918460208302840111600160201b83111715610a4457600080fd5b9190808060200260200160405190810160405280939291908181526020018383602002808284376000920191909152509295506117cb945050505050565b610a8a61195d565b604080516001600160601b039092168252519081900360200190f35b600e5460ff1681565b6000426004541015610ac357506000610ad3565b600454610ad0904261196c565b90505b90565b6011546001600160401b031681565b601154600090610b0890610b03906001600160401b031660016119c9565b611a23565b6011805467ffffffffffffffff19166001600160401b039283161790819055610b3591600f911684611a70565b610b86576040805162461bcd60e51b815260206004820152601760248201527f5573657220616c72656164792072656769737465726564000000000000000000604482015290519081900360640190fd5b50601154604080516001600160401b03909216808352905190916001600160a01b038416917f6838f67cb358c332087b73dbe769a6c869a5f87225236c16dda5d0013a77074c9181900360200190a2919050565b60085481565b604051806040016040528060088152602001674661697253616c6560c01b81525081565b6000610c11600f83611be8565b15610c2857610c21600f83611c12565b9050610c74565b610c3182610ae5565b9050816001600160a01b0316816001600160401b03167f969d438b19b6b5fb3c0d3c6f16867e519fcec4233799d6be29d1c00f2045ba2660405160405180910390a35b919050565b600a54600160601b900460ff1681565b60045481565b6000610c9c600c83611c9c565b92915050565b600a54600160681b900460ff1681565b600e5460ff1615610d00576040805162461bcd60e51b8152602060048201526013602482015272185b1c9958591e481a5b9a5d1a585b1a5e9959606a1b604482015290519081900360640190fd5b6000806000806000806000806000808b8b610140811015610d2057600080fd5b506001600160a01b03813581169b50602082013581169a5060408201359950606082013598506001600160601b0360808301358116985060a083013516965060c0820135955060e082013594506101008201351515935061012090910135169050610d938a8a8a8a8a8a8a8a8a8a611cc5565b505050505050505050505050565b6009546000908190610dfa576040805162461bcd60e51b815260206004820152601860248201527f41756374696f6e206e6f74207965742066696e69736865640000000000000000604482015290519081900360640190fd5b60005b8351811015610e8657610e2d848281518110610e1557fe5b6020026020010151600c611f8390919063ffffffff16565b610e7e576040805162461bcd60e51b815260206004820152601c60248201527f6f72646572206973206e6f206c6f6e67657220636c61696d61626c6500000000604482015290519081900360640190fd5b600101610dfd565b50600080610e95600954611faf565b92509250506000610eb986600081518110610eac57fe5b6020026020010151611faf565b5050905060005b86518110156110ad576000806000610edd8a8581518110610eac57fe5b925092509250846001600160401b0316836001600160401b031614610f335760405162461bcd60e51b8152600401808060200182810382526023815260200180612e946023913960400191505060405180910390fd5b600a54600160601b900460ff1615610f5f57610f58886001600160601b0383166119c9565b9750611055565b6009548a8581518110610f6e57fe5b60200260200101511415610fd657600a54610faf90610fa8906001600160601b03808a1691610fa291908116908c16611fbe565b90612017565b8a906119c9565b600a54909950610f5890610fcf906001600160601b03848116911661196c565b89906119c9565b610ffe6009548b8681518110610fe857fe5b602002602001015161207e90919063ffffffff16565b1561103f57611038610fa8876001600160601b0316610fa28a6001600160601b0316856001600160601b0316611fbe90919063ffffffff16565b9850611055565b611052886001600160601b0383166119c9565b97505b604080516001600160601b0380851682528316602082015281516001600160401b038816927ff75ff0412dab9132bc6907f911ff4b016eef8911771400efa692b1868162700f928290030190a2505050600101610ec0565b506110b9858583612205565b505050915091565b60095481565b6002546001600160a01b031681565b600060045442106111185760405162461bcd60e51b8152600401808060200182810382526022815260200180612f886022913960400191505060405180910390fd5b61112484848433612254565b90505b9392505050565b60065481565b6000546001600160a01b031681565b600b5481565b60055481565b60045460009080158015906111645750804210155b80156111705750600954155b6111ab5760405162461bcd60e51b8152600401808060200182810382526028815260200180612eb76028913960400191505060405180910390fd5b5060008060006111bc600554611faf565b600754600854939650919450925090600080845b60006111dd600c86612532565b90506002600160601b03198114156111f55750611244565b80945061120185611faf565b6001600160601b03918216965016935061121d905086846119c9565b955061123490506001600160601b03871683611fbe565b61123e8685611fbe565b106111d0575b60008511801561126f57506112626001600160601b03871683611fbe565b61126c8685611fbe565b10155b1561131a57600061129761129085610fa26001600160601b038b1687611fbe565b879061196c565b90508083106112f15760006112ac848361196c565b90506112b7816125c6565b600a80546bffffffffffffffffffffffff19166001600160601b03929092169190911790556112e6878361196c565b9650859a5050611314565b6112fb868461196c565b955061131160008861130c896125c6565b61260a565b99505b50611383565b866001600160601b03168511156113415761133a60008761130c886125c6565b9850611383565b61134d6000878961260a565b985061138061137b886001600160601b0316610fa2896001600160601b031689611fbe90919063ffffffff16565b6125c6565b90505b6009899055600b548510156113a657600a805460ff60601b1916600160601b1790555b604080516001600160601b038084168252871660208201528082018b905290517f7fbd6633ec7ba81b40067a45fe5b8351c03e9e3765569f20247044ec4247b5319181900360600190a150506000600581905560088190556007819055600655509495945050505050565b60045480158015906114235750804210155b801561142f5750600954155b61146a5760405162461bcd60e51b8152600401808060200182810382526028815260200180612eb76028913960400191505060405180910390fd5b506000611478600554611faf565b6007546008549194509250905060005b848110156114cc5761149b600c83612532565b915060006114a883611faf565b92506114c191508590506001600160601b0383166119c9565b935050600101611488565b506002600160601b031981141561152a576040805162461bcd60e51b815260206004820152601960248201527f7265616368656420656e64206f66206f72646572206c69737400000000000000604482015290519081900360640190fd5b60008061153683611faf565b9250925050611560816001600160601b0316866001600160601b0316611fbe90919063ffffffff16565b611573856001600160601b038516611fbe565b106115c5576040805162461bcd60e51b815260206004820152601960248201527f746f6f206d616e79206f72646572732073756d6d656420757000000000000000604482015290519081900360640190fd5b50506007919091556008555050565b60035442106116145760405162461bcd60e51b8152600401808060200182810382526032815260200180612d276032913960400191505060405180910390fd5b600061161f33610c04565b90506000805b835181101561173c57600061165785838151811061163f57fe5b6020026020010151600c61264290919063ffffffff16565b90508015611733576000806000611673888681518110610eac57fe5b925092509250866001600160401b0316836001600160401b0316146116c95760405162461bcd60e51b8152600401808060200182810382526023815260200180612ce16023913960400191505060405180910390fd5b6116dc866001600160601b0383166119c9565b604080516001600160601b0380861682528416602082015281519298506001600160401b038a16927f5dedfbcaa0c7efd84558aac37ed1d1023367d9aa24a3dc41d011d013d3218ab7929181900390910190a25050505b50600101611625565b50600254611754906001600160a01b03163383612697565b505050565b60035481565b6001546001600160a01b031681565b60075481565b600060045442106117b65760405162461bcd60e51b8152600401808060200182810382526022815260200180612f886022913960400191505060405180910390fd5b6117c285858585612254565b95945050505050565b60045480158015906117dd5750804210155b80156117e95750600954155b6118245760405162461bcd60e51b8152600401808060200182810382526028815260200180612eb76028913960400191505060405180910390fd5b50600a54600160681b900460ff1661186d5760405162461bcd60e51b8152600401808060200182810382526028815260200180612c886028913960400191505060405180910390fd5b8251600114801561187f575081516001145b6118ba5760405162461bcd60e51b8152600401808060200182810382526027815260200180612dc66027913960400191505060405180910390fd5b60006118c533610c04565b90506119066118fd82866000815181106118db57fe5b6020026020010151866000815181106118f057fe5b602002602001015161260a565b6008549061207e565b6119415760405162461bcd60e51b8152600401808060200182810382526031815260200180612cb06031913960400191505060405180910390fd5b61194d84848433612254565b5061195661114f565b5050505050565b600a546001600160601b031681565b6000828211156119c3576040805162461bcd60e51b815260206004820152601e60248201527f536166654d6174683a207375627472616374696f6e206f766572666c6f770000604482015290519081900360640190fd5b50900390565b600082820183811015611127576040805162461bcd60e51b815260206004820152601b60248201527f536166654d6174683a206164646974696f6e206f766572666c6f770000000000604482015290519081900360640190fd5b6000680100000000000000008210611a6c5760405162461bcd60e51b8152600401808060200182810382526026815260200180612e6e6026913960400191505060405180910390fd5b5090565b60006001600160a01b038216611acd576040805162461bcd60e51b815260206004820152601a60248201527f43616e6e6f7420696e73657274207a65726f2061646472657373000000000000604482015290519081900360640190fd5b6001600160401b038381161415611b2b576040805162461bcd60e51b815260206004820152601860248201527f43616e6e6f7420696e73657274206d61782075696e7436340000000000000000604482015290519081900360640190fd5b6001600160a01b03821660009081526001850160205260409020546001600160401b0316151580611b7f57506001600160401b0360018401166000908152602085905260409020546001600160a01b031615155b15611b8c57506000611127565b5060019182016001600160401b031660008181526020858152604080832080546001600160a01b0319166001600160a01b039690961695861790559382529484019094529220805467ffffffffffffffff191690921790915590565b6001600160a01b0316600090815260019190910160205260409020546001600160401b0316151590565b6000611c1e8383611be8565b611c6f576040805162461bcd60e51b815260206004820152601b60248201527f4d7573742068617665204164647265737320746f206765742049440000000000604482015290519081900360640190fd5b506001600160a01b0316600090815260019190910160205260409020546001600160401b03166000190190565b60006001821415611caf57506000610c9c565b5060009081526020919091526040902054151590565b600e805460ff19166001179055611cf06001600160a01b038a1633306001600160601b038a166126e9565b6000866001600160601b031611611d4e576040805162461bcd60e51b815260206004820152601a60248201527f63616e6e6f742061756374696f6e207a65726f20746f6b656e73000000000000604482015290519081900360640190fd5b6000856001600160601b031611611d965760405162461bcd60e51b8152600401808060200182810382526023815260200180612d046023913960400191505060405180910390fd5b60008411611dd55760405162461bcd60e51b8152600401808060200182810382526036815260200180612e176036913960400191505060405180910390fd5b86881115611e145760405162461bcd60e51b8152600401808060200182810382526029815260200180612f356029913960400191505060405180910390fd5b428711611e525760405162461bcd60e51b8152600401808060200182810382526026815260200180612da06026913960400191505060405180910390fd5b611e5c600c612743565b6000611e6733610c04565b600080546001600160a01b038086166001600160a01b031992831617909255600180548e841690831617905560028054928f169290911691909117905560038a905560048990559050611ebb81878961260a565b6005556006859055600060078190556001600855600955600a80546dffffffffffffffffffffffffffff1916600160681b85151502179055600b849055604080518a8152602081018a90526001600160401b038316818301526001600160601b0389811660608301528816608082015260a0810187905260c0810186905290516001600160a01b038d811692908d16917f6fd1d7194ddf00deb0b9859cbdd1853d720493e643d37af7a2923b0b41de7dde9160e0908290030190a35050505050505050505050565b600080611f908484612642565b9050801561112757600092835260019390930160205250604081205590565b60c081901c91606082901c9190565b600082611fcd57506000610c9c565b82820282848281611fda57fe5b04146111275760405162461bcd60e51b8152600401808060200182810382526021815260200180612e4d6021913960400191505060405180910390fd5b600080821161206d576040805162461bcd60e51b815260206004820152601a60248201527f536166654d6174683a206469766973696f6e206279207a65726f000000000000604482015290519081900360640190fd5b81838161207657fe5b049392505050565b60008060008061208d86611faf565b92509250925060008060006120a188611faf565b919450925090506120be6001600160601b03808416908616611fbe565b6120d46001600160601b03878116908416611fbe565b10156120e95760019650505050505050610c9c565b6120ff6001600160601b03838116908616611fbe565b6121156001600160601b03878116908416611fbe565b111561212a5760009650505050505050610c9c565b816001600160601b0316856001600160601b031610156121535760019650505050505050610c9c565b816001600160601b0316856001600160601b0316111561217c5760009650505050505050610c9c565b826001600160401b0316866001600160401b031614156121cd5760405162461bcd60e51b815260040180806020018281038252602d815260200180612edf602d913960400191505060405180910390fd5b826001600160401b0316866001600160401b031610156121f65760019650505050505050610c9c565b50600098975050505050505050565b6000612212600f8361276f565b9050831561223157600154612231906001600160a01b03168286612697565b821561224e5760025461224e906001600160a01b03168285612697565b50505050565b6000806000612264600554611faf565b925092505060005b8751811015612329576122ad87828151811061228457fe5b60200260200101516001600160601b0316836001600160601b0316611fbe90919063ffffffff16565b6122e5846001600160601b03168a84815181106122c657fe5b60200260200101516001600160601b0316611fbe90919063ffffffff16565b106123215760405162461bcd60e51b8152600401808060200182810382526029815260200180612f0c6029913960400191505060405180910390fd5b60010161226c565b505050600061233783610c04565b915060005b865181101561251057600087828151811061235357fe5b60200260200101516001600160601b0316116123a05760405162461bcd60e51b8152600401808060200182810382526025815260200180612d596025913960400191505060405180910390fd5b6006548682815181106123af57fe5b60200260200101516001600160601b031611612404576040805162461bcd60e51b815260206004820152600f60248201526e1bdc99195c881d1bdbc81cdb585b1b608a1b604482015290519081900360640190fd5b61245061242b8489848151811061241757fe5b60200260200101518985815181106118f057fe5b86838151811061243757fe5b6020026020010151600c6127f59092919063ffffffff16565b156125085761248486828151811061246457fe5b60200260200101516001600160601b0316836119c990919063ffffffff16565b9150826001600160401b03167fd281bd4d955b901e3f3d9e94325fd93f97f2a20f3acfd0e0c52eec553208f4958883815181106124bd57fe5b60200260200101518884815181106124d157fe5b602002602001015160405180836001600160601b03168152602001826001600160601b031681526020019250505060405180910390a25b60010161233c565b50600254612529906001600160a01b03163330846126e9565b50949350505050565b60006002600160601b031982141561257b5760405162461bcd60e51b8152600401808060200182810382526022815260200180612d7e6022913960400191505060405180910390fd5b600082815260208490526040902054806111275760405162461bcd60e51b815260040180806020018281038252602a815260200180612ded602a913960400191505060405180910390fd5b6000600160601b8210611a6c5760405162461bcd60e51b8152600401808060200182810382526026815260200180612c626026913960400191505060405180910390fd5b6001600160c01b031960c084901b166bffffffffffffffffffffffff60601b606084901b16016001600160601b038216019392505050565b600061264e8383611c9c565b61265a57506000610c9c565b5060008181526001838101602081815260408085205487835281862080548288528388208190558752938352908520559383529390925290915590565b604080516001600160a01b038416602482015260448082018490528251808303909101815260649091019091526020810180516001600160e01b031663a9059cbb60e01b1790526117549084906129b6565b604080516001600160a01b0380861660248301528416604482015260648082018490528251808303909101815260849091019091526020810180516001600160e01b03166323b872dd60e01b17905261224e9085906129b6565b60016000818152602083815260408083206002600160601b031990819055835293830190529190912055565b600061277b8383612a67565b6127cc576040805162461bcd60e51b815260206004820152601b60248201527f4d757374206861766520494420746f2067657420416464726573730000000000604482015290519081900360640190fd5b506001016001600160401b0316600090815260209190915260409020546001600160a01b031690565b60008061280184611faf565b925050506001600160601b038116612860576040805162461bcd60e51b815260206004820152601f60248201527f496e73657274696e67207a65726f206973206e6f7420737570706f7274656400604482015290519081900360640190fd5b6001841480159061287957506002600160601b03198414155b6128ca576040805162461bcd60e51b815260206004820152601e60248201527f496e73657274696e6720656c656d656e74206973206e6f742076616c69640000604482015290519081900360640190fd5b6128d48585611c9c565b156128e3576000915050611127565b6001831480159061290257506000838152600186016020526040902054155b15612911576000915050611127565b61291b838561207e565b612929576000915050611127565b5b600083815260208690526040902054612955576000928352600185016020526040909220549161292a565b6000835b600081815260208890526040902054909150612975818761207e565b612959576000828152602088815260408083208990558383526001808b0183528184208a905589845281842095909555908990529020559150509392505050565b6060612a0b826040518060400160405280602081526020017f5361666545524332303a206c6f772d6c6576656c2063616c6c206661696c6564815250856001600160a01b0316612a919092919063ffffffff16565b80519091501561175457808060200190516020811015612a2a57600080fd5b50516117545760405162461bcd60e51b815260040180806020018281038252602a815260200180612f5e602a913960400191505060405180910390fd5b6001016001600160401b0316600090815260209190915260409020546001600160a01b0316151590565b6060611124848460008585612aa585612bb7565b612af6576040805162461bcd60e51b815260206004820152601d60248201527f416464726573733a2063616c6c20746f206e6f6e2d636f6e7472616374000000604482015290519081900360640190fd5b60006060866001600160a01b031685876040518082805190602001908083835b60208310612b355780518252601f199092019160209182019101612b16565b6001836020036101000a03801982511681845116808217855250505050505090500191505060006040518083038185875af1925050503d8060008114612b97576040519150601f19603f3d011682016040523d82523d6000602084013e612b9c565b606091505b5091509150612bac828286612bbd565b979650505050505050565b3b151590565b60608315612bcc575081611127565b825115612bdc5782518084602001fd5b8160405162461bcd60e51b81526004018080602001828103825283818151815260200191508051906020019080838360005b83811015612c26578181015183820152602001612c0e565b50505050905090810190601f168015612c535780820380516001836020036101000a031916815260200191505b509250505060405180910390fdfe53616665436173743a2076616c756520646f65736e27742066697420696e20393620626974736e6f7420616c6c6f77656420746f20736574746c652061756374696f6e2061746f6d6963616c6c7970726563616c63756c61746553656c6c416d6f756e7453756d20697320616c726561647920746f6f20616476616e6365644f6e6c792074686520757365722063616e2063616e63656c20686973206f7264657273746f6b656e732063616e6e6f742062652061756374696f6e656420666f7220667265656e6f206c6f6e67657220696e206f7264657220706c6163656d656e7420616e642063616e63656c6174696f6e2070686173655f6d696e427579416d6f756e7473206d7573742062652067726561746572207468616e2030547279696e6720746f20676574206e657874206f66206c61737420656c656d656e7461756374696f6e20656e642064617465206d75737420626520696e20746865206675747572654f6e6c79206f6e65206f726465722063616e20626520706c616365642061746f6d6963616c6c79547279696e6720746f20676574206e657874206f66206e6f6e2d6578697374656e7420656c656d656e746d696e696d756d42696464696e67416d6f756e745065724f72646572206973206e6f7420616c6c6f77656420746f206265207a65726f536166654d6174683a206d756c7469706c69636174696f6e206f766572666c6f7753616665436173743a2076616c756520646f65736e27742066697420696e20363420626974736f6e6c7920616c6c6f77656420746f20636c61696d20666f722073616d65207573657241756374696f6e206e6f7420696e20736f6c7574696f6e207375626d697373696f6e20706861736575736572206973206e6f7420616c6c6f77656420746f20706c6163652073616d65206f726465722074776963656c696d6974207072696365206e6f7420626574746572207468616e206d696d696d616c206f6666657274696d6520706572696f647320617265206e6f7420636f6e6669677572656420636f72726563746c795361666545524332303a204552433230206f7065726174696f6e20646964206e6f7420737563636565646e6f206c6f6e67657220696e206f7264657220706c6163656d656e74207068617365a264697066735822122070b153567cd99f16d0a2a93a596a1dd0cbf78be9f8050a9012e16bf25a869f2f64736f6c634300060c0033",
  "devdoc": {
    "kind": "dev",
    "methods": {},
    "version": 1
  },
  "userdoc": {
    "kind": "user",
    "methods": {},
    "version": 1
  },
  "storageLayout": {
    "storage": [
      {
        "astId": 2414,
        "contract": "contracts/sales/FairSale.sol:FairSale",
        "label": "owner",
        "offset": 0,
        "slot": "0",
        "type": "t_address"
      },
      {
        "astId": 2416,
        "contract": "contracts/sales/FairSale.sol:FairSale",
        "label": "tokenOut",
        "offset": 0,
        "slot": "1",
        "type": "t_contract(IERC20)1305"
      },
      {
        "astId": 2418,
        "contract": "contracts/sales/FairSale.sol:FairSale",
        "label": "tokenIn",
        "offset": 0,
        "slot": "2",
        "type": "t_contract(IERC20)1305"
      },
      {
        "astId": 2420,
        "contract": "contracts/sales/FairSale.sol:FairSale",
        "label": "orderCancellationEndDate",
        "offset": 0,
        "slot": "3",
        "type": "t_uint256"
      },
      {
        "astId": 2422,
        "contract": "contracts/sales/FairSale.sol:FairSale",
        "label": "auctionEndDate",
        "offset": 0,
        "slot": "4",
        "type": "t_uint256"
      },
      {
        "astId": 2424,
        "contract": "contracts/sales/FairSale.sol:FairSale",
        "label": "initialAuctionOrder",
        "offset": 0,
        "slot": "5",
        "type": "t_bytes32"
      },
      {
        "astId": 2426,
        "contract": "contracts/sales/FairSale.sol:FairSale",
        "label": "minimumBiddingAmountPerOrder",
        "offset": 0,
        "slot": "6",
        "type": "t_uint256"
      },
      {
        "astId": 2428,
        "contract": "contracts/sales/FairSale.sol:FairSale",
        "label": "interimSumBidAmount",
        "offset": 0,
        "slot": "7",
        "type": "t_uint256"
      },
      {
        "astId": 2430,
        "contract": "contracts/sales/FairSale.sol:FairSale",
        "label": "interimOrder",
        "offset": 0,
        "slot": "8",
        "type": "t_bytes32"
      },
      {
        "astId": 2432,
        "contract": "contracts/sales/FairSale.sol:FairSale",
        "label": "clearingPriceOrder",
        "offset": 0,
        "slot": "9",
        "type": "t_bytes32"
      },
      {
        "astId": 2434,
        "contract": "contracts/sales/FairSale.sol:FairSale",
        "label": "volumeClearingPriceOrder",
        "offset": 0,
        "slot": "10",
        "type": "t_uint96"
      },
      {
        "astId": 2436,
        "contract": "contracts/sales/FairSale.sol:FairSale",
        "label": "minFundingThresholdNotReached",
        "offset": 12,
        "slot": "10",
        "type": "t_bool"
      },
      {
        "astId": 2438,
        "contract": "contracts/sales/FairSale.sol:FairSale",
        "label": "isAtomicClosureAllowed",
        "offset": 13,
        "slot": "10",
        "type": "t_bool"
      },
      {
        "astId": 2440,
        "contract": "contracts/sales/FairSale.sol:FairSale",
        "label": "minFundingThreshold",
        "offset": 0,
        "slot": "11",
        "type": "t_uint256"
      },
      {
        "astId": 2442,
        "contract": "contracts/sales/FairSale.sol:FairSale",
        "label": "sellOrders",
        "offset": 0,
        "slot": "12",
        "type": "t_struct(Data)5388_storage"
      },
      {
        "astId": 2444,
        "contract": "contracts/sales/FairSale.sol:FairSale",
        "label": "initialized",
        "offset": 0,
        "slot": "14",
        "type": "t_bool"
      },
      {
        "astId": 2446,
        "contract": "contracts/sales/FairSale.sol:FairSale",
        "label": "registeredUsers",
        "offset": 0,
        "slot": "15",
        "type": "t_struct(Data)5197_storage"
      },
      {
        "astId": 2448,
        "contract": "contracts/sales/FairSale.sol:FairSale",
        "label": "numUsers",
        "offset": 0,
        "slot": "17",
        "type": "t_uint64"
      }
    ],
    "types": {
      "t_address": {
        "encoding": "inplace",
        "label": "address",
        "numberOfBytes": "20"
      },
      "t_bool": {
        "encoding": "inplace",
        "label": "bool",
        "numberOfBytes": "1"
      },
      "t_bytes32": {
        "encoding": "inplace",
        "label": "bytes32",
        "numberOfBytes": "32"
      },
      "t_contract(IERC20)1305": {
        "encoding": "inplace",
        "label": "contract IERC20",
        "numberOfBytes": "20"
      },
      "t_mapping(t_address,t_uint64)": {
        "encoding": "mapping",
        "key": "t_address",
        "label": "mapping(address => uint64)",
        "numberOfBytes": "32",
        "value": "t_uint64"
      },
      "t_mapping(t_bytes32,t_bytes32)": {
        "encoding": "mapping",
        "key": "t_bytes32",
        "label": "mapping(bytes32 => bytes32)",
        "numberOfBytes": "32",
        "value": "t_bytes32"
      },
      "t_mapping(t_uint64,t_address)": {
        "encoding": "mapping",
        "key": "t_uint64",
        "label": "mapping(uint64 => address)",
        "numberOfBytes": "32",
        "value": "t_address"
      },
      "t_struct(Data)5197_storage": {
        "encoding": "inplace",
        "label": "struct IdToAddressBiMap.Data",
        "members": [
          {
            "astId": 5192,
            "contract": "contracts/sales/FairSale.sol:FairSale",
            "label": "idToAddress",
            "offset": 0,
            "slot": "0",
            "type": "t_mapping(t_uint64,t_address)"
          },
          {
            "astId": 5196,
            "contract": "contracts/sales/FairSale.sol:FairSale",
            "label": "addressToId",
            "offset": 0,
            "slot": "1",
            "type": "t_mapping(t_address,t_uint64)"
          }
        ],
        "numberOfBytes": "64"
      },
      "t_struct(Data)5388_storage": {
        "encoding": "inplace",
        "label": "struct IterableOrderedOrderSet.Data",
        "members": [
          {
            "astId": 5383,
            "contract": "contracts/sales/FairSale.sol:FairSale",
            "label": "nextMap",
            "offset": 0,
            "slot": "0",
            "type": "t_mapping(t_bytes32,t_bytes32)"
          },
          {
            "astId": 5387,
            "contract": "contracts/sales/FairSale.sol:FairSale",
            "label": "prevMap",
            "offset": 0,
            "slot": "1",
            "type": "t_mapping(t_bytes32,t_bytes32)"
          }
        ],
        "numberOfBytes": "64"
      },
      "t_uint256": {
        "encoding": "inplace",
        "label": "uint256",
        "numberOfBytes": "32"
      },
      "t_uint64": {
        "encoding": "inplace",
        "label": "uint64",
        "numberOfBytes": "8"
      },
      "t_uint96": {
        "encoding": "inplace",
        "label": "uint96",
        "numberOfBytes": "12"
      }
    }
  }
}