{
  "address": "0x906b798a73EFe9482b16b7544B1062d6765A49bf",
  "abi": [
    {
      "inputs": [],
      "stateMutability": "nonpayable",
      "type": "constructor"
    },
    {
      "anonymous": false,
      "inputs": [],
      "name": "SaleCreated",
      "type": "event"
    },
    {
      "anonymous": false,
      "inputs": [
        {
          "indexed": false,
          "internalType": "address",
          "name": "tokenIn",
          "type": "address"
        },
        {
          "indexed": false,
          "internalType": "address",
          "name": "tokenOut",
          "type": "address"
        },
        {
          "indexed": false,
          "internalType": "uint256",
          "name": "tokenPrice",
          "type": "uint256"
        },
        {
          "indexed": false,
          "internalType": "uint256",
          "name": "tokensForSale",
          "type": "uint256"
        },
        {
          "indexed": false,
          "internalType": "uint256",
          "name": "startDate",
          "type": "uint256"
        },
        {
          "indexed": false,
          "internalType": "uint256",
          "name": "endDate",
          "type": "uint256"
        },
        {
          "indexed": false,
          "internalType": "uint256",
          "name": "minCommitment",
          "type": "uint256"
        },
        {
          "indexed": false,
          "internalType": "uint256",
          "name": "maxCommitment",
          "type": "uint256"
        },
        {
          "indexed": false,
          "internalType": "uint256",
          "name": "minRaise",
          "type": "uint256"
        },
        {
          "indexed": false,
          "internalType": "bool",
          "name": "participantList",
          "type": "bool"
        }
      ],
      "name": "TemplateInitialized",
      "type": "event"
    },
    {
      "inputs": [],
      "name": "aquaFactory",
      "outputs": [
        {
          "internalType": "contract IAquaFactory",
          "name": "",
          "type": "address"
        }
      ],
      "stateMutability": "view",
      "type": "function"
    },
    {
      "inputs": [],
      "name": "createSale",
      "outputs": [
        {
          "internalType": "address",
          "name": "newSale",
          "type": "address"
        }
      ],
      "stateMutability": "payable",
      "type": "function"
    },
    {
      "inputs": [],
      "name": "encodedInitData",
      "outputs": [
        {
          "internalType": "bytes",
          "name": "",
          "type": "bytes"
        }
      ],
      "stateMutability": "view",
      "type": "function"
    },
    {
      "inputs": [
        {
          "internalType": "bytes",
          "name": "_data",
          "type": "bytes"
        }
      ],
      "name": "init",
      "outputs": [],
      "stateMutability": "nonpayable",
      "type": "function"
    },
    {
      "inputs": [],
      "name": "isInitialized",
      "outputs": [
        {
          "internalType": "bool",
          "name": "",
          "type": "bool"
        }
      ],
      "stateMutability": "view",
      "type": "function"
    },
    {
      "inputs": [],
      "name": "isSaleCreated",
      "outputs": [
        {
          "internalType": "bool",
          "name": "",
          "type": "bool"
        }
      ],
      "stateMutability": "view",
      "type": "function"
    },
    {
      "inputs": [],
      "name": "metaDataContentHash",
      "outputs": [
        {
          "internalType": "string",
          "name": "",
          "type": "string"
        }
      ],
      "stateMutability": "view",
      "type": "function"
    },
    {
      "inputs": [],
      "name": "saleLauncher",
      "outputs": [
        {
          "internalType": "contract ISaleLauncher",
          "name": "",
          "type": "address"
        }
      ],
      "stateMutability": "view",
      "type": "function"
    },
    {
      "inputs": [],
      "name": "saleTemplateId",
      "outputs": [
        {
          "internalType": "uint256",
          "name": "",
          "type": "uint256"
        }
      ],
      "stateMutability": "view",
      "type": "function"
    },
    {
      "inputs": [
        {
          "internalType": "bytes4",
          "name": "interfaceId",
          "type": "bytes4"
        }
      ],
      "name": "supportsInterface",
      "outputs": [
        {
          "internalType": "bool",
          "name": "",
          "type": "bool"
        }
      ],
      "stateMutability": "view",
      "type": "function"
    },
    {
      "inputs": [],
      "name": "templateLauncher",
      "outputs": [
        {
          "internalType": "address",
          "name": "",
          "type": "address"
        }
      ],
      "stateMutability": "view",
      "type": "function"
    },
    {
      "inputs": [],
      "name": "templateManager",
      "outputs": [
        {
          "internalType": "address",
          "name": "",
          "type": "address"
        }
      ],
      "stateMutability": "view",
      "type": "function"
    },
    {
      "inputs": [],
      "name": "templateName",
      "outputs": [
        {
          "internalType": "string",
          "name": "",
          "type": "string"
        }
      ],
      "stateMutability": "view",
      "type": "function"
    },
    {
      "inputs": [],
      "name": "tokenOut",
      "outputs": [
        {
          "internalType": "address",
          "name": "",
          "type": "address"
        }
      ],
      "stateMutability": "view",
      "type": "function"
    },
    {
      "inputs": [],
      "name": "tokenSupplier",
      "outputs": [
        {
          "internalType": "address",
          "name": "",
          "type": "address"
        }
      ],
      "stateMutability": "view",
      "type": "function"
    },
    {
      "inputs": [],
      "name": "tokensForSale",
      "outputs": [
        {
          "internalType": "uint256",
          "name": "",
          "type": "uint256"
        }
      ],
      "stateMutability": "view",
      "type": "function"
    }
  ],
  "transactionHash": "0xb3b5a1329fdb938214f44a636d33b4def1916f8fef4ee8107466bf15a719bdd8",
  "args": [],
  "solcInputHash": "3c6b894fd2b2fef5ee383711645647e6",
  "bytecode": "0x60806040523480156200001157600080fd5b50620000246301ffc9a760e01b620000ad565b6200003663242c480560e01b620000ad565b6040805180820190915260168082527f4669786564507269636553616c6554656d706c6174650000000000000000000060209092019182526200007c9160019162000132565b5060408051808201909152600280825261060f60f31b6020909201918252620000a6918162000132565b50620001ce565b6001600160e01b031980821614156200010d576040805162461bcd60e51b815260206004820152601c60248201527f4552433136353a20696e76616c696420696e7465726661636520696400000000604482015290519081900360640190fd5b6001600160e01b0319166000908152602081905260409020805460ff19166001179055565b828054600181600116156101000203166002900490600052602060002090601f016020900481019282601f106200017557805160ff1916838001178555620001a5565b82800160010185558215620001a5579182015b82811115620001a557825182559160200191906001019062000188565b50620001b3929150620001b7565b5090565b5b80821115620001b35760008155600101620001b8565b610e5c80620001de6000396000f3fe6080604052600436106100f35760003560e01c8063613bb30b1161008a578063906652be11610059578063906652be14610334578063d0202d3b1461033c578063d4c33f2a14610351578063f569720d14610366576100f3565b8063613bb30b146102e057806366b210c2146102f557806369708c691461030a57806369f30fd11461031f576100f3565b8063392e53cd116100c6578063392e53cd146102225780634d68287e146102375780634ddf47d41461024c5780635aeb431e146102cb576100f3565b806301ffc9a7146100f8578063047f6fe61461014057806312aef8c3146101715780632a98bdbd14610198575b600080fd5b34801561010457600080fd5b5061012c6004803603602081101561011b57600080fd5b50356001600160e01b03191661037b565b604080519115158252519081900360200190f35b34801561014c57600080fd5b5061015561039a565b604080516001600160a01b039092168252519081900360200190f35b34801561017d57600080fd5b506101866103a9565b60408051918252519081900360200190f35b3480156101a457600080fd5b506101ad6103af565b6040805160208082528351818301528351919283929083019185019080838360005b838110156101e75781810151838201526020016101cf565b50505050905090810190601f1680156102145780820380516001836020036101000a031916815260200191505b509250505060405180910390f35b34801561022e57600080fd5b5061012c61043d565b34801561024357600080fd5b50610155610446565b34801561025857600080fd5b506102c96004803603602081101561026f57600080fd5b81019060208101813564010000000081111561028a57600080fd5b82018360208201111561029c57600080fd5b803590602001918460018302840111640100000000831117156102be57600080fd5b50909250905061045b565b005b3480156102d757600080fd5b5061012c610514565b3480156102ec57600080fd5b50610186610522565b34801561030157600080fd5b506101ad610528565b34801561031657600080fd5b50610155610580565b34801561032b57600080fd5b506101ad61058f565b6101556105e9565b34801561034857600080fd5b506101556107e1565b34801561035d57600080fd5b506101556107f0565b34801561037257600080fd5b506101556107ff565b6001600160e01b03191660009081526020819052604090205460ff1690565b6004546001600160a01b031681565b60095481565b600a805460408051602060026001851615610100026000190190941693909304601f810184900484028201840190925281815292918301828280156104355780601f1061040a57610100808354040283529160200191610435565b820191906000526020600020905b81548152906001019060200180831161041857829003601f168201915b505050505081565b600b5460ff1681565b600b546201000090046001600160a01b031681565b60008060008060008060008060008060008060008e8e6101a081101561048057600080fd5b506001600160a01b03813581169e5060208201359d50604082013581169c50606082013581169b50608082013516995060a0810135985060c0810135975060e0810135965061010081013595506101208101359450610140810135935061016081013592506101800135151590506105038d8d8d8d8d8d8d8d8d8d8d8d8d61080e565b505050505050505050505050505050565b600b54610100900460ff1681565b60065481565b6002805460408051602060018416156101000260001901909316849004601f810184900484028201840190925281815292918301828280156104355780601f1061040a57610100808354040283529160200191610435565b6003546001600160a01b031681565b60018054604080516020600284861615610100026000190190941693909304601f810184900484028201840190925281815292918301828280156104355780601f1061040a57610100808354040283529160200191610435565b600b54600090610100900460ff16156106335760405162461bcd60e51b815260040180806020018281038252602c815260200180610dda602c913960400191505060405180910390fd5b6007546001600160a01b0316331461067c5760405162461bcd60e51b8152600401808060200182810382526021815260200180610e066021913960400191505060405180910390fd5b60035460065460085460095460075460405163da550d8960e01b8152600481018581526001600160a01b0394851660248301819052604483018590529285166064830181905260a060848401908152600a80546002600019600183161561010002019091160460a48601819052979099169863da550d899834989097959394919391929160c40190849080156107535780601f1061072857610100808354040283529160200191610753565b820191906000526020600020905b81548152906001019060200180831161073657829003601f168201915b505096505050505050506020604051808303818588803b15801561077657600080fd5b505af115801561078a573d6000803e3d6000fd5b50505050506040513d60208110156107a157600080fd5b5051600b805461ff0019166101001790556040519091507f75ec5602f8c53dccb97de898739afc3eb77713476dd27aa7ea4a4993e322bd8290600090a190565b6008546001600160a01b031681565b6005546001600160a01b031681565b6007546001600160a01b031681565b600b5460ff16156108505760405162461bcd60e51b815260040180806020018281038252602a815260200180610db0602a913960400191505060405180910390fd5b600380546001600160a01b0319166001600160a01b038f169081179091556040805163c45a015560e01b8152905163c45a015591600480820192602092909190829003018186803b1580156108a457600080fd5b505afa1580156108b8573d6000803e3d6000fd5b505050506040513d60208110156108ce57600080fd5b5051600480546001600160a01b0319166001600160a01b039283161780825560408051636a619f9560e11b81529051919093169263d4c33f2a9281810192602092909190829003018186803b15801561092657600080fd5b505afa15801561093a573d6000803e3d6000fd5b505050506040513d602081101561095057600080fd5b5051600580546001600160a01b0319166001600160a01b0392831617905560048054604080516326b4143f60e11b815290519190931692634d68287e9281810192602092909190829003018186803b1580156109ab57600080fd5b505afa1580156109bf573d6000803e3d6000fd5b505050506040513d60208110156109d557600080fd5b8101908080519060200190929190505050600b60026101000a8154816001600160a01b0302191690836001600160a01b031602179055508b6006819055508660098190555088600860006101000a8154816001600160a01b0302191690836001600160a01b031602179055508a600760006101000a8154816001600160a01b0302191690836001600160a01b031602179055506001600b60006101000a81548160ff02191690831515021790555060008115610bff576000600b60029054906101000a90046001600160a01b03166001600160a01b03166332cf5cb66040518163ffffffff1660e01b815260040160206040518083038186803b158015610adb57600080fd5b505afa158015610aef573d6000803e3d6000fd5b505050506040513d6020811015610b0557600080fd5b505160408051600180825281830190925291925060609190602080830190803683370190505090508d81600081518110610b3b57fe5b6001600160a01b0392831660209182029290920181019190915260405163d341c81360e01b8152600481018281528451602483015284519386169363d341c8139386938392604490910191858101910280838360005b83811015610ba9578181015183820152602001610b91565b5050505090500192505050602060405180830381600087803b158015610bce57600080fd5b505af1158015610be2573d6000803e3d6000fd5b505050506040513d6020811015610bf857600080fd5b5051925050505b600754604080516001600160a01b03808f16602080840191909152818f1683850152606083018e9052608083018d905260a083018c905260c083018b905260e083018a905261010083018990526101208301889052938116610140830152841661016080830191909152825180830390910181526101809091019091528051610c8c92600a920190610d1c565b50604080516001600160a01b03808e1682528c1660208201528082018b9052606081018a90526080810189905260a0810188905260c0810187905260e08101869052610100810185905283151561012082015290517f1da4a232fc7842598a5c5385965b07a201fe830ff45c2d6c14614ed4e28f0e11918190036101400190a15050505050505050505050505050565b828054600181600116156101000203166002900490600052602060002090601f016020900481019282601f10610d5d57805160ff1916838001178555610d8a565b82800160010185558215610d8a579182015b82811115610d8a578251825591602001919060010190610d6f565b50610d96929150610d9a565b5090565b5b80821115610d965760008155600101610d9b56fe4669786564507269636553616c6554656d706c6174653a20414c454144595f494e495449414c495a45444669786564507269636553616c6554656d706c6174653a2053616c6520616c726561647920637265617465644669786564507269636553616c6554656d706c6174653a20464f5242494444454ea264697066735822122097b36c368cf19418cb7413fc65c9ad138e708f0af21089599ef7c67c4e4ddaf664736f6c634300060c0033",
  "devdoc": {
    "kind": "dev",
    "methods": {
      "init(bytes)": {
        "details": "setup function expected to be called by templateLauncher to init the template",
        "params": {
          "_data": "encoded template params"
        }
      },
      "supportsInterface(bytes4)": {
        "details": "See {IERC165-supportsInterface}. Time complexity O(1), guaranteed to always use less than 30 000 gas."
      }
    },
    "version": 1
  },
  "userdoc": {
    "kind": "user",
    "methods": {},
    "version": 1
  },
  "storageLayout": {
    "storage": [
      {
        "astId": 13,
        "contract": "contracts/templates/FixedPriceSaleTemplate.sol:FixedPriceSaleTemplate",
        "label": "_supportedInterfaces",
        "offset": 0,
        "slot": "0",
        "type": "t_mapping(t_bytes4,t_bool)"
      },
      {
        "astId": 6428,
        "contract": "contracts/templates/FixedPriceSaleTemplate.sol:FixedPriceSaleTemplate",
        "label": "templateName",
        "offset": 0,
        "slot": "1",
        "type": "t_string_storage"
      },
      {
        "astId": 6430,
        "contract": "contracts/templates/FixedPriceSaleTemplate.sol:FixedPriceSaleTemplate",
        "label": "metaDataContentHash",
        "offset": 0,
        "slot": "2",
        "type": "t_string_storage"
      },
      {
        "astId": 6782,
        "contract": "contracts/templates/FixedPriceSaleTemplate.sol:FixedPriceSaleTemplate",
        "label": "saleLauncher",
        "offset": 0,
        "slot": "3",
        "type": "t_contract(ISaleLauncher)5218"
      },
      {
        "astId": 6784,
        "contract": "contracts/templates/FixedPriceSaleTemplate.sol:FixedPriceSaleTemplate",
        "label": "aquaFactory",
        "offset": 0,
        "slot": "4",
        "type": "t_contract(IAquaFactory)5145"
      },
      {
        "astId": 6786,
        "contract": "contracts/templates/FixedPriceSaleTemplate.sol:FixedPriceSaleTemplate",
        "label": "templateManager",
        "offset": 0,
        "slot": "5",
        "type": "t_address"
      },
      {
        "astId": 6788,
        "contract": "contracts/templates/FixedPriceSaleTemplate.sol:FixedPriceSaleTemplate",
        "label": "saleTemplateId",
        "offset": 0,
        "slot": "6",
        "type": "t_uint256"
      },
      {
        "astId": 6790,
        "contract": "contracts/templates/FixedPriceSaleTemplate.sol:FixedPriceSaleTemplate",
        "label": "tokenSupplier",
        "offset": 0,
        "slot": "7",
        "type": "t_address"
      },
      {
        "astId": 6792,
        "contract": "contracts/templates/FixedPriceSaleTemplate.sol:FixedPriceSaleTemplate",
        "label": "tokenOut",
        "offset": 0,
        "slot": "8",
        "type": "t_address"
      },
      {
        "astId": 6794,
        "contract": "contracts/templates/FixedPriceSaleTemplate.sol:FixedPriceSaleTemplate",
        "label": "tokensForSale",
        "offset": 0,
        "slot": "9",
        "type": "t_uint256"
      },
      {
        "astId": 6796,
        "contract": "contracts/templates/FixedPriceSaleTemplate.sol:FixedPriceSaleTemplate",
        "label": "encodedInitData",
        "offset": 0,
        "slot": "10",
        "type": "t_bytes_storage"
      },
      {
        "astId": 6798,
        "contract": "contracts/templates/FixedPriceSaleTemplate.sol:FixedPriceSaleTemplate",
        "label": "isInitialized",
        "offset": 0,
        "slot": "11",
        "type": "t_bool"
      },
      {
        "astId": 6800,
        "contract": "contracts/templates/FixedPriceSaleTemplate.sol:FixedPriceSaleTemplate",
        "label": "isSaleCreated",
        "offset": 1,
        "slot": "11",
        "type": "t_bool"
      },
      {
        "astId": 6802,
        "contract": "contracts/templates/FixedPriceSaleTemplate.sol:FixedPriceSaleTemplate",
        "label": "templateLauncher",
        "offset": 2,
        "slot": "11",
        "type": "t_address"
      }
    ],
    "types": {
      "t_address": {
        "encoding": "inplace",
        "label": "address",
        "numberOfBytes": "20"
      },
      "t_bool": {
        "encoding": "inplace",
        "label": "bool",
        "numberOfBytes": "1"
      },
      "t_bytes4": {
        "encoding": "inplace",
        "label": "bytes4",
        "numberOfBytes": "4"
      },
      "t_bytes_storage": {
        "encoding": "bytes",
        "label": "bytes",
        "numberOfBytes": "32"
      },
      "t_contract(IAquaFactory)5145": {
        "encoding": "inplace",
        "label": "contract IAquaFactory",
        "numberOfBytes": "20"
      },
      "t_contract(ISaleLauncher)5218": {
        "encoding": "inplace",
        "label": "contract ISaleLauncher",
        "numberOfBytes": "20"
      },
      "t_mapping(t_bytes4,t_bool)": {
        "encoding": "mapping",
        "key": "t_bytes4",
        "label": "mapping(bytes4 => bool)",
        "numberOfBytes": "32",
        "value": "t_bool"
      },
      "t_string_storage": {
        "encoding": "bytes",
        "label": "string",
        "numberOfBytes": "32"
      },
      "t_uint256": {
        "encoding": "inplace",
        "label": "uint256",
        "numberOfBytes": "32"
      }
    }
  }
}