{
  "address": "0x6cd41f18971b67db155119Df6Af5A15CAFccA5f0",
  "abi": [
    {
      "anonymous": false,
      "inputs": [
        {
          "indexed": true,
          "internalType": "address",
          "name": "user",
          "type": "address"
        },
        {
          "indexed": true,
          "internalType": "uint256",
          "name": "amount",
          "type": "uint256"
        }
      ],
      "name": "NewCommitment",
      "type": "event"
    },
    {
      "anonymous": false,
      "inputs": [
        {
          "indexed": true,
          "internalType": "address",
          "name": "user",
          "type": "address"
        },
        {
          "indexed": true,
          "internalType": "uint256",
          "name": "amount",
          "type": "uint256"
        }
      ],
      "name": "NewTokenRelease",
      "type": "event"
    },
    {
      "anonymous": false,
      "inputs": [
        {
          "indexed": true,
          "internalType": "address",
          "name": "user",
          "type": "address"
        },
        {
          "indexed": true,
          "internalType": "uint256",
          "name": "amount",
          "type": "uint256"
        }
      ],
      "name": "NewTokenWithdraw",
      "type": "event"
    },
    {
      "anonymous": false,
      "inputs": [],
      "name": "SaleClosed",
      "type": "event"
    },
    {
      "anonymous": false,
      "inputs": [
        {
          "indexed": false,
          "internalType": "contract IERC20",
          "name": "tokenIn",
          "type": "address"
        },
        {
          "indexed": false,
          "internalType": "contract IERC20",
          "name": "tokenOut",
          "type": "address"
        },
        {
          "indexed": false,
          "internalType": "uint256",
          "name": "tokenPrice",
          "type": "uint256"
        },
        {
          "indexed": false,
          "internalType": "uint256",
          "name": "tokensForSale",
          "type": "uint256"
        },
        {
          "indexed": false,
          "internalType": "uint256",
          "name": "startDate",
          "type": "uint256"
        },
        {
          "indexed": false,
          "internalType": "uint256",
          "name": "endDate",
          "type": "uint256"
        },
        {
          "indexed": false,
          "internalType": "uint256",
          "name": "minCommitment",
          "type": "uint256"
        },
        {
          "indexed": false,
          "internalType": "uint256",
          "name": "maxCommitment",
          "type": "uint256"
        },
        {
          "indexed": false,
          "internalType": "uint256",
          "name": "minRaise",
          "type": "uint256"
        },
        {
          "indexed": false,
          "internalType": "address",
          "name": "owner",
          "type": "address"
        },
        {
          "indexed": false,
          "internalType": "address",
          "name": "participantList",
          "type": "address"
        }
      ],
      "name": "SaleInitialized",
      "type": "event"
    },
    {
      "inputs": [
        {
          "internalType": "address",
          "name": "token",
          "type": "address"
        },
        {
          "internalType": "uint256",
          "name": "amount",
          "type": "uint256"
        }
      ],
      "name": "ERC20Withdraw",
      "outputs": [],
      "stateMutability": "nonpayable",
      "type": "function"
    },
    {
      "inputs": [
        {
          "internalType": "uint256",
          "name": "amount",
          "type": "uint256"
        }
      ],
      "name": "ETHWithdraw",
      "outputs": [],
      "stateMutability": "nonpayable",
      "type": "function"
    },
    {
      "inputs": [],
      "name": "TEMPLATE_NAME",
      "outputs": [
        {
          "internalType": "string",
          "name": "",
          "type": "string"
        }
      ],
      "stateMutability": "view",
      "type": "function"
    },
    {
      "inputs": [],
      "name": "closeSale",
      "outputs": [],
      "stateMutability": "nonpayable",
      "type": "function"
    },
    {
      "inputs": [
        {
          "internalType": "uint256",
          "name": "amount",
          "type": "uint256"
        }
      ],
      "name": "commitTokens",
      "outputs": [],
      "stateMutability": "nonpayable",
      "type": "function"
    },
    {
      "inputs": [
        {
          "internalType": "address",
          "name": "",
          "type": "address"
        }
      ],
      "name": "commitment",
      "outputs": [
        {
          "internalType": "uint256",
          "name": "",
          "type": "uint256"
        }
      ],
      "stateMutability": "view",
      "type": "function"
    },
    {
      "inputs": [
        {
          "internalType": "bytes",
          "name": "_data",
          "type": "bytes"
        }
      ],
      "name": "init",
      "outputs": [],
      "stateMutability": "nonpayable",
      "type": "function"
    },
    {
      "inputs": [],
      "name": "isMinRaiseReached",
      "outputs": [
        {
          "internalType": "bool",
          "name": "",
          "type": "bool"
        }
      ],
      "stateMutability": "view",
      "type": "function"
    },
    {
      "inputs": [],
      "name": "isSaleEnded",
      "outputs": [
        {
          "internalType": "bool",
          "name": "",
          "type": "bool"
        }
      ],
      "stateMutability": "view",
      "type": "function"
    },
    {
      "inputs": [],
      "name": "owner",
      "outputs": [
        {
          "internalType": "address",
          "name": "",
          "type": "address"
        }
      ],
      "stateMutability": "view",
      "type": "function"
    },
    {
      "inputs": [],
      "name": "remainingTokensForSale",
      "outputs": [
        {
          "internalType": "uint256",
          "name": "",
          "type": "uint256"
        }
      ],
      "stateMutability": "view",
      "type": "function"
    },
    {
      "inputs": [],
      "name": "saleInfo",
      "outputs": [
        {
          "internalType": "contract IERC20",
          "name": "tokenIn",
          "type": "address"
        },
        {
          "internalType": "contract IERC20",
          "name": "tokenOut",
          "type": "address"
        },
        {
          "internalType": "uint256",
          "name": "tokenPrice",
          "type": "uint256"
        },
        {
          "internalType": "uint256",
          "name": "tokensForSale",
          "type": "uint256"
        },
        {
          "internalType": "uint256",
          "name": "startDate",
          "type": "uint256"
        },
        {
          "internalType": "uint256",
          "name": "endDate",
          "type": "uint256"
        },
        {
          "internalType": "uint256",
          "name": "minCommitment",
          "type": "uint256"
        },
        {
          "internalType": "uint256",
          "name": "maxCommitment",
          "type": "uint256"
        },
        {
          "internalType": "uint256",
          "name": "minRaise",
          "type": "uint256"
        },
        {
          "internalType": "bool",
          "name": "hasParticipantList",
          "type": "bool"
        },
        {
          "internalType": "address",
          "name": "participantList",
          "type": "address"
        }
      ],
      "stateMutability": "view",
      "type": "function"
    },
    {
      "inputs": [],
      "name": "saleStatus",
      "outputs": [
        {
          "internalType": "uint256",
          "name": "tokensCommitted",
          "type": "uint256"
        },
        {
          "internalType": "bool",
          "name": "isClosed",
          "type": "bool"
        },
        {
          "internalType": "bool",
          "name": "saleSucceeded",
          "type": "bool"
        },
        {
          "internalType": "bool",
          "name": "initialized",
          "type": "bool"
        }
      ],
      "stateMutability": "view",
      "type": "function"
    },
    {
      "inputs": [],
      "name": "secondsRemainingInSale",
      "outputs": [
        {
          "internalType": "uint256",
          "name": "",
          "type": "uint256"
        }
      ],
      "stateMutability": "view",
      "type": "function"
    },
    {
      "inputs": [
        {
          "internalType": "address",
          "name": "user",
          "type": "address"
        }
      ],
      "name": "withdrawTokens",
      "outputs": [],
      "stateMutability": "nonpayable",
      "type": "function"
    },
    {
      "stateMutability": "payable",
      "type": "receive"
    }
  ],
  "transactionHash": "0xe2f2c1c0666e7d374e9f2f5cb0717296c0259cb950d4773ed6b18feeaeecf0e3",
  "args": [],
  "solcInputHash": "3b69c23e6cc50e18a8a29a4bfccc15fd",
  "bytecode": "0x608060405234801561001057600080fd5b50611c55806100206000396000f3fe6080604052600436106100ec5760003560e01c80638e92d2301161008a578063d530f4e711610059578063d530f4e7146103cf578063ee55efee14610408578063f9020e331461041d578063f90598321461045a576100f3565b80638e92d230146103345780639b39f9bf1461035d578063b18f0de214610372578063c58125bc146103a5576100f3565b80634ddf47d4116100c65780634ddf47d4146101e15780638c3d2c5d1461025e5780638da5cb5b146102855780638e3695b8146102b6576100f3565b80630482a787146100f85780632898f7d11461012457806349df728c146101ae576100f3565b366100f357005b600080fd5b34801561010457600080fd5b506101226004803603602081101561011b57600080fd5b503561046f565b005b34801561013057600080fd5b506101396107f3565b6040805160208082528351818301528351919283929083019185019080838360005b8381101561017357818101518382015260200161015b565b50505050905090810190601f1680156101a05780820380516001836020036101000a031916815260200191505b509250505060405180910390f35b3480156101ba57600080fd5b50610122600480360360208110156101d157600080fd5b50356001600160a01b031661081d565b3480156101ed57600080fd5b506101226004803603602081101561020457600080fd5b81019060208101813564010000000081111561021f57600080fd5b82018360208201111561023157600080fd5b8035906020019184600183028401116401000000008311171561025357600080fd5b509092509050610a08565b34801561026a57600080fd5b50610273610afe565b60408051918252519081900360200190f35b34801561029157600080fd5b5061029a610b28565b604080516001600160a01b039092168252519081900360200190f35b3480156102c257600080fd5b506102cb610b37565b604080516001600160a01b039c8d1681529a8c1660208c01528a81019990995260608a0197909752608089019590955260a088019390935260c087019190915260e086015261010085015215156101208401529092166101408201529051908190036101600190f35b34801561034057600080fd5b50610349610b73565b604080519115158252519081900360200190f35b34801561036957600080fd5b50610273610b7e565b34801561037e57600080fd5b506102736004803603602081101561039557600080fd5b50356001600160a01b0316610b9a565b3480156103b157600080fd5b50610122600480360360208110156103c857600080fd5b5035610bac565b3480156103db57600080fd5b50610122600480360360408110156103f257600080fd5b506001600160a01b038135169060200135610cb4565b34801561041457600080fd5b50610122610e1f565b34801561042957600080fd5b50610432610fbe565b6040805194855292151560208501529015158383015215156060830152519081900360800190f35b34801561046657600080fd5b50610349610fdd565b600c5460ff16156104c7576040805162461bcd60e51b815260206004820152601b60248201527f4669786564507269636553616c653a2073616c6520636c6f7365640000000000604482015290519081900360640190fd5b60075481101561051e576040805162461bcd60e51b815260206004820152601d60248201527f4669786564507269636553616c653a20616d6f756e7420746f206c6f77000000604482015290519081900360640190fd5b60085415806105485750600854336000908152600d60205260409020546105459083611000565b11155b6105835760405162461bcd60e51b8152600401808060200182810382526025815260200180611a256025913960400191505060405180910390fd5b60055442116105d9576040805162461bcd60e51b815260206004820181905260248201527f4669786564507269636553616c653a2073616c65206e6f742073746172746564604482015290519081900360640190fd5b600654421061062f576040805162461bcd60e51b815260206004820152601f60248201527f4669786564507269636553616c653a20646561646c696e652070617373656400604482015290519081900360640190fd5b600454600b54610648906106439084611000565b611063565b111561069b576040805162461bcd60e51b815260206004820152601d60248201527f4669786564507269636553616c653a2073616c6520736f6c64206f7574000000604482015290519081900360640190fd5b600a5460ff161561075c57600a546040805163fa33bcf360e01b815233600482015290516101009092046001600160a01b03169163fa33bcf391602480820192602092909190829003018186803b1580156106f557600080fd5b505afa158015610709573d6000803e3d6000fd5b505050506040513d602081101561071f57600080fd5b505161075c5760405162461bcd60e51b8152600401808060200182810382526023815260200180611adc6023913960400191505060405180910390fd5b600154610774906001600160a01b031633308461108f565b336000908152600d602052604090205461078e9082611000565b336000908152600d6020526040902055600b546107ab9082611000565b600b55604051819033907f7e9a3ca048c9f71ad939adc229e657127468a8707ca72a9d69cab142e5176bd790600090a36107e3610fdd565b156107f0576107f0610e1f565b50565b6040518060400160405280600e81526020016d4669786564507269636553616c6560901b81525081565b6001600160a01b0381166000908152600d60205260409020546108715760405162461bcd60e51b8152600401808060200182810382526023815260200180611a4a6023913960400191505060405180910390fd5b610879610b73565b1561095f57600c5460ff166108d5576040805162461bcd60e51b815260206004820152601e60248201527f4669786564507269636553616c653a206e6f7420636c6f736564207965740000604482015290519081900360640190fd5b6001600160a01b0381166000908152600d60205260408120546108f790611063565b6001600160a01b038084166000908152600d6020526040812055600254919250610923911683836110ef565b60405181906001600160a01b038416907fc8706efbdc181acfceadd5cb9d254b5c508ccd1bab2d419b0c130888bc38749990600090a3506107f0565b600654421161099f5760405162461bcd60e51b8152600401808060200182810382526023815260200180611bd86023913960400191505060405180910390fd5b6001600160a01b038082166000908152600d60205260408120805491905560015490916109ce911683836110ef565b60405181906001600160a01b038416907ff64ed2b021f1a87018cd9640c6befb1fd75c93ff7534a4bbc8bd2f674d5d317290600090a35050565b600c5462010000900460ff1615610a5c576040805162461bcd60e51b8152602060048201526013602482015272185b1c9958591e481a5b9a5d1a585b1a5e9959606a1b604482015290519081900360640190fd5b60008060008060008060008060008060008c8c610160811015610a7e57600080fd5b506001600160a01b03813581169c50602082013581169b5060408201359a50606082013599506080820135985060a0820135975060c0820135965060e0820135955061010082013594506101208201358116935061014090910135169050610aef8b8b8b8b8b8b8b8b8b8b8b611259565b50505050505050505050505050565b6000426001600501541015610b1557506000610b25565b600654610b22904261153f565b90505b90565b6000546001600160a01b031681565b600154600254600354600454600554600654600754600854600954600a546001600160a01b03998a16999889169860ff8216916101009004168b565b600954600b54101590565b6000610b22610b91600b60000154611063565b6004549061153f565b600d6020526000908152604090205481565b6000546001600160a01b03163314610c07576040805162461bcd60e51b81526020600482015260196024820152782334bc32b2283934b1b2a9b0b6329d102327a92124a22222a760391b604482015290519081900360640190fd5b600c5460ff16610c5e576040805162461bcd60e51b815260206004820152601f60248201527f4669786564507269636553616c653a2073616c65206e6f7420636c6f73656400604482015290519081900360640190fd5b6006544211610c9e5760405162461bcd60e51b8152600401808060200182810382526024815260200180611aff6024913960400191505060405180910390fd5b6000546107f0906001600160a01b03168261159c565b6000546001600160a01b03163314610d0f576040805162461bcd60e51b81526020600482015260196024820152782334bc32b2283934b1b2a9b0b6329d102327a92124a22222a760391b604482015290519081900360640190fd5b600c5460ff16610d66576040805162461bcd60e51b815260206004820152601f60248201527f4669786564507269636553616c653a2073616c65206e6f7420636c6f73656400604482015290519081900360640190fd5b6006544211610da65760405162461bcd60e51b8152600401808060200182810382526024815260200180611aff6024913960400191505060405180910390fd5b600c54610100900460ff1615610e03576002546001600160a01b0383811691161415610e035760405162461bcd60e51b8152600401808060200182810382526028815260200180611a6d6028913960400191505060405180910390fd5b600054610e1b9083906001600160a01b0316836110ef565b5050565b600c5460ff1615610e77576040805162461bcd60e51b815260206004820152601e60248201527f4669786564507269636553616c653a20616c726561647920636c6f7365640000604482015290519081900360640190fd5b600654421180610e935750600454600b54610e9190611063565b145b610ece5760405162461bcd60e51b8152600401808060200182810382526025815260200180611b896025913960400191505060405180910390fd5b600c805460ff19166001179055610ee3610b73565b15610f6657600c805461ff001916610100179055600154600054600b54610f17926001600160a01b039081169216906110ef565b6000610f27600b60000154611063565b600454909150600090610f3a908361153f565b90508015610f5f57600254600054610f5f916001600160a01b039081169116836110ef565b5050610f93565b600254600054600b54610f93926001600160a01b03908116921690610f8e90610b9190611063565b6110ef565b6040517f4c013bd73202fde3c7cfe26ca486d0882f2c5b2fc9c761b15212f759bd2347dd90600090a1565b600b54600c5460ff808216916101008104821691620100009091041684565b600654600090421180610b225750600454600b54610ffa90611063565b14905090565b60008282018381101561105a576040805162461bcd60e51b815260206004820152601b60248201527f536166654d6174683a206164646974696f6e206f766572666c6f770000000000604482015290519081900360640190fd5b90505b92915050565b600061105d670de0b6b3a76400006110896001600201548561169490919063ffffffff16565b906116ed565b604080516001600160a01b0380861660248301528416604482015260648082018490528251808303909101815260849091019091526020810180516001600160e01b03166323b872dd60e01b1790526110e9908590611754565b50505050565b604080516001600160a01b038481166024830152604480830185905283518084039091018152606490920183526020820180516001600160e01b031663a9059cbb60e01b178152925182516000946060949389169392918291908083835b6020831061116c5780518252601f19909201916020918201910161114d565b6001836020036101000a0380198251168184511680821785525050505050509050019150506000604051808303816000865af19150503d80600081146111ce576040519150601f19603f3d011682016040523d82523d6000602084013e6111d3565b606091505b509150915081801561120157508051158061120157508080602001905160208110156111fe57600080fd5b50515b611252576040805162461bcd60e51b815260206004820152601f60248201527f5472616e7366657248656c7065723a205452414e534645525f4641494c454400604482015290519081900360640190fd5b5050505050565b896001600160a01b03168b6001600160a01b031614156112c0576040805162461bcd60e51b815260206004820152601e60248201527f4669786564507269636553616c653a20696e76616c696420746f6b656e730000604482015290519081900360640190fd5b600089116112ff5760405162461bcd60e51b8152600401808060200182810382526022815260200180611b446022913960400191505060405180910390fd5b6000881161133e5760405162461bcd60e51b8152600401808060200182810382526025815260200180611bfb6025913960400191505060405180910390fd5b4287118061134a575086155b6113855760405162461bcd60e51b8152600401808060200182810382526021815260200180611abb6021913960400191505060405180910390fd5b86861180611391575085155b6113e2576040805162461bcd60e51b815260206004820152601f60248201527f4669786564507269636553616c653a20696e76616c696420656e644461746500604482015290519081900360640190fd5b600c805462ff0000191662010000179055600180546001600160a01b03808e166001600160a01b031992831617909255600280548d8416921691909117905560038a905560048990556005889055600687905560078690556008859055600984905581161561147557600a80546001610100600160a81b03199091166101006001600160a01b038516021760ff19161790555b600080546001600160a01b0319166001600160a01b03848116919091179091556004546002546114aa9216903390309061108f565b604080516001600160a01b03808e168252808d1660208301528183018c9052606082018b9052608082018a905260a0820189905260c0820188905260e082018790526101008201869052808516610120830152831661014082015290517fe7c55c94a56b0ecd972ff9986052bbef6e5e102ecc06dbfb98175610337e35cd918190036101600190a15050505050505050505050565b600082821115611596576040805162461bcd60e51b815260206004820152601e60248201527f536166654d6174683a207375627472616374696f6e206f766572666c6f770000604482015290519081900360640190fd5b50900390565b604080516000808252602082019092526001600160a01b0384169083906040518082805190602001908083835b602083106115e85780518252601f1990920191602091820191016115c9565b6001836020036101000a03801982511681845116808217855250505050505090500191505060006040518083038185875af1925050503d806000811461164a576040519150601f19603f3d011682016040523d82523d6000602084013e61164f565b606091505b505090508061168f5760405162461bcd60e51b8152600401808060200182810382526023815260200180611b666023913960400191505060405180910390fd5b505050565b6000826116a35750600061105d565b828202828482816116b057fe5b041461105a5760405162461bcd60e51b8152600401808060200182810382526021815260200180611b236021913960400191505060405180910390fd5b6000808211611743576040805162461bcd60e51b815260206004820152601a60248201527f536166654d6174683a206469766973696f6e206279207a65726f000000000000604482015290519081900360640190fd5b81838161174c57fe5b049392505050565b60606117a9826040518060400160405280602081526020017f5361666545524332303a206c6f772d6c6576656c2063616c6c206661696c6564815250856001600160a01b03166118059092919063ffffffff16565b80519091501561168f578080602001905160208110156117c857600080fd5b505161168f5760405162461bcd60e51b815260040180806020018281038252602a815260200180611bae602a913960400191505060405180910390fd5b6060611814848460008561181e565b90505b9392505050565b60608247101561185f5760405162461bcd60e51b8152600401808060200182810382526026815260200180611a956026913960400191505060405180910390fd5b6118688561197a565b6118b9576040805162461bcd60e51b815260206004820152601d60248201527f416464726573733a2063616c6c20746f206e6f6e2d636f6e7472616374000000604482015290519081900360640190fd5b60006060866001600160a01b031685876040518082805190602001908083835b602083106118f85780518252601f1990920191602091820191016118d9565b6001836020036101000a03801982511681845116808217855250505050505090500191505060006040518083038185875af1925050503d806000811461195a576040519150601f19603f3d011682016040523d82523d6000602084013e61195f565b606091505b509150915061196f828286611980565b979650505050505050565b3b151590565b6060831561198f575081611817565b82511561199f5782518084602001fd5b8160405162461bcd60e51b81526004018080602001828103825283818151815260200191508051906020019080838360005b838110156119e95781810151838201526020016119d1565b50505050905090810190601f168015611a165780820380516001836020036101000a031916815260200191505b509250505060405180910390fdfe4669786564507269636553616c653a206d6178436f6d6d69746d656e7420726561636865644669786564507269636553616c653a206e6f7468696e6720746f2077697468647261774669786564507269636553616c653a2063616e6e6f7420776974686472617720746f6b656e4f7574416464726573733a20696e73756666696369656e742062616c616e636520666f722063616c6c4669786564507269636553616c653a20696e76616c6964207374617274446174654669786564507269636553616c653a206163636f756e74206e6f7420616c6c6f7765644669786564507269636553616c653a20646561646c696e65206e6f742072656163686564536166654d6174683a206d756c7469706c69636174696f6e206f766572666c6f774669786564507269636553616c653a20696e76616c696420746f6b656e50726963655472616e7366657248656c7065723a204554485f5452414e534645525f4641494c45444669786564507269636553616c653a2073616c652063616e6e6f7420626520636c6f7365645361666545524332303a204552433230206f7065726174696f6e20646964206e6f7420737563636565644669786564507269636553616c653a20656e6444617465206e6f7420726561636865644669786564507269636553616c653a20696e76616c696420746f6b656e73466f7253616c65a26469706673582212206a2e55f7180513383d66d5f65f55059dc0cea177a9bfbaa76ee18b0e876600ee64736f6c634300060c0033",
  "devdoc": {
    "kind": "dev",
    "methods": {
      "ERC20Withdraw(address,uint256)": {
        "details": "withdraw any ERC20 token by owner",
        "params": {
          "amount": "Amount to withdraw",
          "token": "ERC20 token address"
        }
      },
      "ETHWithdraw(uint256)": {
        "details": "withdraw ETH token by owner",
        "params": {
          "amount": "ETH amount to withdraw"
        }
      },
      "closeSale()": {
        "details": "close sale if either minRaise is reached or endDate passed"
      },
      "commitTokens(uint256)": {
        "details": "reserve tokens for a fixed price",
        "params": {
          "amount": "of tokenIn to buy at a fixed price"
        }
      },
      "init(bytes)": {
        "details": "init function expexted to be called by SaleLauncher to init the sale",
        "params": {
          "_data": "encoded init params"
        }
      },
      "remainingTokensForSale()": {
        "details": "to get remaining token at any point of the sale"
      },
      "secondsRemainingInSale()": {
        "details": "to get the remaining time of the sale in seconds"
      },
      "withdrawTokens(address)": {
        "details": "withdraws purchased tokens if sale successfull, if not releases committed tokens"
      }
    },
    "version": 1
  },
  "userdoc": {
    "kind": "user",
    "methods": {},
    "version": 1
  },
  "storageLayout": {
    "storage": [
      {
        "astId": 3754,
        "contract": "contracts/sales/FixedPriceSale.sol:FixedPriceSale",
        "label": "owner",
        "offset": 0,
        "slot": "0",
        "type": "t_address"
      },
      {
        "astId": 3788,
        "contract": "contracts/sales/FixedPriceSale.sol:FixedPriceSale",
        "label": "saleInfo",
        "offset": 0,
        "slot": "1",
        "type": "t_struct(SaleInfo)3777_storage"
      },
      {
        "astId": 3790,
        "contract": "contracts/sales/FixedPriceSale.sol:FixedPriceSale",
        "label": "saleStatus",
        "offset": 0,
        "slot": "11",
        "type": "t_struct(SaleStatus)3786_storage"
      },
      {
        "astId": 3794,
        "contract": "contracts/sales/FixedPriceSale.sol:FixedPriceSale",
        "label": "commitment",
        "offset": 0,
        "slot": "13",
        "type": "t_mapping(t_address,t_uint256)"
      }
    ],
    "types": {
      "t_address": {
        "encoding": "inplace",
        "label": "address",
        "numberOfBytes": "20"
      },
      "t_bool": {
        "encoding": "inplace",
        "label": "bool",
        "numberOfBytes": "1"
      },
      "t_contract(IERC20)1305": {
        "encoding": "inplace",
        "label": "contract IERC20",
        "numberOfBytes": "20"
      },
      "t_mapping(t_address,t_uint256)": {
        "encoding": "mapping",
        "key": "t_address",
        "label": "mapping(address => uint256)",
        "numberOfBytes": "32",
        "value": "t_uint256"
      },
      "t_struct(SaleInfo)3777_storage": {
        "encoding": "inplace",
        "label": "struct FixedPriceSale.SaleInfo",
        "members": [
          {
            "astId": 3756,
            "contract": "contracts/sales/FixedPriceSale.sol:FixedPriceSale",
            "label": "tokenIn",
            "offset": 0,
            "slot": "0",
            "type": "t_contract(IERC20)1305"
          },
          {
            "astId": 3758,
            "contract": "contracts/sales/FixedPriceSale.sol:FixedPriceSale",
            "label": "tokenOut",
            "offset": 0,
            "slot": "1",
            "type": "t_contract(IERC20)1305"
          },
          {
            "astId": 3760,
            "contract": "contracts/sales/FixedPriceSale.sol:FixedPriceSale",
            "label": "tokenPrice",
            "offset": 0,
            "slot": "2",
            "type": "t_uint256"
          },
          {
            "astId": 3762,
            "contract": "contracts/sales/FixedPriceSale.sol:FixedPriceSale",
            "label": "tokensForSale",
            "offset": 0,
            "slot": "3",
            "type": "t_uint256"
          },
          {
            "astId": 3764,
            "contract": "contracts/sales/FixedPriceSale.sol:FixedPriceSale",
            "label": "startDate",
            "offset": 0,
            "slot": "4",
            "type": "t_uint256"
          },
          {
            "astId": 3766,
            "contract": "contracts/sales/FixedPriceSale.sol:FixedPriceSale",
            "label": "endDate",
            "offset": 0,
            "slot": "5",
            "type": "t_uint256"
          },
          {
            "astId": 3768,
            "contract": "contracts/sales/FixedPriceSale.sol:FixedPriceSale",
            "label": "minCommitment",
            "offset": 0,
            "slot": "6",
            "type": "t_uint256"
          },
          {
            "astId": 3770,
            "contract": "contracts/sales/FixedPriceSale.sol:FixedPriceSale",
            "label": "maxCommitment",
            "offset": 0,
            "slot": "7",
            "type": "t_uint256"
          },
          {
            "astId": 3772,
            "contract": "contracts/sales/FixedPriceSale.sol:FixedPriceSale",
            "label": "minRaise",
            "offset": 0,
            "slot": "8",
            "type": "t_uint256"
          },
          {
            "astId": 3774,
            "contract": "contracts/sales/FixedPriceSale.sol:FixedPriceSale",
            "label": "hasParticipantList",
            "offset": 0,
            "slot": "9",
            "type": "t_bool"
          },
          {
            "astId": 3776,
            "contract": "contracts/sales/FixedPriceSale.sol:FixedPriceSale",
            "label": "participantList",
            "offset": 1,
            "slot": "9",
            "type": "t_address"
          }
        ],
        "numberOfBytes": "320"
      },
      "t_struct(SaleStatus)3786_storage": {
        "encoding": "inplace",
        "label": "struct FixedPriceSale.SaleStatus",
        "members": [
          {
            "astId": 3779,
            "contract": "contracts/sales/FixedPriceSale.sol:FixedPriceSale",
            "label": "tokensCommitted",
            "offset": 0,
            "slot": "0",
            "type": "t_uint256"
          },
          {
            "astId": 3781,
            "contract": "contracts/sales/FixedPriceSale.sol:FixedPriceSale",
            "label": "isClosed",
            "offset": 0,
            "slot": "1",
            "type": "t_bool"
          },
          {
            "astId": 3783,
            "contract": "contracts/sales/FixedPriceSale.sol:FixedPriceSale",
            "label": "saleSucceeded",
            "offset": 1,
            "slot": "1",
            "type": "t_bool"
          },
          {
            "astId": 3785,
            "contract": "contracts/sales/FixedPriceSale.sol:FixedPriceSale",
            "label": "initialized",
            "offset": 2,
            "slot": "1",
            "type": "t_bool"
          }
        ],
        "numberOfBytes": "64"
      },
      "t_uint256": {
        "encoding": "inplace",
        "label": "uint256",
        "numberOfBytes": "32"
      }
    }
  }
}