{
  "_format": "hh-sol-artifact-1",
  "contractName": "FixedPriceAuction",
  "sourceName": "contracts/auctions/FixedPriceAuction.sol",
  "abi": [
    {
      "inputs": [],
      "stateMutability": "nonpayable",
      "type": "constructor"
    },
    {
      "anonymous": false,
      "inputs": [],
      "name": "AuctionClosed",
      "type": "event"
    },
    {
      "anonymous": false,
      "inputs": [
        {
          "indexed": false,
          "internalType": "contract IERC20",
          "name": "tokenIn",
          "type": "address"
        },
        {
          "indexed": false,
          "internalType": "contract IERC20",
          "name": "tokenOut",
          "type": "address"
        },
        {
          "indexed": false,
          "internalType": "uint256",
          "name": "tokenPrice",
          "type": "uint256"
        },
        {
          "indexed": false,
          "internalType": "uint256",
          "name": "tokensForSale",
          "type": "uint256"
        },
        {
          "indexed": false,
          "internalType": "uint256",
          "name": "startDate",
          "type": "uint256"
        },
        {
          "indexed": false,
          "internalType": "uint256",
          "name": "endDate",
          "type": "uint256"
        },
        {
          "indexed": false,
          "internalType": "uint256",
          "name": "allocationMin",
          "type": "uint256"
        },
        {
          "indexed": false,
          "internalType": "uint256",
          "name": "allocationMax",
          "type": "uint256"
        },
        {
          "indexed": false,
          "internalType": "uint256",
          "name": "minimumRaise",
          "type": "uint256"
        }
      ],
      "name": "AuctionInitalized",
      "type": "event"
    },
    {
      "anonymous": false,
      "inputs": [
        {
          "indexed": true,
          "internalType": "address",
          "name": "buyer",
          "type": "address"
        },
        {
          "indexed": true,
          "internalType": "uint256",
          "name": "amount",
          "type": "uint256"
        }
      ],
      "name": "NewPurchase",
      "type": "event"
    },
    {
      "anonymous": false,
      "inputs": [
        {
          "indexed": true,
          "internalType": "address",
          "name": "buyer",
          "type": "address"
        },
        {
          "indexed": true,
          "internalType": "uint256",
          "name": "amount",
          "type": "uint256"
        }
      ],
      "name": "NewTokenClaim",
      "type": "event"
    },
    {
      "anonymous": false,
      "inputs": [
        {
          "indexed": true,
          "internalType": "address",
          "name": "buyer",
          "type": "address"
        },
        {
          "indexed": true,
          "internalType": "uint256",
          "name": "amount",
          "type": "uint256"
        }
      ],
      "name": "NewTokenRelease",
      "type": "event"
    },
    {
      "inputs": [
        {
          "internalType": "address",
          "name": "token",
          "type": "address"
        },
        {
          "internalType": "uint256",
          "name": "amount",
          "type": "uint256"
        }
      ],
      "name": "ERC20Withdraw",
      "outputs": [],
      "stateMutability": "nonpayable",
      "type": "function"
    },
    {
      "inputs": [
        {
          "internalType": "uint256",
          "name": "amount",
          "type": "uint256"
        }
      ],
      "name": "ETHWithdraw",
      "outputs": [],
      "stateMutability": "nonpayable",
      "type": "function"
    },
    {
      "inputs": [],
      "name": "allocationMax",
      "outputs": [
        {
          "internalType": "uint256",
          "name": "",
          "type": "uint256"
        }
      ],
      "stateMutability": "view",
      "type": "function"
    },
    {
      "inputs": [],
      "name": "allocationMin",
      "outputs": [
        {
          "internalType": "uint256",
          "name": "",
          "type": "uint256"
        }
      ],
      "stateMutability": "view",
      "type": "function"
    },
    {
      "inputs": [
        {
          "internalType": "uint256",
          "name": "amount",
          "type": "uint256"
        }
      ],
      "name": "buyTokens",
      "outputs": [],
      "stateMutability": "nonpayable",
      "type": "function"
    },
    {
      "inputs": [],
      "name": "claimTokens",
      "outputs": [],
      "stateMutability": "nonpayable",
      "type": "function"
    },
    {
      "inputs": [],
      "name": "closeAuction",
      "outputs": [],
      "stateMutability": "nonpayable",
      "type": "function"
    },
    {
      "inputs": [],
      "name": "endDate",
      "outputs": [
        {
          "internalType": "uint256",
          "name": "",
          "type": "uint256"
        }
      ],
      "stateMutability": "view",
      "type": "function"
    },
    {
      "inputs": [
        {
          "internalType": "bytes",
          "name": "_data",
          "type": "bytes"
        }
      ],
      "name": "init",
      "outputs": [],
      "stateMutability": "nonpayable",
      "type": "function"
    },
    {
      "inputs": [],
      "name": "isClosed",
      "outputs": [
        {
          "internalType": "bool",
          "name": "",
          "type": "bool"
        }
      ],
      "stateMutability": "view",
      "type": "function"
    },
    {
      "inputs": [],
      "name": "minimumRaise",
      "outputs": [
        {
          "internalType": "uint256",
          "name": "",
          "type": "uint256"
        }
      ],
      "stateMutability": "view",
      "type": "function"
    },
    {
      "inputs": [],
      "name": "owner",
      "outputs": [
        {
          "internalType": "address",
          "name": "",
          "type": "address"
        }
      ],
      "stateMutability": "view",
      "type": "function"
    },
    {
      "inputs": [],
      "name": "releaseTokens",
      "outputs": [],
      "stateMutability": "nonpayable",
      "type": "function"
    },
    {
      "inputs": [],
      "name": "secondsRemainingInAuction",
      "outputs": [
        {
          "internalType": "uint256",
          "name": "",
          "type": "uint256"
        }
      ],
      "stateMutability": "view",
      "type": "function"
    },
    {
      "inputs": [],
      "name": "startDate",
      "outputs": [
        {
          "internalType": "uint256",
          "name": "",
          "type": "uint256"
        }
      ],
      "stateMutability": "view",
      "type": "function"
    },
    {
      "inputs": [],
      "name": "tokenIn",
      "outputs": [
        {
          "internalType": "contract IERC20",
          "name": "",
          "type": "address"
        }
      ],
      "stateMutability": "view",
      "type": "function"
    },
    {
      "inputs": [],
      "name": "tokenOut",
      "outputs": [
        {
          "internalType": "contract IERC20",
          "name": "",
          "type": "address"
        }
      ],
      "stateMutability": "view",
      "type": "function"
    },
    {
      "inputs": [],
      "name": "tokenPrice",
      "outputs": [
        {
          "internalType": "uint256",
          "name": "",
          "type": "uint256"
        }
      ],
      "stateMutability": "view",
      "type": "function"
    },
    {
      "inputs": [],
      "name": "tokensForSale",
      "outputs": [
        {
          "internalType": "uint256",
          "name": "",
          "type": "uint256"
        }
      ],
      "stateMutability": "view",
      "type": "function"
    },
    {
      "inputs": [
        {
          "internalType": "address",
          "name": "",
          "type": "address"
        }
      ],
      "name": "tokensPurchased",
      "outputs": [
        {
          "internalType": "uint256",
          "name": "",
          "type": "uint256"
        }
      ],
      "stateMutability": "view",
      "type": "function"
    },
    {
      "inputs": [],
      "name": "tokensRemaining",
      "outputs": [
        {
          "internalType": "uint256",
          "name": "",
          "type": "uint256"
        }
      ],
      "stateMutability": "view",
      "type": "function"
    },
    {
      "inputs": [],
      "name": "tokensSold",
      "outputs": [
        {
          "internalType": "uint256",
          "name": "",
          "type": "uint256"
        }
      ],
      "stateMutability": "view",
      "type": "function"
    },
    {
      "inputs": [
        {
          "internalType": "bytes",
          "name": "_data",
          "type": "bytes"
        }
      ],
      "name": "withdrawFunds",
      "outputs": [],
      "stateMutability": "nonpayable",
      "type": "function"
    },
    {
      "inputs": [],
      "name": "withdrawUnsoldFunds",
      "outputs": [],
      "stateMutability": "nonpayable",
      "type": "function"
    },
    {
      "stateMutability": "payable",
      "type": "receive"
    }
  ],
  "bytecode": "0x608060405234801561001057600080fd5b506119fc806100206000396000f3fe60806040526004361061014f5760003560e01c80638da5cb5b116100b6578063c8b081251161006f578063c8b0812514610431578063cfbc082514610446578063d0202d3b1461045b578063d530f4e714610470578063d7228dbe146104a9578063d90cf26f146104be57610156565b80638da5cb5b1461038a5780638e75b1311461039f578063a96f8668146103b4578063c24a0f8b146103c9578063c2b6b58c146103de578063c58125bc1461040757610156565b80633b56da69116101085780633b56da691461022057806348c54b9d1461029d5780634ddf47d4146102b2578063518ab2a81461032f5780636daf390b146103445780637ff9b5961461037557610156565b80630b97bc861461015b57806312aef8c3146101825780632ad92740146101975780633610724e146101ca578063378252f2146101f657806337aeb3801461020b57610156565b3661015657005b600080fd5b34801561016757600080fd5b506101706104d3565b60408051918252519081900360200190f35b34801561018e57600080fd5b506101706104d9565b3480156101a357600080fd5b50610170600480360360208110156101ba57600080fd5b50356001600160a01b03166104df565b3480156101d657600080fd5b506101f4600480360360208110156101ed57600080fd5b50356104f1565b005b34801561020257600080fd5b506101f4610699565b34801561021757600080fd5b506101f4610796565b34801561022c57600080fd5b506101f46004803603602081101561024357600080fd5b81019060208101813564010000000081111561025e57600080fd5b82018360208201111561027057600080fd5b8035906020019184600183028401116401000000008311171561029257600080fd5b509092509050610806565b3480156102a957600080fd5b506101f4610871565b3480156102be57600080fd5b506101f4600480360360208110156102d557600080fd5b8101906020810181356401000000008111156102f057600080fd5b82018360208201111561030257600080fd5b8035906020019184600183028401116401000000008311171561032457600080fd5b50909250905061095a565b34801561033b57600080fd5b506101706109ee565b34801561035057600080fd5b506103596109f4565b604080516001600160a01b039092168252519081900360200190f35b34801561038157600080fd5b50610170610a03565b34801561039657600080fd5b50610359610a09565b3480156103ab57600080fd5b50610170610a18565b3480156103c057600080fd5b506101f4610a1e565b3480156103d557600080fd5b50610170610b97565b3480156103ea57600080fd5b506103f3610b9d565b604080519115158252519081900360200190f35b34801561041357600080fd5b506101f46004803603602081101561042a57600080fd5b5035610ba6565b34801561043d57600080fd5b50610170610c5e565b34801561045257600080fd5b50610170610c7d565b34801561046757600080fd5b50610359610c83565b34801561047c57600080fd5b506101f46004803603604081101561049357600080fd5b506001600160a01b038135169060200135610c92565b3480156104b557600080fd5b50610170610d49565b3480156104ca57600080fd5b50610170610d6a565b60065481565b60045481565b600c6020526000908152604090205481565b600b5460ff16156105335760405162461bcd60e51b81526004018080602001828103825260218152602001806116de6021913960400191505060405180910390fd5b60085481101561058a576040805162461bcd60e51b815260206004820181905260248201527f4669786564507269636541756374696f6e3a20616d6f756e7420746f206c6f77604482015290519081900360640190fd5b60095415806105b45750600954336000908152600c60205260409020546105b19083610d70565b11155b6105ef5760405162461bcd60e51b81526004018080602001828103825260288152602001806117696028913960400191505060405180910390fd5b600754421061062f5760405162461bcd60e51b815260040180806020018281038252602a815260200180611803602a913960400191505060405180910390fd5b600154610647906001600160a01b0316333084610dd1565b336000908152600c602052604090208190556005546106669082610d70565b600555604051819033907f453f432325042a06f4d628e37adb527edc2f20643c2655ccc268a47766bbf44590600090a350565b600b5460ff16156106db5760405162461bcd60e51b81526004018080602001828103825260218152602001806118766021913960400191505060405180910390fd5b600754421161071b5760405162461bcd60e51b81526004018080602001828103825260258152602001806118bc6025913960400191505060405180910390fd5b600a54600554101561075e5760405162461bcd60e51b815260040180806020018281038252602b815260200180611975602b913960400191505060405180910390fd5b600b805460ff191660011790556040517f36b6b46dc27de0e2e7407f09bfad8e27b837c2ce3153a08fdebf9279d2cd22b790600090a1565b600b5460ff166107d75760405162461bcd60e51b81526004018080602001828103825260258152602001806119266025913960400191505060405180910390fd5b600254600054600554600454610804936001600160a01b039081169316916107ff9190610e31565b610e8e565b565b6000546001600160a01b03163314610865576040805162461bcd60e51b815260206004820152601c60248201527f4669786564507269636541756374696f6e3a20464f5242494444454e00000000604482015290519081900360640190fd5b61086d610ff8565b5050565b600b5460ff166108b25760405162461bcd60e51b81526004018080602001828103825260258152602001806119266025913960400191505060405180910390fd5b336000908152600c60205260409020546108fd5760405162461bcd60e51b81526004018080602001828103825260258152602001806118976025913960400191505060405180910390fd5b336000818152600c602052604081208054919055600254909161092a916001600160a01b03169083610e8e565b604051819033907f3c2de78904a594f8b0dbe9127dd435a38468bf014499e0104abfebb5894b8f6690600090a350565b6000806000806000806000806000808b8b61014081101561097a57600080fd5b506001600160a01b03813581169b50602082013581169a5060408201359950606082013598506080820135975060a0820135965060c0820135955060e082013594506101008201359350610120909101351690506109e08a8a8a8a8a8a8a8a8a8a6110c0565b505050505050505050505050565b60055481565b6001546001600160a01b031681565b60035481565b6000546001600160a01b031681565b600a5481565b6000600a5411610a5f5760405162461bcd60e51b81526004018080602001828103825260228152602001806118e16022913960400191505060405180910390fd5b6007544211610a9f5760405162461bcd60e51b81526004018080602001828103825260258152602001806118bc6025913960400191505060405180910390fd5b336000908152600c6020526040902054610aea5760405162461bcd60e51b81526004018080602001828103825260278152602001806119a06027913960400191505060405180910390fd5b600a5460055410610b2c5760405162461bcd60e51b815260040180806020018281038252602781526020018061184f6027913960400191505060405180910390fd5b336000818152600c602052604081208054919055600b805460ff19166001908117909155549091610b67916001600160a01b03169083610e8e565b604051819033907ff64ed2b021f1a87018cd9640c6befb1fd75c93ff7534a4bbc8bd2f674d5d317290600090a350565b60075481565b600b5460ff1681565b6000546001600160a01b03163314610c05576040805162461bcd60e51b815260206004820152601c60248201527f4669786564507269636541756374696f6e3a20464f5242494444454e00000000604482015290519081900360640190fd5b6007544211610c455760405162461bcd60e51b81526004018080602001828103825260248152602001806117246024913960400191505060405180910390fd5b600054610c5b906001600160a01b031682611317565b50565b6000610c77600554600454610e3190919063ffffffff16565b90505b90565b60095481565b6002546001600160a01b031681565b6000546001600160a01b03163314610cf1576040805162461bcd60e51b815260206004820152601c60248201527f4669786564507269636541756374696f6e3a20464f5242494444454e00000000604482015290519081900360640190fd5b6007544211610d315760405162461bcd60e51b81526004018080602001828103825260248152602001806117246024913960400191505060405180910390fd5b60005461086d9083906001600160a01b031683610e8e565b6000426007541015610d5d57506000610c7a565b600754610c779042610e31565b60085481565b600082820183811015610dca576040805162461bcd60e51b815260206004820152601b60248201527f536166654d6174683a206164646974696f6e206f766572666c6f770000000000604482015290519081900360640190fd5b9392505050565b604080516001600160a01b0380861660248301528416604482015260648082018490528251808303909101815260849091019091526020810180516001600160e01b03166323b872dd60e01b179052610e2b90859061140f565b50505050565b600082821115610e88576040805162461bcd60e51b815260206004820152601e60248201527f536166654d6174683a207375627472616374696f6e206f766572666c6f770000604482015290519081900360640190fd5b50900390565b604080516001600160a01b038481166024830152604480830185905283518084039091018152606490920183526020820180516001600160e01b031663a9059cbb60e01b178152925182516000946060949389169392918291908083835b60208310610f0b5780518252601f199092019160209182019101610eec565b6001836020036101000a0380198251168184511680821785525050505050509050019150506000604051808303816000865af19150503d8060008114610f6d576040519150601f19603f3d011682016040523d82523d6000602084013e610f72565b606091505b5091509150818015610fa0575080511580610fa05750808060200190516020811015610f9d57600080fd5b50515b610ff1576040805162461bcd60e51b815260206004820152601f60248201527f5472616e7366657248656c7065723a205452414e534645525f4641494c454400604482015290519081900360640190fd5b5050505050565b600b5460ff166110395760405162461bcd60e51b81526004018080602001828103825260258152602001806119266025913960400191505060405180910390fd5b600154600054604080516370a0823160e01b81523060048201529051610804936001600160a01b0390811693169183916370a0823191602480820192602092909190829003018186803b15801561108f57600080fd5b505afa1580156110a3573d6000803e3d6000fd5b505050506040513d60208110156110b957600080fd5b5051610e8e565b886001600160a01b03168a6001600160a01b031614156111115760405162461bcd60e51b81526004018080602001828103825260218152602001806117486021913960400191505060405180910390fd5b600088116111505760405162461bcd60e51b81526004018080602001828103825260258152602001806116ff6025913960400191505060405180910390fd5b6000871161118f5760405162461bcd60e51b81526004018080602001828103825260288152602001806117b76028913960400191505060405180910390fd5b4286118061119b575085155b6111d65760405162461bcd60e51b81526004018080602001828103825260248152602001806117df6024913960400191505060405180910390fd5b858511806111e2575084155b61121d5760405162461bcd60e51b815260040180806020018281038252602281526020018061182d6022913960400191505060405180910390fd5b600180546001600160a01b03808d166001600160a01b031992831617909255600280548c8416908316179081905560038b905560048a90556006899055600788905560088790556009869055600a85905560008054858516931692909217909155600b805460ff19169055611295911633308a610dd1565b604080516001600160a01b03808d1682528b1660208201528082018a9052606081018990526080810188905260a0810187905260c0810186905260e08101859052610100810184905290517fc00d07d4062c1a872c15065c05861ed04dba017d20e753bb575eb9fa0d9deba7918190036101200190a150505050505050505050565b604080516000808252602082019092526001600160a01b0384169083906040518082805190602001908083835b602083106113635780518252601f199092019160209182019101611344565b6001836020036101000a03801982511681845116808217855250505050505090500191505060006040518083038185875af1925050503d80600081146113c5576040519150601f19603f3d011682016040523d82523d6000602084013e6113ca565b606091505b505090508061140a5760405162461bcd60e51b81526004018080602001828103825260238152602001806119036023913960400191505060405180910390fd5b505050565b6060611464826040518060400160405280602081526020017f5361666545524332303a206c6f772d6c6576656c2063616c6c206661696c6564815250856001600160a01b03166114c09092919063ffffffff16565b80519091501561140a5780806020019051602081101561148357600080fd5b505161140a5760405162461bcd60e51b815260040180806020018281038252602a81526020018061194b602a913960400191505060405180910390fd5b60606114cf84846000856114d7565b949350505050565b6060824710156115185760405162461bcd60e51b81526004018080602001828103825260268152602001806117916026913960400191505060405180910390fd5b61152185611633565b611572576040805162461bcd60e51b815260206004820152601d60248201527f416464726573733a2063616c6c20746f206e6f6e2d636f6e7472616374000000604482015290519081900360640190fd5b60006060866001600160a01b031685876040518082805190602001908083835b602083106115b15780518252601f199092019160209182019101611592565b6001836020036101000a03801982511681845116808217855250505050505090500191505060006040518083038185875af1925050503d8060008114611613576040519150601f19603f3d011682016040523d82523d6000602084013e611618565b606091505b5091509150611628828286611639565b979650505050505050565b3b151590565b60608315611648575081610dca565b8251156116585782518084602001fd5b8160405162461bcd60e51b81526004018080602001828103825283818151815260200191508051906020019080838360005b838110156116a257818101518382015260200161168a565b50505050905090810190601f1680156116cf5780820380516001836020036101000a031916815260200191505b509250505060405180910390fdfe4669786564507269636541756374696f6e3a2061756374696f6e20636c6f7365644669786564507269636541756374696f6e3a20696e76616c696420746f6b656e50726963654669786564507269636541756374696f6e3a2061756374696f6e206e6f7420656e6465644669786564507269636541756374696f6e3a20696e76616c696420746f6b656e734669786564507269636541756374696f6e3a20616c6c6f636174696f6e4d61782072656163686564416464726573733a20696e73756666696369656e742062616c616e636520666f722063616c6c4669786564507269636541756374696f6e3a20696e76616c696420746f6b656e73466f7253616c654669786564507269636541756374696f6e3a20696e76616c6964207374617274446174654669786564507269636541756374696f6e3a2061756374696f6e20646561646c696e65207061737365644669786564507269636541756374696f6e3a20696e76616c696420656e64446174654669786564507269636541756374696f6e3a206d696e756d756d526169736520726561636865644669786564507269636541756374696f6e3a20616c726561647920636c6f7365644669786564507269636541756374696f6e3a206e6f20746f6b656e7320746f20636c61696d4669786564507269636541756374696f6e3a20656e6444617465206e6f74207061737365644669786564507269636541756374696f6e3a206e6f206d696e756d756d52616973655472616e7366657248656c7065723a204554485f5452414e534645525f4641494c45444669786564507269636541756374696f6e3a2061756374696f6e206e6f7420636c6f7365645361666545524332303a204552433230206f7065726174696f6e20646964206e6f7420737563636565644669786564507269636541756374696f6e3a206d696e756d756d5261697365206e6f7420726561636865644669786564507269636541756374696f6e3a206e6f20746f6b656e7320746f2072656c65617365a26469706673582212208a2350307007175afe7b0ebd8238aa1e0320bb197358f1dd7344b95ee4b66f4e64736f6c634300060c0033",
  "linkReferences": {},
  "deployedLinkReferences": {}
}